{
  "contractName": "GithubVerification",
  "abi": [
    {
      "inputs": [],
      "stateMutability": "nonpayable",
      "type": "constructor"
    },
    {
      "inputs": [
        {
          "internalType": "bytes32",
          "name": "_messageHash",
          "type": "bytes32"
        }
      ],
      "name": "getEthSignedMessageHash",
      "outputs": [
        {
          "internalType": "bytes32",
          "name": "",
          "type": "bytes32"
        }
      ],
      "stateMutability": "pure",
      "type": "function",
      "constant": true
    },
    {
      "inputs": [
        {
          "internalType": "address",
          "name": "_toVerify",
          "type": "address"
        },
        {
          "internalType": "string",
          "name": "_userHash",
          "type": "string"
        },
        {
          "internalType": "uint256",
          "name": "_timestamp",
          "type": "uint256"
        }
      ],
      "name": "getMessageHash",
      "outputs": [
        {
          "internalType": "bytes32",
          "name": "",
          "type": "bytes32"
        }
      ],
      "stateMutability": "pure",
      "type": "function",
      "constant": true
    },
    {
      "inputs": [
        {
          "internalType": "bytes32",
          "name": "_ethSignedMessageHash",
          "type": "bytes32"
        },
        {
          "internalType": "bytes",
          "name": "_signature",
          "type": "bytes"
        }
      ],
      "name": "recoverSigner",
      "outputs": [
        {
          "internalType": "address",
          "name": "",
          "type": "address"
        }
      ],
      "stateMutability": "pure",
      "type": "function",
      "constant": true
    },
    {
      "inputs": [
        {
          "internalType": "bytes",
          "name": "sig",
          "type": "bytes"
        }
      ],
      "name": "splitSignature",
      "outputs": [
        {
          "internalType": "bytes32",
          "name": "r",
          "type": "bytes32"
        },
        {
          "internalType": "bytes32",
          "name": "s",
          "type": "bytes32"
        },
        {
          "internalType": "uint8",
          "name": "v",
          "type": "uint8"
        }
      ],
      "stateMutability": "pure",
      "type": "function",
      "constant": true
    },
    {
      "inputs": [
        {
          "internalType": "address",
          "name": "_signer",
          "type": "address"
        },
        {
          "internalType": "address",
          "name": "_toVerify",
          "type": "address"
        },
        {
          "internalType": "string",
          "name": "_userHash",
          "type": "string"
        },
        {
          "internalType": "uint256",
          "name": "_timestamp",
          "type": "uint256"
        },
        {
          "internalType": "bytes",
          "name": "signature",
          "type": "bytes"
        }
      ],
      "name": "verify",
      "outputs": [
        {
          "internalType": "bool",
          "name": "",
          "type": "bool"
        }
      ],
      "stateMutability": "pure",
      "type": "function",
      "constant": true
    },
    {
      "inputs": [
        {
          "internalType": "address",
          "name": "_toVerify",
          "type": "address"
        },
        {
          "internalType": "string",
          "name": "_userHash",
          "type": "string"
        },
        {
          "internalType": "uint256",
          "name": "_timestamp",
          "type": "uint256"
        },
        {
          "internalType": "string",
          "name": "_providerId",
          "type": "string"
        },
        {
          "internalType": "bytes",
          "name": "_proofSignature",
          "type": "bytes"
        }
      ],
      "name": "verifyAddress",
      "outputs": [],
      "stateMutability": "nonpayable",
      "type": "function"
    },
    {
      "inputs": [
        {
          "internalType": "address",
          "name": "_toCheck",
          "type": "address"
        }
      ],
      "name": "getStamps",
      "outputs": [
        {
          "components": [
            {
              "internalType": "string",
              "name": "id",
              "type": "string"
            },
            {
              "internalType": "string",
              "name": "_hash",
              "type": "string"
            },
            {
              "internalType": "uint256",
              "name": "verifiedAt",
              "type": "uint256"
            }
          ],
          "internalType": "struct GithubVerification.Stamp[]",
          "name": "",
          "type": "tuple[]"
        }
      ],
      "stateMutability": "view",
      "type": "function",
      "constant": true
    },
    {
      "inputs": [
        {
          "internalType": "uint256",
          "name": "_days",
          "type": "uint256"
        }
      ],
      "name": "setVerifyDayThreshold",
      "outputs": [],
      "stateMutability": "nonpayable",
      "type": "function"
    }
  ],
  "bytecode": "0x60a0604052603c60025534801561001557600080fd5b503373ffffffffffffffffffffffffffffffffffffffff1660808173ffffffffffffffffffffffffffffffffffffffff16815250506080516123aa61007a60003960008181610491015281816105290152818161079d0152610e2301526123aa6000f3fe608060405234801561001057600080fd5b50600436106100885760003560e01c80638673f0741161005b5780638673f0741461013957806397aba7f914610155578063a7bb580314610185578063fa540801146101b757610088565b8063082d8f291461008d5780631a371932146100bd5780631e31549e146100ed57806337bf86b31461011d575b600080fd5b6100a760048036038101906100a29190611144565b6101e7565b6040516100b491906111cc565b60405180910390f35b6100d760048036038101906100d291906111e7565b61021d565b6040516100e491906113bb565b60405180910390f35b610107600480360381019061010291906114de565b6103e8565b60405161011491906115af565b60405180910390f35b610137600480360381019061013291906115ca565b61048f565b005b610153600480360381019061014e919061164d565b610527565b005b61016f600480360381019061016a9190611755565b610d12565b60405161017c91906117c0565b60405180910390f35b61019f600480360381019061019a91906117db565b610d81565b6040516101ae93929190611840565b60405180910390f35b6101d160048036038101906101cc9190611877565b610de9565b6040516101de91906111cc565b60405180910390f35b60008383836040516020016101fe93929190611949565b6040516020818303038152906040528051906020012090509392505050565b60606000808373ffffffffffffffffffffffffffffffffffffffff1673ffffffffffffffffffffffffffffffffffffffff168152602001908152602001600020805480602002602001604051908101604052809291908181526020016000905b828210156103dd57838290600052602060002090600302016040518060600160405290816000820180546102b0906119b1565b80601f01602080910402602001604051908101604052809291908181526020018280546102dc906119b1565b80156103295780601f106102fe57610100808354040283529160200191610329565b820191906000526020600020905b81548152906001019060200180831161030c57829003601f168201915b50505050508152602001600182018054610342906119b1565b80601f016020809104026020016040519081016040528092919081815260200182805461036e906119b1565b80156103bb5780601f10610390576101008083540402835291602001916103bb565b820191906000526020600020905b81548152906001019060200180831161039e57829003601f168201915b505050505081526020016002820154815250508152602001906001019061027d565b505050509050919050565b60008061043a8787878080601f016020809104026020016040519081016040528093929190818152602001838380828437600081840152601f19601f82011690508083019250505050505050866101e7565b9050600061044782610de9565b90508873ffffffffffffffffffffffffffffffffffffffff1661046a8286610d12565b73ffffffffffffffffffffffffffffffffffffffff1614925050509695505050505050565b7f000000000000000000000000000000000000000000000000000000000000000073ffffffffffffffffffffffffffffffffffffffff163373ffffffffffffffffffffffffffffffffffffffff161461051d576040517f08c379a000000000000000000000000000000000000000000000000000000000815260040161051490611a3f565b60405180910390fd5b8060028190555050565b7f000000000000000000000000000000000000000000000000000000000000000073ffffffffffffffffffffffffffffffffffffffff163373ffffffffffffffffffffffffffffffffffffffff16146105b5576040517f08c379a00000000000000000000000000000000000000000000000000000000081526004016105ac90611a3f565b60405180910390fd5b600073ffffffffffffffffffffffffffffffffffffffff16600188886040516105df929190611a84565b908152602001604051809103902060009054906101000a900473ffffffffffffffffffffffffffffffffffffffff1673ffffffffffffffffffffffffffffffffffffffff16148061069b57508773ffffffffffffffffffffffffffffffffffffffff1660018888604051610654929190611a84565b908152602001604051809103902060009054906101000a900473ffffffffffffffffffffffffffffffffffffffff1673ffffffffffffffffffffffffffffffffffffffff16145b6106da576040517f08c379a00000000000000000000000000000000000000000000000000000000081526004016106d190611b0f565b60405180910390fd5b600073ffffffffffffffffffffffffffffffffffffffff168873ffffffffffffffffffffffffffffffffffffffff1603610749576040517f08c379a000000000000000000000000000000000000000000000000000000000815260040161074090611b7b565b60405180910390fd5b42610e10866107589190611bca565b10610798576040517f08c379a000000000000000000000000000000000000000000000000000000000815260040161078f90611c70565b60405180910390fd5b61080a7f00000000000000000000000000000000000000000000000000000000000000008989898987878080601f016020809104026020016040519081016040528093929190818152602001838380828437600081840152601f19601f820116905080830192505050505050506103e8565b610849576040517f08c379a000000000000000000000000000000000000000000000000000000000815260040161084090611cdc565b60405180910390fd5b60008060005b6000808c73ffffffffffffffffffffffffffffffffffffffff1673ffffffffffffffffffffffffffffffffffffffff1681526020019081526020016000208054905081101561096c5786866040516020016108ab929190611a84565b604051602081830303815290604052805190602001206000808d73ffffffffffffffffffffffffffffffffffffffff1673ffffffffffffffffffffffffffffffffffffffff168152602001908152602001600020828154811061091157610910611cfc565b5b90600052602060002090600302016000016040516020016109329190611dc3565b6040516020818303038152906040528051906020012003610959576001925080915061096c565b808061096490611dda565b91505061084f565b5081610aa8576000808b73ffffffffffffffffffffffffffffffffffffffff1673ffffffffffffffffffffffffffffffffffffffff168152602001908152602001600020610a4287878080601f016020809104026020016040519081016040528093929190818152602001838380828437600081840152601f19601f820116905080830192505050505050508b8b8080601f016020809104026020016040519081016040528093929190818152602001838380828437600081840152601f19601f82011690508083019250505050505050610e19565b90806001815401808255809150506001900390600052602060002090600302016000909190919091506000820151816000019081610a809190611fb9565b506020820151816001019081610a969190611fb9565b50604082015181600201555050610ca7565b60008060008c73ffffffffffffffffffffffffffffffffffffffff1673ffffffffffffffffffffffffffffffffffffffff1681526020019081526020016000208281548110610afa57610af9611cfc565b5b90600052602060002090600302016002015442610b17919061208b565b90506201518060028054610b2b91906120ee565b610b35919061211f565b811115610c6a57610bce87878080601f016020809104026020016040519081016040528093929190818152602001838380828437600081840152601f19601f820116905080830192505050505050508b8b8080601f016020809104026020016040519081016040528093929190818152602001838380828437600081840152601f19601f82011690508083019250505050505050610e19565b6000808d73ffffffffffffffffffffffffffffffffffffffff1673ffffffffffffffffffffffffffffffffffffffff1681526020019081526020016000208381548110610c1e57610c1d611cfc565b5b90600052602060002090600302016000820151816000019081610c419190611fb9565b506020820151816001019081610c579190611fb9565b5060408201518160020155905050610ca5565b6040517f08c379a0000000000000000000000000000000000000000000000000000000008152600401610c9c906121f9565b60405180910390fd5b505b8960018a8a604051610cba929190611a84565b908152602001604051809103902060006101000a81548173ffffffffffffffffffffffffffffffffffffffff021916908373ffffffffffffffffffffffffffffffffffffffff16021790555050505050505050505050565b600080600080610d2185610d81565b92509250925060018682858560405160008152602001604052604051610d4a9493929190612219565b6020604051602081039080840390855afa158015610d6c573d6000803e3d6000fd5b50505060206040510351935050505092915050565b60008060006041845114610dca576040517f08c379a0000000000000000000000000000000000000000000000000000000008152600401610dc1906122aa565b60405180910390fd5b6020840151925060408401519150606084015160001a90509193909250565b600081604051602001610dfc9190612337565b604051602081830303815290604052805190602001209050919050565b610e21610f35565b7f000000000000000000000000000000000000000000000000000000000000000073ffffffffffffffffffffffffffffffffffffffff163373ffffffffffffffffffffffffffffffffffffffff1614610eaf576040517f08c379a0000000000000000000000000000000000000000000000000000000008152600401610ea690611a3f565b60405180910390fd5b6000604051806060016040528085815260200184815260200142815250905033600184604051610edf919061235d565b908152602001604051809103902060006101000a81548173ffffffffffffffffffffffffffffffffffffffff021916908373ffffffffffffffffffffffffffffffffffffffff1602179055508091505092915050565b60405180606001604052806060815260200160608152602001600081525090565b6000604051905090565b600080fd5b600080fd5b600073ffffffffffffffffffffffffffffffffffffffff82169050919050565b6000610f9582610f6a565b9050919050565b610fa581610f8a565b8114610fb057600080fd5b50565b600081359050610fc281610f9c565b92915050565b600080fd5b600080fd5b6000601f19601f8301169050919050565b7f4e487b7100000000000000000000000000000000000000000000000000000000600052604160045260246000fd5b61101b82610fd2565b810181811067ffffffffffffffff8211171561103a57611039610fe3565b5b80604052505050565b600061104d610f56565b90506110598282611012565b919050565b600067ffffffffffffffff82111561107957611078610fe3565b5b61108282610fd2565b9050602081019050919050565b82818337600083830152505050565b60006110b16110ac8461105e565b611043565b9050828152602081018484840111156110cd576110cc610fcd565b5b6110d884828561108f565b509392505050565b600082601f8301126110f5576110f4610fc8565b5b813561110584826020860161109e565b91505092915050565b6000819050919050565b6111218161110e565b811461112c57600080fd5b50565b60008135905061113e81611118565b92915050565b60008060006060848603121561115d5761115c610f60565b5b600061116b86828701610fb3565b935050602084013567ffffffffffffffff81111561118c5761118b610f65565b5b611198868287016110e0565b92505060406111a98682870161112f565b9150509250925092565b6000819050919050565b6111c6816111b3565b82525050565b60006020820190506111e160008301846111bd565b92915050565b6000602082840312156111fd576111fc610f60565b5b600061120b84828501610fb3565b91505092915050565b600081519050919050565b600082825260208201905092915050565b6000819050602082019050919050565b600081519050919050565b600082825260208201905092915050565b60005b8381101561127a57808201518184015260208101905061125f565b60008484015250505050565b600061129182611240565b61129b818561124b565b93506112ab81856020860161125c565b6112b481610fd2565b840191505092915050565b6112c88161110e565b82525050565b600060608301600083015184820360008601526112eb8282611286565b915050602083015184820360208601526113058282611286565b915050604083015161131a60408601826112bf565b508091505092915050565b600061133183836112ce565b905092915050565b6000602082019050919050565b600061135182611214565b61135b818561121f565b93508360208202850161136d85611230565b8060005b858110156113a9578484038952815161138a8582611325565b945061139583611339565b925060208a01995050600181019050611371565b50829750879550505050505092915050565b600060208201905081810360008301526113d58184611346565b905092915050565b600080fd5b600080fd5b60008083601f8401126113fd576113fc610fc8565b5b8235905067ffffffffffffffff81111561141a576114196113dd565b5b602083019150836001820283011115611436576114356113e2565b5b9250929050565b600067ffffffffffffffff82111561145857611457610fe3565b5b61146182610fd2565b9050602081019050919050565b600061148161147c8461143d565b611043565b90508281526020810184848401111561149d5761149c610fcd565b5b6114a884828561108f565b509392505050565b600082601f8301126114c5576114c4610fc8565b5b81356114d584826020860161146e565b91505092915050565b60008060008060008060a087890312156114fb576114fa610f60565b5b600061150989828a01610fb3565b965050602061151a89828a01610fb3565b955050604087013567ffffffffffffffff81111561153b5761153a610f65565b5b61154789828a016113e7565b9450945050606061155a89828a0161112f565b925050608087013567ffffffffffffffff81111561157b5761157a610f65565b5b61158789828a016114b0565b9150509295509295509295565b60008115159050919050565b6115a981611594565b82525050565b60006020820190506115c460008301846115a0565b92915050565b6000602082840312156115e0576115df610f60565b5b60006115ee8482850161112f565b91505092915050565b60008083601f84011261160d5761160c610fc8565b5b8235905067ffffffffffffffff81111561162a576116296113dd565b5b602083019150836001820283011115611646576116456113e2565b5b9250929050565b60008060008060008060008060a0898b03121561166d5761166c610f60565b5b600061167b8b828c01610fb3565b985050602089013567ffffffffffffffff81111561169c5761169b610f65565b5b6116a88b828c016113e7565b975097505060406116bb8b828c0161112f565b955050606089013567ffffffffffffffff8111156116dc576116db610f65565b5b6116e88b828c016113e7565b9450945050608089013567ffffffffffffffff81111561170b5761170a610f65565b5b6117178b828c016115f7565b92509250509295985092959890939650565b611732816111b3565b811461173d57600080fd5b50565b60008135905061174f81611729565b92915050565b6000806040838503121561176c5761176b610f60565b5b600061177a85828601611740565b925050602083013567ffffffffffffffff81111561179b5761179a610f65565b5b6117a7858286016114b0565b9150509250929050565b6117ba81610f8a565b82525050565b60006020820190506117d560008301846117b1565b92915050565b6000602082840312156117f1576117f0610f60565b5b600082013567ffffffffffffffff81111561180f5761180e610f65565b5b61181b848285016114b0565b91505092915050565b600060ff82169050919050565b61183a81611824565b82525050565b600060608201905061185560008301866111bd565b61186260208301856111bd565b61186f6040830184611831565b949350505050565b60006020828403121561188d5761188c610f60565b5b600061189b84828501611740565b91505092915050565b60008160601b9050919050565b60006118bc826118a4565b9050919050565b60006118ce826118b1565b9050919050565b6118e66118e182610f8a565b6118c3565b82525050565b600081905092915050565b600061190282611240565b61190c81856118ec565b935061191c81856020860161125c565b80840191505092915050565b6000819050919050565b61194361193e8261110e565b611928565b82525050565b600061195582866118d5565b60148201915061196582856118f7565b91506119718284611932565b602082019150819050949350505050565b7f4e487b7100000000000000000000000000000000000000000000000000000000600052602260045260246000fd5b600060028204905060018216806119c957607f821691505b6020821081036119dc576119db611982565b5b50919050565b600082825260208201905092915050565b7f4f776e61626c653a2063616c6c6572206973206e6f7420746865206f776e6572600082015250565b6000611a296020836119e2565b9150611a34826119f3565b602082019050919050565b60006020820190508181036000830152611a5881611a1c565b9050919050565b6000611a6b83856118ec565b9350611a7883858461108f565b82840190509392505050565b6000611a91828486611a5f565b91508190509392505050565b7f494420616c726561647920616666696c6961746564207769746820616e6f746860008201527f6572206164647265737300000000000000000000000000000000000000000000602082015250565b6000611af9602a836119e2565b9150611b0482611a9d565b604082019050919050565b60006020820190508181036000830152611b2881611aec565b9050919050565b7f416464726573732063616e6e6f74206265203078300000000000000000000000600082015250565b6000611b656015836119e2565b9150611b7082611b2f565b602082019050919050565b60006020820190508181036000830152611b9481611b58565b9050919050565b7f4e487b7100000000000000000000000000000000000000000000000000000000600052601160045260246000fd5b6000611bd58261110e565b9150611be08361110e565b9250828201905080821115611bf857611bf7611b9b565b5b92915050565b7f50726f6f6620657870697265642c2074727920766572696679696e672061676160008201527f696e000000000000000000000000000000000000000000000000000000000000602082015250565b6000611c5a6022836119e2565b9150611c6582611bfe565b604082019050919050565b60006020820190508181036000830152611c8981611c4d565b9050919050565b7f50726f6f66206973206e6f742076616c69640000000000000000000000000000600082015250565b6000611cc66012836119e2565b9150611cd182611c90565b602082019050919050565b60006020820190508181036000830152611cf581611cb9565b9050919050565b7f4e487b7100000000000000000000000000000000000000000000000000000000600052603260045260246000fd5b60008190508160005260206000209050919050565b60008154611d4d816119b1565b611d5781866118ec565b94506001821660008114611d725760018114611d8757611dba565b60ff1983168652811515820286019350611dba565b611d9085611d2b565b60005b83811015611db257815481890152600182019150602081019050611d93565b838801955050505b50505092915050565b6000611dcf8284611d40565b915081905092915050565b6000611de58261110e565b91507fffffffffffffffffffffffffffffffffffffffffffffffffffffffffffffffff8203611e1757611e16611b9b565b5b600182019050919050565b60006020601f8301049050919050565b600082821b905092915050565b600060088302611e6f7fffffffffffffffffffffffffffffffffffffffffffffffffffffffffffffffff82611e32565b611e798683611e32565b95508019841693508086168417925050509392505050565b6000819050919050565b6000611eb6611eb1611eac8461110e565b611e91565b61110e565b9050919050565b6000819050919050565b611ed083611e9b565b611ee4611edc82611ebd565b848454611e3f565b825550505050565b600090565b611ef9611eec565b611f04818484611ec7565b505050565b5b81811015611f2857611f1d600082611ef1565b600181019050611f0a565b5050565b601f821115611f6d57611f3e81611d2b565b611f4784611e22565b81016020851015611f56578190505b611f6a611f6285611e22565b830182611f09565b50505b505050565b600082821c905092915050565b6000611f9060001984600802611f72565b1980831691505092915050565b6000611fa98383611f7f565b9150826002028217905092915050565b611fc282611240565b67ffffffffffffffff811115611fdb57611fda610fe3565b5b611fe582546119b1565b611ff0828285611f2c565b600060209050601f8311600181146120235760008415612011578287015190505b61201b8582611f9d565b865550612083565b601f19841661203186611d2b565b60005b8281101561205957848901518255600182019150602085019450602081019050612034565b868310156120765784890151612072601f891682611f7f565b8355505b6001600288020188555050505b505050505050565b60006120968261110e565b91506120a18361110e565b92508282039050818111156120b9576120b8611b9b565b5b92915050565b7f4e487b7100000000000000000000000000000000000000000000000000000000600052601260045260246000fd5b60006120f98261110e565b91506121048361110e565b925082612114576121136120bf565b5b828204905092915050565b600061212a8261110e565b91506121358361110e565b92508282026121438161110e565b9150828204841483151761215a57612159611b9b565b5b5092915050565b7f4164647265737320616c72656164792076657269666965643b2063616e6e6f7460008201527f2072652d766572696679207965742c2077616974206174206c6561737420686160208201527f6c6620746865207665726966794461795468726573686f6c6400000000000000604082015250565b60006121e36059836119e2565b91506121ee82612161565b606082019050919050565b60006020820190508181036000830152612212816121d6565b9050919050565b600060808201905061222e60008301876111bd565b61223b6020830186611831565b61224860408301856111bd565b61225560608301846111bd565b95945050505050565b7f696e76616c6964207369676e6174757265206c656e6774680000000000000000600082015250565b60006122946018836119e2565b915061229f8261225e565b602082019050919050565b600060208201905081810360008301526122c381612287565b9050919050565b7f19457468657265756d205369676e6564204d6573736167653a0a333200000000600082015250565b6000612300601c836118ec565b915061230b826122ca565b601c82019050919050565b6000819050919050565b61233161232c826111b3565b612316565b82525050565b6000612342826122f3565b915061234e8284612320565b60208201915081905092915050565b600061236982846118f7565b91508190509291505056fea2646970667358221220e5d3896586d85bf59f9767d5dad78892570baab18fc922a6a99989f8be90cac564736f6c63430008120033",
  "immutableReferences": {
    "17": [
      {
        "length": 32,
        "start": 1169
      },
      {
        "length": 32,
        "start": 1321
      },
      {
        "length": 32,
        "start": 1949
      },
      {
        "length": 32,
        "start": 3619
      }
    ]
  },
  "source": "// SPDX-License-Identifier: MIT\npragma solidity ^0.8.0;\n\nimport \"./SignatureHelper.sol\";\n\n/// @title A contract to verify addresses\n/// @author JSC LEE\n/// @notice You can use this contract to verify addresses\ncontract GithubVerification is SignatureHelper {\n    mapping(address => Stamp[]) internal stamps;\n    mapping(string => address) internal stampHashMap;\n\n    address private immutable _owner;\n\n    uint verifyDayThreshold = 60;\n\n    struct Stamp {\n        string id;\n        string _hash;\n        uint verifiedAt;\n    }\n\n    /// @notice This constructor sets the owner of the contract\n    constructor() {\n        _owner = msg.sender;\n    }\n\n    /// @notice This function can only be called by the owner, and it verifies an address. It's not possible to re-verofuy an address before half the verifyDayThreshold has passed.\n    /// @dev Verifies an address\n    /// @param _toVerify The address to verify\n    /// @param _timestamp in seconds\n    function verifyAddress(\n        address _toVerify,\n        string calldata _userHash,\n        uint _timestamp,\n        string calldata _providerId,\n        bytes calldata _proofSignature\n    ) external onlyOwner {\n        require(\n            stampHashMap[_userHash] == address(0) ||\n                stampHashMap[_userHash] == _toVerify,\n            \"ID already affiliated with another address\"\n        );\n\n        require(_toVerify != address(0), \"Address cannot be 0x0\");\n        require(\n            _timestamp + 1 hours < block.timestamp,\n            \"Proof expired, try verifying again\"\n        );\n\n        require(\n            verify(_owner, _toVerify, _userHash, _timestamp, _proofSignature),\n            \"Proof is not valid\"\n        );\n\n        // Check if there is existing stamp with providerId\n        bool found = false;\n        uint foundIndex = 0;\n\n        for (uint i = 0; i < stamps[_toVerify].length; i++) {\n            if (\n                keccak256(abi.encodePacked(stamps[_toVerify][i].id)) ==\n                keccak256(abi.encodePacked(_providerId))\n            ) {\n                found = true;\n                foundIndex = i;\n                break;\n            }\n        }\n\n        if (!found) {\n            stamps[_toVerify].push(createStamp(_providerId, _userHash));\n        } else {\n            // Check how long it has been since the last verification\n            uint timeSinceLastVerification = block.timestamp -\n                stamps[_toVerify][foundIndex].verifiedAt;\n\n            // If it has been more than (verifyDayThreshold / 2) days, update the stamp\n            if (timeSinceLastVerification > (verifyDayThreshold / 2) * 1 days) {\n                stamps[_toVerify][foundIndex] = createStamp(\n                    _providerId,\n                    _userHash\n                );\n            } else {\n                revert(\n                    \"Address already verified; cannot re-verify yet, wait at least half the verifyDayThreshold\"\n                );\n            }\n        }\n\n        stampHashMap[_userHash] = _toVerify;\n    }\n\n    function createStamp(\n        string memory _id,\n        string memory _userHash\n    ) internal onlyOwner returns (Stamp memory) {\n        Stamp memory stamp = Stamp(_id, _userHash, block.timestamp);\n        stampHashMap[_userHash] = msg.sender;\n        return stamp;\n    }\n\n    /// @notice This function checks if an address is verified and if the address has been verified recently (within the set verifyDayThreshold)\n    /// @param _toCheck The address to check\n    /// @return A boolean indicating if the address is verified\n    // function addressIsVerified(address _toCheck) external view returns (bool) {\n    //     if (\n    //         verifiedTimeMap[_toCheck] + (verifyDayThreshold * 1 days) <\n    //         block.timestamp\n    //     ) return false;\n\n    //     return verifiedTimeMap[_toCheck] > 0;\n    // }\n\n    /// @notice This function returns the stamps of an address\n    /// @param _toCheck The address to check\n    /// @return An array of stamps\n    function getStamps(\n        address _toCheck\n    ) external view returns (Stamp[] memory) {\n        return stamps[_toCheck];\n    }\n\n    /// @notice This function can only be called by the owner, and it sets the verifyDayThreshold\n    /// @dev Sets the verifyDayThreshold\n    /// @param _days The number of days to set the verifyDayThreshold to\n    function setVerifyDayThreshold(uint _days) external onlyOwner {\n        verifyDayThreshold = _days;\n    }\n\n    modifier onlyOwner() {\n        require(msg.sender == _owner, \"Ownable: caller is not the owner\");\n        _;\n    }\n}\n",
  "sourcePath": "/Users/mik-0/Documents/GitHub/SecureSECOVerification/block/contracts/GithubVerification.sol",
  "compiler": {
    "name": "solc",
    "version": "0.8.18+commit.87f61d96.Emscripten.clang"
  },
  "schemaVersion": "3.4.12",
  "updatedAt": "2023-03-16T11:31:43.673Z",
  "networkType": "ethereum",
  "devdoc": {
    "author": "JSC LEE",
    "kind": "dev",
    "methods": {
      "getStamps(address)": {
        "params": {
          "_toCheck": "The address to check"
        },
        "returns": {
          "_0": "An array of stamps"
        }
      },
      "setVerifyDayThreshold(uint256)": {
        "details": "Sets the verifyDayThreshold",
        "params": {
          "_days": "The number of days to set the verifyDayThreshold to"
        }
      },
      "verifyAddress(address,string,uint256,string,bytes)": {
        "details": "Verifies an address",
        "params": {
          "_timestamp": "in seconds",
          "_toVerify": "The address to verify"
        }
      }
    },
    "title": "A contract to verify addresses",
    "version": 1
  },
  "userdoc": {
    "kind": "user",
    "methods": {
      "constructor": {
        "notice": "This constructor sets the owner of the contract"
      },
      "getStamps(address)": {
        "notice": "This function returns the stamps of an address"
      },
      "setVerifyDayThreshold(uint256)": {
        "notice": "This function can only be called by the owner, and it sets the verifyDayThreshold"
      },
      "verifyAddress(address,string,uint256,string,bytes)": {
        "notice": "This function can only be called by the owner, and it verifies an address. It's not possible to re-verofuy an address before half the verifyDayThreshold has passed."
      }
    },
    "notice": "You can use this contract to verify addresses",
    "version": 1
  }
}