{
  "contractName": "GithubVerification",
  "abi": [
    {
      "inputs": [],
      "stateMutability": "nonpayable",
      "type": "constructor"
    },
    {
      "inputs": [
        {
          "internalType": "address",
          "name": "_toVerify",
          "type": "address"
        }
      ],
      "name": "verifyAddress",
      "outputs": [],
      "stateMutability": "nonpayable",
      "type": "function"
    },
    {
      "inputs": [
        {
          "internalType": "address",
          "name": "_toCheck",
          "type": "address"
        }
      ],
      "name": "addressIsVerified",
      "outputs": [
        {
          "internalType": "bool",
          "name": "",
          "type": "bool"
        }
      ],
      "stateMutability": "view",
      "type": "function",
      "constant": true
    }
  ],
  "bytecode": "0x60a060405234801561001057600080fd5b503373ffffffffffffffffffffffffffffffffffffffff1660808173ffffffffffffffffffffffffffffffffffffffff168152505060805161031e61005f600039600060d3015261031e6000f3fe608060405234801561001057600080fd5b50600436106100365760003560e01c806310a4cff71461003b578063fcb2cafc1461006b575b600080fd5b61005560048036038101906100509190610208565b610087565b6040516100629190610250565b60405180910390f35b61008560048036038101906100809190610208565b6100d1565b005b6000806000808473ffffffffffffffffffffffffffffffffffffffff1673ffffffffffffffffffffffffffffffffffffffff16815260200190815260200160002054119050919050565b7f000000000000000000000000000000000000000000000000000000000000000073ffffffffffffffffffffffffffffffffffffffff163373ffffffffffffffffffffffffffffffffffffffff161461015f576040517f08c379a0000000000000000000000000000000000000000000000000000000008152600401610156906102c8565b60405180910390fd5b426000808373ffffffffffffffffffffffffffffffffffffffff1673ffffffffffffffffffffffffffffffffffffffff1681526020019081526020016000208190555050565b600080fd5b600073ffffffffffffffffffffffffffffffffffffffff82169050919050565b60006101d5826101aa565b9050919050565b6101e5816101ca565b81146101f057600080fd5b50565b600081359050610202816101dc565b92915050565b60006020828403121561021e5761021d6101a5565b5b600061022c848285016101f3565b91505092915050565b60008115159050919050565b61024a81610235565b82525050565b60006020820190506102656000830184610241565b92915050565b600082825260208201905092915050565b7f4f776e61626c653a2063616c6c6572206973206e6f7420746865206f776e6572600082015250565b60006102b260208361026b565b91506102bd8261027c565b602082019050919050565b600060208201905081810360008301526102e1816102a5565b905091905056fea2646970667358221220334494831ff275c4566a651d54d0fa5e32cea0c5f9cd766e5f512754b36b8d4a64736f6c63430008120033",
  "immutableReferences": {
    "7": [
      {
        "length": 32,
        "start": 211
      }
    ]
  },
  "source": "// SPDX-License-Identifier: MIT\npragma solidity ^0.8.0;\n\ncontract GithubVerification {\n    mapping(address => uint256) internal verifiedTimeMap;\n\n    address private immutable _owner;\n\n    constructor() {\n        _owner = msg.sender;\n    }\n\n    function verifyAddress(address _toVerify) external onlyOwner {\n        verifiedTimeMap[_toVerify] = block.timestamp;\n    }\n\n    function addressIsVerified(address _toCheck) external view returns (bool) {\n        return verifiedTimeMap[_toCheck] > 0;\n    }\n\n    modifier onlyOwner() {\n        require(msg.sender == _owner, \"Ownable: caller is not the owner\");\n        _;\n    }\n}\n",
  "sourcePath": "/Users/mik-0/Documents/GitHub/SecureSECOVerification/block/contracts/GithubVerification.sol",
  "compiler": {
    "name": "solc",
    "version": "0.8.18+commit.87f61d96.Emscripten.clang"
  },
  "schemaVersion": "3.4.12",
  "updatedAt": "2023-03-09T14:29:33.228Z",
  "networkType": "ethereum",
  "devdoc": {
    "kind": "dev",
    "methods": {},
    "version": 1
  },
  "userdoc": {
    "kind": "user",
    "methods": {},
    "version": 1
  }
}