{
  "contractName": "GithubVerification",
  "abi": [
    {
      "inputs": [],
      "stateMutability": "nonpayable",
      "type": "constructor"
    },
    {
      "inputs": [
        {
          "internalType": "bytes32",
          "name": "_messageHash",
          "type": "bytes32"
        }
      ],
      "name": "getEthSignedMessageHash",
      "outputs": [
        {
          "internalType": "bytes32",
          "name": "",
          "type": "bytes32"
        }
      ],
      "stateMutability": "pure",
      "type": "function",
      "constant": true
    },
    {
      "inputs": [
        {
          "internalType": "address",
          "name": "_toVerify",
          "type": "address"
        },
        {
          "internalType": "string",
          "name": "_userHash",
          "type": "string"
        },
        {
          "internalType": "uint256",
          "name": "_timestamp",
          "type": "uint256"
        }
      ],
      "name": "getMessageHash",
      "outputs": [
        {
          "internalType": "bytes32",
          "name": "",
          "type": "bytes32"
        }
      ],
      "stateMutability": "pure",
      "type": "function",
      "constant": true
    },
    {
      "inputs": [
        {
          "internalType": "address",
          "name": "_toVerify",
          "type": "address"
        },
        {
          "internalType": "string",
          "name": "_userHash",
          "type": "string"
        },
        {
          "internalType": "uint256",
          "name": "_timestamp",
          "type": "uint256"
        }
      ],
      "name": "getPackedMessage",
      "outputs": [
        {
          "internalType": "bytes",
          "name": "",
          "type": "bytes"
        }
      ],
      "stateMutability": "pure",
      "type": "function",
      "constant": true
    },
    {
      "inputs": [
        {
          "internalType": "bytes32",
          "name": "_ethSignedMessageHash",
          "type": "bytes32"
        },
        {
          "internalType": "bytes",
          "name": "_signature",
          "type": "bytes"
        }
      ],
      "name": "recoverSigner",
      "outputs": [
        {
          "internalType": "address",
          "name": "",
          "type": "address"
        }
      ],
      "stateMutability": "pure",
      "type": "function",
      "constant": true
    },
    {
      "inputs": [
        {
          "internalType": "bytes",
          "name": "sig",
          "type": "bytes"
        }
      ],
      "name": "splitSignature",
      "outputs": [
        {
          "internalType": "bytes32",
          "name": "r",
          "type": "bytes32"
        },
        {
          "internalType": "bytes32",
          "name": "s",
          "type": "bytes32"
        },
        {
          "internalType": "uint8",
          "name": "v",
          "type": "uint8"
        }
      ],
      "stateMutability": "pure",
      "type": "function",
      "constant": true
    },
    {
      "inputs": [
        {
          "internalType": "address",
          "name": "_signer",
          "type": "address"
        },
        {
          "internalType": "address",
          "name": "_toVerify",
          "type": "address"
        },
        {
          "internalType": "string",
          "name": "_userHash",
          "type": "string"
        },
        {
          "internalType": "uint256",
          "name": "_timestamp",
          "type": "uint256"
        },
        {
          "internalType": "bytes",
          "name": "signature",
          "type": "bytes"
        }
      ],
      "name": "verify",
      "outputs": [
        {
          "internalType": "bool",
          "name": "",
          "type": "bool"
        }
      ],
      "stateMutability": "pure",
      "type": "function",
      "constant": true
    },
    {
      "inputs": [
        {
          "internalType": "address",
          "name": "_toVerify",
          "type": "address"
        },
        {
          "internalType": "string",
          "name": "_userHash",
          "type": "string"
        },
        {
          "internalType": "uint256",
          "name": "_timestamp",
          "type": "uint256"
        },
        {
          "internalType": "string",
          "name": "_providerId",
          "type": "string"
        },
        {
          "internalType": "bytes",
          "name": "_proofSignature",
          "type": "bytes"
        }
      ],
      "name": "verifyAddress",
      "outputs": [],
      "stateMutability": "nonpayable",
      "type": "function"
    },
    {
      "inputs": [
        {
          "internalType": "address",
          "name": "_toCheck",
          "type": "address"
        }
      ],
      "name": "getStamps",
      "outputs": [
        {
          "components": [
            {
              "internalType": "string",
              "name": "id",
              "type": "string"
            },
            {
              "internalType": "string",
              "name": "_hash",
              "type": "string"
            },
            {
              "internalType": "uint256",
              "name": "verifiedAt",
              "type": "uint256"
            }
          ],
          "internalType": "struct GithubVerification.Stamp[]",
          "name": "",
          "type": "tuple[]"
        }
      ],
      "stateMutability": "view",
      "type": "function",
      "constant": true
    },
    {
      "inputs": [
        {
          "internalType": "uint256",
          "name": "_days",
          "type": "uint256"
        }
      ],
      "name": "setVerifyDayThreshold",
      "outputs": [],
      "stateMutability": "nonpayable",
      "type": "function"
    }
  ],
  "bytecode": "0x60a0604052603c60025534801561001557600080fd5b503373ffffffffffffffffffffffffffffffffffffffff1660808173ffffffffffffffffffffffffffffffffffffffff168152505060805161235e61006c600039600081816104b80152610765015261235e6000f3fe608060405234801561001057600080fd5b50600436106100935760003560e01c8063778175291161006657806377817529146101445780638673f0741461017457806397aba7f914610190578063a7bb5803146101c0578063fa540801146101f257610093565b8063082d8f29146100985780631a371932146100c85780631e31549e146100f857806337bf86b314610128575b600080fd5b6100b260048036038101906100ad9190611081565b610222565b6040516100bf9190611109565b60405180910390f35b6100e260048036038101906100dd9190611124565b610244565b6040516100ef91906112f8565b60405180910390f35b610112600480360381019061010d919061141b565b61040f565b60405161011f91906114ec565b60405180910390f35b610142600480360381019061013d9190611507565b6104b6565b005b61015e60048036038101906101599190611081565b61054e565b60405161016b9190611589565b60405180910390f35b61018e60048036038101906101899190611601565b61057d565b005b6101aa60048036038101906101a59190611709565b610cdc565b6040516101b79190611774565b60405180910390f35b6101da60048036038101906101d5919061178f565b610d4b565b6040516101e9939291906117f4565b60405180910390f35b61020c6004803603810190610207919061182b565b610db3565b6040516102199190611109565b60405180910390f35b60008061023085858561054e565b905080805190602001209150509392505050565b60606000808373ffffffffffffffffffffffffffffffffffffffff1673ffffffffffffffffffffffffffffffffffffffff168152602001908152602001600020805480602002602001604051908101604052809291908181526020016000905b8282101561040457838290600052602060002090600302016040518060600160405290816000820180546102d790611887565b80601f016020809104026020016040519081016040528092919081815260200182805461030390611887565b80156103505780601f1061032557610100808354040283529160200191610350565b820191906000526020600020905b81548152906001019060200180831161033357829003601f168201915b5050505050815260200160018201805461036990611887565b80601f016020809104026020016040519081016040528092919081815260200182805461039590611887565b80156103e25780601f106103b7576101008083540402835291602001916103e2565b820191906000526020600020905b8154815290600101906020018083116103c557829003601f168201915b50505050508152602001600282015481525050815260200190600101906102a4565b505050509050919050565b6000806104618787878080601f016020809104026020016040519081016040528093929190818152602001838380828437600081840152601f19601f8201169050808301925050505050505086610222565b9050600061046e82610db3565b90508873ffffffffffffffffffffffffffffffffffffffff166104918286610cdc565b73ffffffffffffffffffffffffffffffffffffffff1614925050509695505050505050565b7f000000000000000000000000000000000000000000000000000000000000000073ffffffffffffffffffffffffffffffffffffffff163373ffffffffffffffffffffffffffffffffffffffff1614610544576040517f08c379a000000000000000000000000000000000000000000000000000000000815260040161053b90611915565b60405180910390fd5b8060028190555050565b6060838383604051602001610565939291906119da565b60405160208183030381529060405290509392505050565b600073ffffffffffffffffffffffffffffffffffffffff16600188886040516105a7929190611a38565b908152602001604051809103902060009054906101000a900473ffffffffffffffffffffffffffffffffffffffff1673ffffffffffffffffffffffffffffffffffffffff16148061066357508773ffffffffffffffffffffffffffffffffffffffff166001888860405161061c929190611a38565b908152602001604051809103902060009054906101000a900473ffffffffffffffffffffffffffffffffffffffff1673ffffffffffffffffffffffffffffffffffffffff16145b6106a2576040517f08c379a000000000000000000000000000000000000000000000000000000000815260040161069990611ac3565b60405180910390fd5b600073ffffffffffffffffffffffffffffffffffffffff168873ffffffffffffffffffffffffffffffffffffffff1603610711576040517f08c379a000000000000000000000000000000000000000000000000000000000815260040161070890611b2f565b60405180910390fd5b610e108561071f9190611b7e565b4210610760576040517f08c379a000000000000000000000000000000000000000000000000000000000815260040161075790611c24565b60405180910390fd5b6107d27f00000000000000000000000000000000000000000000000000000000000000008989898987878080601f016020809104026020016040519081016040528093929190818152602001838380828437600081840152601f19601f8201169050808301925050505050505061040f565b610811576040517f08c379a000000000000000000000000000000000000000000000000000000000815260040161080890611c90565b60405180910390fd5b60008060005b6000808c73ffffffffffffffffffffffffffffffffffffffff1673ffffffffffffffffffffffffffffffffffffffff16815260200190815260200160002080549050811015610934578686604051602001610873929190611a38565b604051602081830303815290604052805190602001206000808d73ffffffffffffffffffffffffffffffffffffffff1673ffffffffffffffffffffffffffffffffffffffff16815260200190815260200160002082815481106108d9576108d8611cb0565b5b90600052602060002090600302016000016040516020016108fa9190611d77565b60405160208183030381529060405280519060200120036109215760019250809150610934565b808061092c90611d8e565b915050610817565b5081610a71576000808b73ffffffffffffffffffffffffffffffffffffffff1673ffffffffffffffffffffffffffffffffffffffff168152602001908152602001600020610a0b87878080601f016020809104026020016040519081016040528093929190818152602001838380828437600081840152601f19601f820116905080830192505050505050508b8b8080601f016020809104026020016040519081016040528093929190818152602001838380828437600081840152601f19601f820116905080830192505050505050508a610de3565b90806001815401808255809150506001900390600052602060002090600302016000909190919091506000820151816000019081610a499190611f6d565b506020820151816001019081610a5f9190611f6d565b50604082015181600201555050610c71565b60008060008c73ffffffffffffffffffffffffffffffffffffffff1673ffffffffffffffffffffffffffffffffffffffff1681526020019081526020016000208281548110610ac357610ac2611cb0565b5b90600052602060002090600302016002015442610ae0919061203f565b90506201518060028054610af491906120a2565b610afe91906120d3565b811115610c3457610b9887878080601f016020809104026020016040519081016040528093929190818152602001838380828437600081840152601f19601f820116905080830192505050505050508b8b8080601f016020809104026020016040519081016040528093929190818152602001838380828437600081840152601f19601f820116905080830192505050505050508a610de3565b6000808d73ffffffffffffffffffffffffffffffffffffffff1673ffffffffffffffffffffffffffffffffffffffff1681526020019081526020016000208381548110610be857610be7611cb0565b5b90600052602060002090600302016000820151816000019081610c0b9190611f6d565b506020820151816001019081610c219190611f6d565b5060408201518160020155905050610c6f565b6040517f08c379a0000000000000000000000000000000000000000000000000000000008152600401610c66906121ad565b60405180910390fd5b505b8960018a8a604051610c84929190611a38565b908152602001604051809103902060006101000a81548173ffffffffffffffffffffffffffffffffffffffff021916908373ffffffffffffffffffffffffffffffffffffffff16021790555050505050505050505050565b600080600080610ceb85610d4b565b92509250925060018682858560405160008152602001604052604051610d1494939291906121cd565b6020604051602081039080840390855afa158015610d36573d6000803e3d6000fd5b50505060206040510351935050505092915050565b60008060006041845114610d94576040517f08c379a0000000000000000000000000000000000000000000000000000000008152600401610d8b9061225e565b60405180910390fd5b6020840151925060408401519150606084015160001a90509193909250565b600081604051602001610dc691906122eb565b604051602081830303815290604052805190602001209050919050565b610deb610e72565b6000604051806060016040528086815260200185815260200184815250905033600185604051610e1b9190612311565b908152602001604051809103902060006101000a81548173ffffffffffffffffffffffffffffffffffffffff021916908373ffffffffffffffffffffffffffffffffffffffff160217905550809150509392505050565b60405180606001604052806060815260200160608152602001600081525090565b6000604051905090565b600080fd5b600080fd5b600073ffffffffffffffffffffffffffffffffffffffff82169050919050565b6000610ed282610ea7565b9050919050565b610ee281610ec7565b8114610eed57600080fd5b50565b600081359050610eff81610ed9565b92915050565b600080fd5b600080fd5b6000601f19601f8301169050919050565b7f4e487b7100000000000000000000000000000000000000000000000000000000600052604160045260246000fd5b610f5882610f0f565b810181811067ffffffffffffffff82111715610f7757610f76610f20565b5b80604052505050565b6000610f8a610e93565b9050610f968282610f4f565b919050565b600067ffffffffffffffff821115610fb657610fb5610f20565b5b610fbf82610f0f565b9050602081019050919050565b82818337600083830152505050565b6000610fee610fe984610f9b565b610f80565b90508281526020810184848401111561100a57611009610f0a565b5b611015848285610fcc565b509392505050565b600082601f83011261103257611031610f05565b5b8135611042848260208601610fdb565b91505092915050565b6000819050919050565b61105e8161104b565b811461106957600080fd5b50565b60008135905061107b81611055565b92915050565b60008060006060848603121561109a57611099610e9d565b5b60006110a886828701610ef0565b935050602084013567ffffffffffffffff8111156110c9576110c8610ea2565b5b6110d58682870161101d565b92505060406110e68682870161106c565b9150509250925092565b6000819050919050565b611103816110f0565b82525050565b600060208201905061111e60008301846110fa565b92915050565b60006020828403121561113a57611139610e9d565b5b600061114884828501610ef0565b91505092915050565b600081519050919050565b600082825260208201905092915050565b6000819050602082019050919050565b600081519050919050565b600082825260208201905092915050565b60005b838110156111b757808201518184015260208101905061119c565b60008484015250505050565b60006111ce8261117d565b6111d88185611188565b93506111e8818560208601611199565b6111f181610f0f565b840191505092915050565b6112058161104b565b82525050565b6000606083016000830151848203600086015261122882826111c3565b9150506020830151848203602086015261124282826111c3565b915050604083015161125760408601826111fc565b508091505092915050565b600061126e838361120b565b905092915050565b6000602082019050919050565b600061128e82611151565b611298818561115c565b9350836020820285016112aa8561116d565b8060005b858110156112e657848403895281516112c78582611262565b94506112d283611276565b925060208a019950506001810190506112ae565b50829750879550505050505092915050565b600060208201905081810360008301526113128184611283565b905092915050565b600080fd5b600080fd5b60008083601f84011261133a57611339610f05565b5b8235905067ffffffffffffffff8111156113575761135661131a565b5b6020830191508360018202830111156113735761137261131f565b5b9250929050565b600067ffffffffffffffff82111561139557611394610f20565b5b61139e82610f0f565b9050602081019050919050565b60006113be6113b98461137a565b610f80565b9050828152602081018484840111156113da576113d9610f0a565b5b6113e5848285610fcc565b509392505050565b600082601f83011261140257611401610f05565b5b81356114128482602086016113ab565b91505092915050565b60008060008060008060a0878903121561143857611437610e9d565b5b600061144689828a01610ef0565b965050602061145789828a01610ef0565b955050604087013567ffffffffffffffff81111561147857611477610ea2565b5b61148489828a01611324565b9450945050606061149789828a0161106c565b925050608087013567ffffffffffffffff8111156114b8576114b7610ea2565b5b6114c489828a016113ed565b9150509295509295509295565b60008115159050919050565b6114e6816114d1565b82525050565b600060208201905061150160008301846114dd565b92915050565b60006020828403121561151d5761151c610e9d565b5b600061152b8482850161106c565b91505092915050565b600081519050919050565b600082825260208201905092915050565b600061155b82611534565b611565818561153f565b9350611575818560208601611199565b61157e81610f0f565b840191505092915050565b600060208201905081810360008301526115a38184611550565b905092915050565b60008083601f8401126115c1576115c0610f05565b5b8235905067ffffffffffffffff8111156115de576115dd61131a565b5b6020830191508360018202830111156115fa576115f961131f565b5b9250929050565b60008060008060008060008060a0898b03121561162157611620610e9d565b5b600061162f8b828c01610ef0565b985050602089013567ffffffffffffffff8111156116505761164f610ea2565b5b61165c8b828c01611324565b9750975050604061166f8b828c0161106c565b955050606089013567ffffffffffffffff8111156116905761168f610ea2565b5b61169c8b828c01611324565b9450945050608089013567ffffffffffffffff8111156116bf576116be610ea2565b5b6116cb8b828c016115ab565b92509250509295985092959890939650565b6116e6816110f0565b81146116f157600080fd5b50565b600081359050611703816116dd565b92915050565b600080604083850312156117205761171f610e9d565b5b600061172e858286016116f4565b925050602083013567ffffffffffffffff81111561174f5761174e610ea2565b5b61175b858286016113ed565b9150509250929050565b61176e81610ec7565b82525050565b60006020820190506117896000830184611765565b92915050565b6000602082840312156117a5576117a4610e9d565b5b600082013567ffffffffffffffff8111156117c3576117c2610ea2565b5b6117cf848285016113ed565b91505092915050565b600060ff82169050919050565b6117ee816117d8565b82525050565b600060608201905061180960008301866110fa565b61181660208301856110fa565b61182360408301846117e5565b949350505050565b60006020828403121561184157611840610e9d565b5b600061184f848285016116f4565b91505092915050565b7f4e487b7100000000000000000000000000000000000000000000000000000000600052602260045260246000fd5b6000600282049050600182168061189f57607f821691505b6020821081036118b2576118b1611858565b5b50919050565b600082825260208201905092915050565b7f4f776e61626c653a2063616c6c6572206973206e6f7420746865206f776e6572600082015250565b60006118ff6020836118b8565b915061190a826118c9565b602082019050919050565b6000602082019050818103600083015261192e816118f2565b9050919050565b60008160601b9050919050565b600061194d82611935565b9050919050565b600061195f82611942565b9050919050565b61197761197282610ec7565b611954565b82525050565b600081905092915050565b60006119938261117d565b61199d818561197d565b93506119ad818560208601611199565b80840191505092915050565b6000819050919050565b6119d46119cf8261104b565b6119b9565b82525050565b60006119e68286611966565b6014820191506119f68285611988565b9150611a0282846119c3565b602082019150819050949350505050565b6000611a1f838561197d565b9350611a2c838584610fcc565b82840190509392505050565b6000611a45828486611a13565b91508190509392505050565b7f494420616c726561647920616666696c6961746564207769746820616e6f746860008201527f6572206164647265737300000000000000000000000000000000000000000000602082015250565b6000611aad602a836118b8565b9150611ab882611a51565b604082019050919050565b60006020820190508181036000830152611adc81611aa0565b9050919050565b7f416464726573732063616e6e6f74206265203078300000000000000000000000600082015250565b6000611b196015836118b8565b9150611b2482611ae3565b602082019050919050565b60006020820190508181036000830152611b4881611b0c565b9050919050565b7f4e487b7100000000000000000000000000000000000000000000000000000000600052601160045260246000fd5b6000611b898261104b565b9150611b948361104b565b9250828201905080821115611bac57611bab611b4f565b5b92915050565b7f50726f6f6620657870697265642c2074727920766572696679696e672061676160008201527f696e000000000000000000000000000000000000000000000000000000000000602082015250565b6000611c0e6022836118b8565b9150611c1982611bb2565b604082019050919050565b60006020820190508181036000830152611c3d81611c01565b9050919050565b7f50726f6f66206973206e6f742076616c69640000000000000000000000000000600082015250565b6000611c7a6012836118b8565b9150611c8582611c44565b602082019050919050565b60006020820190508181036000830152611ca981611c6d565b9050919050565b7f4e487b7100000000000000000000000000000000000000000000000000000000600052603260045260246000fd5b60008190508160005260206000209050919050565b60008154611d0181611887565b611d0b818661197d565b94506001821660008114611d265760018114611d3b57611d6e565b60ff1983168652811515820286019350611d6e565b611d4485611cdf565b60005b83811015611d6657815481890152600182019150602081019050611d47565b838801955050505b50505092915050565b6000611d838284611cf4565b915081905092915050565b6000611d998261104b565b91507fffffffffffffffffffffffffffffffffffffffffffffffffffffffffffffffff8203611dcb57611dca611b4f565b5b600182019050919050565b60006020601f8301049050919050565b600082821b905092915050565b600060088302611e237fffffffffffffffffffffffffffffffffffffffffffffffffffffffffffffffff82611de6565b611e2d8683611de6565b95508019841693508086168417925050509392505050565b6000819050919050565b6000611e6a611e65611e608461104b565b611e45565b61104b565b9050919050565b6000819050919050565b611e8483611e4f565b611e98611e9082611e71565b848454611df3565b825550505050565b600090565b611ead611ea0565b611eb8818484611e7b565b505050565b5b81811015611edc57611ed1600082611ea5565b600181019050611ebe565b5050565b601f821115611f2157611ef281611cdf565b611efb84611dd6565b81016020851015611f0a578190505b611f1e611f1685611dd6565b830182611ebd565b50505b505050565b600082821c905092915050565b6000611f4460001984600802611f26565b1980831691505092915050565b6000611f5d8383611f33565b9150826002028217905092915050565b611f768261117d565b67ffffffffffffffff811115611f8f57611f8e610f20565b5b611f998254611887565b611fa4828285611ee0565b600060209050601f831160018114611fd75760008415611fc5578287015190505b611fcf8582611f51565b865550612037565b601f198416611fe586611cdf565b60005b8281101561200d57848901518255600182019150602085019450602081019050611fe8565b8683101561202a5784890151612026601f891682611f33565b8355505b6001600288020188555050505b505050505050565b600061204a8261104b565b91506120558361104b565b925082820390508181111561206d5761206c611b4f565b5b92915050565b7f4e487b7100000000000000000000000000000000000000000000000000000000600052601260045260246000fd5b60006120ad8261104b565b91506120b88361104b565b9250826120c8576120c7612073565b5b828204905092915050565b60006120de8261104b565b91506120e98361104b565b92508282026120f78161104b565b9150828204841483151761210e5761210d611b4f565b5b5092915050565b7f4164647265737320616c72656164792076657269666965643b2063616e6e6f7460008201527f2072652d766572696679207965742c2077616974206174206c6561737420686160208201527f6c6620746865207665726966794461795468726573686f6c6400000000000000604082015250565b60006121976059836118b8565b91506121a282612115565b606082019050919050565b600060208201905081810360008301526121c68161218a565b9050919050565b60006080820190506121e260008301876110fa565b6121ef60208301866117e5565b6121fc60408301856110fa565b61220960608301846110fa565b95945050505050565b7f696e76616c6964207369676e6174757265206c656e6774680000000000000000600082015250565b60006122486018836118b8565b915061225382612212565b602082019050919050565b600060208201905081810360008301526122778161223b565b9050919050565b7f19457468657265756d205369676e6564204d6573736167653a0a333200000000600082015250565b60006122b4601c8361197d565b91506122bf8261227e565b601c82019050919050565b6000819050919050565b6122e56122e0826110f0565b6122ca565b82525050565b60006122f6826122a7565b915061230282846122d4565b60208201915081905092915050565b600061231d8284611988565b91508190509291505056fea26469706673582212206be16312d4dc36d23c1305a0c906af3002a2573175558799d4b1a9c16184f4cb64736f6c63430008120033",
  "immutableReferences": {
    "23": [
      {
        "length": 32,
        "start": 1208
      },
      {
        "length": 32,
        "start": 1893
      }
    ]
  },
  "source": "// SPDX-License-Identifier: MIT\npragma solidity ^0.8.0;\n\nimport \"./SignatureHelper.sol\";\n\nerror Unauthorized(address sender, address toVerify);\n\n/// @title A contract to verify addresses\n/// @author JSC LEE\n/// @notice You can use this contract to verify addresses\ncontract GithubVerification is SignatureHelper {\n    mapping(address => Stamp[]) internal stamps;\n    mapping(string => address) internal stampHashMap;\n\n    address private immutable _owner;\n\n    uint verifyDayThreshold = 60;\n\n    struct Stamp {\n        string id;\n        string _hash;\n        uint verifiedAt;\n    }\n\n    /// @notice This constructor sets the owner of the contract\n    constructor() {\n        _owner = msg.sender;\n    }\n\n    /// @notice This function can only be called by the owner, and it verifies an address. It's not possible to re-verofuy an address before half the verifyDayThreshold has passed.\n    /// @dev Verifies an address\n    /// @param _toVerify The address to verify\n    /// @param _timestamp in seconds\n    function verifyAddress(\n        address _toVerify,\n        string calldata _userHash,\n        uint _timestamp,\n        string calldata _providerId,\n        bytes calldata _proofSignature\n    ) external {\n        require(\n            stampHashMap[_userHash] == address(0) ||\n                stampHashMap[_userHash] == _toVerify,\n            \"ID already affiliated with another address\"\n        );\n\n        require(_toVerify != address(0), \"Address cannot be 0x0\");\n        require(\n            block.timestamp < _timestamp + 1 hours,\n            \"Proof expired, try verifying again\"\n        );\n\n        require(\n            verify(_owner, _toVerify, _userHash, _timestamp, _proofSignature),\n            \"Proof is not valid\"\n        );\n\n        // Check if there is existing stamp with providerId\n        bool found = false;\n        uint foundIndex = 0;\n\n        for (uint i = 0; i < stamps[_toVerify].length; i++) {\n            if (\n                keccak256(abi.encodePacked(stamps[_toVerify][i].id)) ==\n                keccak256(abi.encodePacked(_providerId))\n            ) {\n                found = true;\n                foundIndex = i;\n                break;\n            }\n        }\n\n        if (!found) {\n            stamps[_toVerify].push(createStamp(_providerId, _userHash, _timestamp));\n        } else {\n            // Check how long it has been since the last verification\n            uint timeSinceLastVerification = block.timestamp -\n                stamps[_toVerify][foundIndex].verifiedAt;\n\n            // If it has been more than (verifyDayThreshold / 2) days, update the stamp\n            if (timeSinceLastVerification > (verifyDayThreshold / 2) * 1 days) {\n                stamps[_toVerify][foundIndex] = createStamp(\n                    _providerId,\n                    _userHash,\n                    _timestamp\n                );\n            } else {\n                revert(\n                    \"Address already verified; cannot re-verify yet, wait at least half the verifyDayThreshold\"\n                );\n            }\n        }\n\n        stampHashMap[_userHash] = _toVerify;\n    }\n\n    function createStamp(\n        string memory _id,\n        string memory _userHash,\n        uint _timestamp\n    ) internal returns (Stamp memory) {\n        Stamp memory stamp = Stamp(_id, _userHash, _timestamp);\n        stampHashMap[_userHash] = msg.sender;\n        return stamp;\n    }\n\n    /// @notice This function checks if an address is verified and if the address has been verified recently (within the set verifyDayThreshold)\n    /// @param _toCheck The address to check\n    /// @return A boolean indicating if the address is verified\n    // function addressIsVerified(address _toCheck) external view returns (bool) {\n    //     if (\n    //         verifiedTimeMap[_toCheck] + (verifyDayThreshold * 1 days) <\n    //         block.timestamp\n    //     ) return false;\n\n    //     return verifiedTimeMap[_toCheck] > 0;\n    // }\n\n    /// @notice This function returns the stamps of an address\n    /// @param _toCheck The address to check\n    /// @return An array of stamps\n    function getStamps(\n        address _toCheck\n    ) external view returns (Stamp[] memory) {\n        return stamps[_toCheck];\n    }\n\n    /// @notice This function can only be called by the owner, and it sets the verifyDayThreshold\n    /// @dev Sets the verifyDayThreshold\n    /// @param _days The number of days to set the verifyDayThreshold to\n    function setVerifyDayThreshold(uint _days) external onlyOwner {\n        verifyDayThreshold = _days;\n    }\n\n    modifier onlyOwner() {\n        require(msg.sender == _owner, \"Ownable: caller is not the owner\");\n        _;\n    }\n}\n",
  "sourcePath": "/Users/mik-0/Documents/GitHub/SecureSECOVerification/block/contracts/GithubVerification.sol",
  "compiler": {
    "name": "solc",
    "version": "0.8.18+commit.87f61d96.Emscripten.clang"
  },
  "schemaVersion": "3.4.12",
  "updatedAt": "2023-03-21T13:37:32.372Z",
  "networkType": "ethereum",
  "devdoc": {
    "author": "JSC LEE",
    "kind": "dev",
    "methods": {
      "getStamps(address)": {
        "params": {
          "_toCheck": "The address to check"
        },
        "returns": {
          "_0": "An array of stamps"
        }
      },
      "setVerifyDayThreshold(uint256)": {
        "details": "Sets the verifyDayThreshold",
        "params": {
          "_days": "The number of days to set the verifyDayThreshold to"
        }
      },
      "verifyAddress(address,string,uint256,string,bytes)": {
        "details": "Verifies an address",
        "params": {
          "_timestamp": "in seconds",
          "_toVerify": "The address to verify"
        }
      }
    },
    "title": "A contract to verify addresses",
    "version": 1
  },
  "userdoc": {
    "kind": "user",
    "methods": {
      "constructor": {
        "notice": "This constructor sets the owner of the contract"
      },
      "getStamps(address)": {
        "notice": "This function returns the stamps of an address"
      },
      "setVerifyDayThreshold(uint256)": {
        "notice": "This function can only be called by the owner, and it sets the verifyDayThreshold"
      },
      "verifyAddress(address,string,uint256,string,bytes)": {
        "notice": "This function can only be called by the owner, and it verifies an address. It's not possible to re-verofuy an address before half the verifyDayThreshold has passed."
      }
    },
    "notice": "You can use this contract to verify addresses",
    "version": 1
  }
}