{
  "contractName": "GithubVerification",
  "abi": [
    {
      "inputs": [
        {
          "internalType": "uint64",
          "name": "_threshold",
          "type": "uint64"
        }
      ],
      "stateMutability": "nonpayable",
      "type": "constructor"
    },
    {
      "inputs": [
        {
          "internalType": "bytes32",
          "name": "_messageHash",
          "type": "bytes32"
        }
      ],
      "name": "getEthSignedMessageHash",
      "outputs": [
        {
          "internalType": "bytes32",
          "name": "",
          "type": "bytes32"
        }
      ],
      "stateMutability": "pure",
      "type": "function"
    },
    {
      "inputs": [
        {
          "internalType": "address",
          "name": "_toVerify",
          "type": "address"
        },
        {
          "internalType": "string",
          "name": "_userHash",
          "type": "string"
        },
        {
          "internalType": "uint256",
          "name": "_timestamp",
          "type": "uint256"
        }
      ],
      "name": "getMessageHash",
      "outputs": [
        {
          "internalType": "bytes32",
          "name": "",
          "type": "bytes32"
        }
      ],
      "stateMutability": "pure",
      "type": "function"
    },
    {
      "inputs": [
        {
          "internalType": "address",
          "name": "_toVerify",
          "type": "address"
        },
        {
          "internalType": "string",
          "name": "_userHash",
          "type": "string"
        },
        {
          "internalType": "uint256",
          "name": "_timestamp",
          "type": "uint256"
        }
      ],
      "name": "getPackedMessage",
      "outputs": [
        {
          "internalType": "bytes",
          "name": "",
          "type": "bytes"
        }
      ],
      "stateMutability": "pure",
      "type": "function"
    },
    {
      "inputs": [
        {
          "internalType": "bytes32",
          "name": "_ethSignedMessageHash",
          "type": "bytes32"
        },
        {
          "internalType": "bytes",
          "name": "_signature",
          "type": "bytes"
        }
      ],
      "name": "recoverSigner",
      "outputs": [
        {
          "internalType": "address",
          "name": "",
          "type": "address"
        }
      ],
      "stateMutability": "pure",
      "type": "function"
    },
    {
      "inputs": [
        {
          "internalType": "bytes",
          "name": "sig",
          "type": "bytes"
        }
      ],
      "name": "splitSignature",
      "outputs": [
        {
          "internalType": "bytes32",
          "name": "r",
          "type": "bytes32"
        },
        {
          "internalType": "bytes32",
          "name": "s",
          "type": "bytes32"
        },
        {
          "internalType": "uint8",
          "name": "v",
          "type": "uint8"
        }
      ],
      "stateMutability": "pure",
      "type": "function"
    },
    {
      "inputs": [
        {
          "internalType": "address",
          "name": "_signer",
          "type": "address"
        },
        {
          "internalType": "address",
          "name": "_toVerify",
          "type": "address"
        },
        {
          "internalType": "string",
          "name": "_userHash",
          "type": "string"
        },
        {
          "internalType": "uint256",
          "name": "_timestamp",
          "type": "uint256"
        },
        {
          "internalType": "bytes",
          "name": "signature",
          "type": "bytes"
        }
      ],
      "name": "verify",
      "outputs": [
        {
          "internalType": "bool",
          "name": "",
          "type": "bool"
        }
      ],
      "stateMutability": "pure",
      "type": "function"
    },
    {
      "inputs": [
        {
          "internalType": "address",
          "name": "_toVerify",
          "type": "address"
        },
        {
          "internalType": "string",
          "name": "_userHash",
          "type": "string"
        },
        {
          "internalType": "uint64",
          "name": "_timestamp",
          "type": "uint64"
        },
        {
          "internalType": "string",
          "name": "_providerId",
          "type": "string"
        },
        {
          "internalType": "bytes",
          "name": "_proofSignature",
          "type": "bytes"
        }
      ],
      "name": "verifyAddress",
      "outputs": [],
      "stateMutability": "nonpayable",
      "type": "function"
    },
    {
      "inputs": [
        {
          "internalType": "address",
          "name": "_toCheck",
          "type": "address"
        }
      ],
      "name": "getStamps",
      "outputs": [
        {
          "components": [
            {
              "internalType": "string",
              "name": "id",
              "type": "string"
            },
            {
              "internalType": "string",
              "name": "_hash",
              "type": "string"
            },
            {
              "internalType": "uint64[]",
              "name": "verifiedAt",
              "type": "uint64[]"
            }
          ],
          "internalType": "struct GithubVerification.Stamp[]",
          "name": "",
          "type": "tuple[]"
        }
      ],
      "stateMutability": "view",
      "type": "function"
    },
    {
      "inputs": [
        {
          "internalType": "address",
          "name": "_toCheck",
          "type": "address"
        },
        {
          "internalType": "uint256",
          "name": "_timestamp",
          "type": "uint256"
        }
      ],
      "name": "getStampsAt",
      "outputs": [
        {
          "components": [
            {
              "internalType": "string",
              "name": "id",
              "type": "string"
            },
            {
              "internalType": "string",
              "name": "_hash",
              "type": "string"
            },
            {
              "internalType": "uint64[]",
              "name": "verifiedAt",
              "type": "uint64[]"
            }
          ],
          "internalType": "struct GithubVerification.Stamp[]",
          "name": "",
          "type": "tuple[]"
        }
      ],
      "stateMutability": "view",
      "type": "function"
    },
    {
      "inputs": [
        {
          "internalType": "uint64",
          "name": "_days",
          "type": "uint64"
        }
      ],
      "name": "setVerifyDayThreshold",
      "outputs": [],
      "stateMutability": "nonpayable",
      "type": "function"
    }
  ],
  "bytecode": "0x60a06040523480156200001157600080fd5b50604051620031f0380380620031f083398181016040528101906200003791906200016c565b600260405180604001604052804267ffffffffffffffff1681526020018367ffffffffffffffff168152509080600181540180825580915050600190039060005260206000200160009091909190915060008201518160000160006101000a81548167ffffffffffffffff021916908367ffffffffffffffff16021790555060208201518160000160086101000a81548167ffffffffffffffff021916908367ffffffffffffffff16021790555050503373ffffffffffffffffffffffffffffffffffffffff1660808173ffffffffffffffffffffffffffffffffffffffff1681525050506200019e565b600080fd5b600067ffffffffffffffff82169050919050565b620001468162000127565b81146200015257600080fd5b50565b60008151905062000166816200013b565b92915050565b60006020828403121562000185576200018462000122565b5b6000620001958482850162000155565b91505092915050565b60805161302f620001c160003960008181610e4901526114b9015261302f6000f3fe608060405234801561001057600080fd5b506004361061009e5760003560e01c80637781752911610066578063778175291461017f57806397aba7f9146101af578063a7bb5803146101df578063ccd431e714610211578063fa5408011461022d5761009e565b8063082d8f29146100a35780631a371932146100d35780631e31549e1461010357806350c31502146101335780637688aa9d14610163575b600080fd5b6100bd60048036038101906100b89190611b22565b61025d565b6040516100ca9190611baa565b60405180910390f35b6100ed60048036038101906100e89190611bc5565b61027f565b6040516100fa9190611e63565b60405180910390f35b61011d60048036038101906101189190611f86565b6104cc565b60405161012a9190612057565b60405180910390f35b61014d60048036038101906101489190612072565b610573565b60405161015a9190611e63565b60405180910390f35b61017d60048036038101906101789190612134565b610c57565b005b61019960048036038101906101949190611b22565b6113b1565b6040516101a69190612265565b60405180910390f35b6101c960048036038101906101c491906122b3565b6113e0565b6040516101d6919061231e565b60405180910390f35b6101f960048036038101906101f49190612339565b61144f565b6040516102089392919061239e565b60405180910390f35b61022b600480360381019061022691906123d5565b6114b7565b005b61024760048036038101906102429190612402565b6116f5565b6040516102549190611baa565b60405180910390f35b60008061026b8585856113b1565b905080805190602001209150509392505050565b60606000808373ffffffffffffffffffffffffffffffffffffffff1673ffffffffffffffffffffffffffffffffffffffff168152602001908152602001600020805480602002602001604051908101604052809291908181526020016000905b828210156104c157838290600052602060002090600302016040518060600160405290816000820180546103129061245e565b80601f016020809104026020016040519081016040528092919081815260200182805461033e9061245e565b801561038b5780601f106103605761010080835404028352916020019161038b565b820191906000526020600020905b81548152906001019060200180831161036e57829003601f168201915b505050505081526020016001820180546103a49061245e565b80601f01602080910402602001604051908101604052809291908181526020018280546103d09061245e565b801561041d5780601f106103f25761010080835404028352916020019161041d565b820191906000526020600020905b81548152906001019060200180831161040057829003601f168201915b50505050508152602001600282018054806020026020016040519081016040528092919081815260200182805480156104a957602002820191906000526020600020906000905b82829054906101000a900467ffffffffffffffff1667ffffffffffffffff16815260200190600801906020826007010492830192600103820291508084116104645790505b505050505081525050815260200190600101906102df565b505050509050919050565b60008061051e8787878080601f016020809104026020016040519081016040528093929190818152602001838380828437600081840152601f19601f820116905080830192505050505050508661025d565b9050600061052b826116f5565b90508873ffffffffffffffffffffffffffffffffffffffff1661054e82866113e0565b73ffffffffffffffffffffffffffffffffffffffff1614925050509695505050505050565b606060008060008573ffffffffffffffffffffffffffffffffffffffff1673ffffffffffffffffffffffffffffffffffffffff1681526020019081526020016000208054905067ffffffffffffffff8111156105d2576105d16119c1565b5b60405190808252806020026020018201604052801561060b57816020015b6105f861183a565b8152602001906001900390816105f05790505b5090506000805b6000808773ffffffffffffffffffffffffffffffffffffffff1673ffffffffffffffffffffffffffffffffffffffff16815260200190815260200160002080549050811015610b9a5760008060008873ffffffffffffffffffffffffffffffffffffffff1673ffffffffffffffffffffffffffffffffffffffff16815260200190815260200160002082815481106106ad576106ac61248f565b5b90600052602060002090600302016002019050600060016002805490506106d491906124ed565b90506000828054905090505b6000811115610b84575b60008211801561078a5750600282815481106107095761070861248f565b5b9060005260206000200160000160089054906101000a900467ffffffffffffffff1667ffffffffffffffff168360018361074391906124ed565b815481106107545761075361248f565b5b90600052602060002090600491828204019190066008029054906101000a900467ffffffffffffffff1667ffffffffffffffff16105b156107a257818061079a90612521565b9250506106ea565b6000600283815481106107b8576107b761248f565b5b9060005260206000200160000160089054906101000a900467ffffffffffffffff1690508862015180826107ec919061254a565b856001856107fa91906124ed565b8154811061080b5761080a61248f565b5b90600052602060002090600491828204019190066008029054906101000a900467ffffffffffffffff1661083f9190612587565b67ffffffffffffffff161180156108a75750888460018461086091906124ed565b815481106108715761087061248f565b5b90600052602060002090600491828204019190066008029054906101000a900467ffffffffffffffff1667ffffffffffffffff16105b15610af7576000808b73ffffffffffffffffffffffffffffffffffffffff1673ffffffffffffffffffffffffffffffffffffffff16815260200190815260200160002085815481106108fc576108fb61248f565b5b90600052602060002090600302016040518060600160405290816000820180546109259061245e565b80601f01602080910402602001604051908101604052809291908181526020018280546109519061245e565b801561099e5780601f106109735761010080835404028352916020019161099e565b820191906000526020600020905b81548152906001019060200180831161098157829003601f168201915b505050505081526020016001820180546109b79061245e565b80601f01602080910402602001604051908101604052809291908181526020018280546109e39061245e565b8015610a305780601f10610a0557610100808354040283529160200191610a30565b820191906000526020600020905b815481529060010190602001808311610a1357829003601f168201915b5050505050815260200160028201805480602002602001604051908101604052809291908181526020018280548015610abc57602002820191906000526020600020906000905b82829054906101000a900467ffffffffffffffff1667ffffffffffffffff1681526020019060080190602082600701049283019260010382029150808411610a775790505b505050505081525050878781518110610ad857610ad761248f565b5b60200260200101819052508580610aee906125c3565b96505050610b84565b886201518082610b07919061254a565b85600185610b1591906124ed565b81548110610b2657610b2561248f565b5b90600052602060002090600491828204019190066008029054906101000a900467ffffffffffffffff16610b5a9190612587565b67ffffffffffffffff161015610b705750610b84565b508080610b7c90612521565b9150506106e0565b5050508080610b92906125c3565b915050610612565b5060008167ffffffffffffffff811115610bb757610bb66119c1565b5b604051908082528060200260200182016040528015610bf057816020015b610bdd61183a565b815260200190600190039081610bd55790505b50905060005b82811015610c4a57838181518110610c1157610c1061248f565b5b6020026020010151828281518110610c2c57610c2b61248f565b5b60200260200101819052508080610c42906125c3565b915050610bf6565b5080935050505092915050565b600073ffffffffffffffffffffffffffffffffffffffff1660018888604051610c8192919061263b565b908152602001604051809103902060009054906101000a900473ffffffffffffffffffffffffffffffffffffffff1673ffffffffffffffffffffffffffffffffffffffff161480610d3d57508773ffffffffffffffffffffffffffffffffffffffff1660018888604051610cf692919061263b565b908152602001604051809103902060009054906101000a900473ffffffffffffffffffffffffffffffffffffffff1673ffffffffffffffffffffffffffffffffffffffff16145b610d7c576040517f08c379a0000000000000000000000000000000000000000000000000000000008152600401610d73906126d7565b60405180910390fd5b600073ffffffffffffffffffffffffffffffffffffffff168873ffffffffffffffffffffffffffffffffffffffff1603610deb576040517f08c379a0000000000000000000000000000000000000000000000000000000008152600401610de290612743565b60405180910390fd5b610e1085610df99190612587565b67ffffffffffffffff164210610e44576040517f08c379a0000000000000000000000000000000000000000000000000000000008152600401610e3b906127d5565b60405180910390fd5b610ec07f00000000000000000000000000000000000000000000000000000000000000008989898967ffffffffffffffff1687878080601f016020809104026020016040519081016040528093929190818152602001838380828437600081840152601f19601f820116905080830192505050505050506104cc565b610eff576040517f08c379a0000000000000000000000000000000000000000000000000000000008152600401610ef690612841565b60405180910390fd5b60008060005b6000808c73ffffffffffffffffffffffffffffffffffffffff1673ffffffffffffffffffffffffffffffffffffffff16815260200190815260200160002080549050811015611022578686604051602001610f6192919061263b565b604051602081830303815290604052805190602001206000808d73ffffffffffffffffffffffffffffffffffffffff1673ffffffffffffffffffffffffffffffffffffffff1681526020019081526020016000208281548110610fc757610fc661248f565b5b9060005260206000209060030201600001604051602001610fe891906128f9565b604051602081830303815290604052805190602001200361100f5760019250809150611022565b808061101a906125c3565b915050610f05565b5081611172576000808b73ffffffffffffffffffffffffffffffffffffffff1673ffffffffffffffffffffffffffffffffffffffff1681526020019081526020016000206110f987878080601f016020809104026020016040519081016040528093929190818152602001838380828437600081840152601f19601f820116905080830192505050505050508b8b8080601f016020809104026020016040519081016040528093929190818152602001838380828437600081840152601f19601f820116905080830192505050505050508a611725565b908060018154018082558091505060019003906000526020600020906003020160009091909190915060008201518160000190816111379190612aa7565b50602082015181600101908161114d9190612aa7565b50604082015181600201908051906020019061116a92919061185b565b505050611346565b60008060008c73ffffffffffffffffffffffffffffffffffffffff1673ffffffffffffffffffffffffffffffffffffffff16815260200190815260200160002082815481106111c4576111c361248f565b5b90600052602060002090600302016002019050600081600183805490506111eb91906124ed565b815481106111fc576111fb61248f565b5b90600052602060002090600491828204019190066008029054906101000a900467ffffffffffffffff16426112319190612b79565b905062015180600280600160028054905061124c91906124ed565b8154811061125d5761125c61248f565b5b9060005260206000200160000160089054906101000a900467ffffffffffffffff166112899190612be4565b611293919061254a565b67ffffffffffffffff168167ffffffffffffffff16111561130857818990806001815401808255809150506001900390600052602060002090600491828204019190066008029091909190916101000a81548167ffffffffffffffff021916908367ffffffffffffffff160217905550611343565b6040517f08c379a000000000000000000000000000000000000000000000000000000000815260040161133a90612cad565b60405180910390fd5b50505b8960018a8a60405161135992919061263b565b908152602001604051809103902060006101000a81548173ffffffffffffffffffffffffffffffffffffffff021916908373ffffffffffffffffffffffffffffffffffffffff16021790555050505050505050505050565b60608383836040516020016113c893929190612d67565b60405160208183030381529060405290509392505050565b6000806000806113ef8561144f565b925092509250600186828585604051600081526020016040526040516114189493929190612da0565b6020604051602081039080840390855afa15801561143a573d6000803e3d6000fd5b50505060206040510351935050505092915050565b60008060006041845114611498576040517f08c379a000000000000000000000000000000000000000000000000000000000815260040161148f90612e31565b60405180910390fd5b6020840151925060408401519150606084015160001a90509193909250565b7f000000000000000000000000000000000000000000000000000000000000000073ffffffffffffffffffffffffffffffffffffffff163373ffffffffffffffffffffffffffffffffffffffff1614611545576040517f08c379a000000000000000000000000000000000000000000000000000000000815260040161153c90612e9d565b60405180910390fd5b60006002600160028054905061155b91906124ed565b8154811061156c5761156b61248f565b5b906000526020600020016040518060400160405290816000820160009054906101000a900467ffffffffffffffff1667ffffffffffffffff1667ffffffffffffffff1681526020016000820160089054906101000a900467ffffffffffffffff1667ffffffffffffffff1667ffffffffffffffff168152505090508167ffffffffffffffff16816020015167ffffffffffffffff1603611641576040517f08c379a000000000000000000000000000000000000000000000000000000000815260040161163890612f2f565b60405180910390fd5b600260405180604001604052804267ffffffffffffffff1681526020018467ffffffffffffffff168152509080600181540180825580915050600190039060005260206000200160009091909190915060008201518160000160006101000a81548167ffffffffffffffff021916908367ffffffffffffffff16021790555060208201518160000160086101000a81548167ffffffffffffffff021916908367ffffffffffffffff16021790555050505050565b6000816040516020016117089190612fbc565b604051602081830303815290604052805190602001209050919050565b61172d61183a565b6000600167ffffffffffffffff81111561174a576117496119c1565b5b6040519080825280602002602001820160405280156117785781602001602082028036833780820191505090505b50905082816000815181106117905761178f61248f565b5b602002602001019067ffffffffffffffff16908167ffffffffffffffff168152505060006040518060600160405280878152602001868152602001838152509050336001866040516117e29190612fe2565b908152602001604051809103902060006101000a81548173ffffffffffffffffffffffffffffffffffffffff021916908373ffffffffffffffffffffffffffffffffffffffff16021790555080925050509392505050565b60405180606001604052806060815260200160608152602001606081525090565b828054828255906000526020600020906003016004900481019282156119065791602002820160005b838211156118d057835183826101000a81548167ffffffffffffffff021916908367ffffffffffffffff1602179055509260200192600801602081600701049283019260010302611884565b80156119045782816101000a81549067ffffffffffffffff02191690556008016020816007010492830192600103026118d0565b505b5090506119139190611917565b5090565b5b80821115611930576000816000905550600101611918565b5090565b6000604051905090565b600080fd5b600080fd5b600073ffffffffffffffffffffffffffffffffffffffff82169050919050565b600061197382611948565b9050919050565b61198381611968565b811461198e57600080fd5b50565b6000813590506119a08161197a565b92915050565b600080fd5b600080fd5b6000601f19601f8301169050919050565b7f4e487b7100000000000000000000000000000000000000000000000000000000600052604160045260246000fd5b6119f9826119b0565b810181811067ffffffffffffffff82111715611a1857611a176119c1565b5b80604052505050565b6000611a2b611934565b9050611a3782826119f0565b919050565b600067ffffffffffffffff821115611a5757611a566119c1565b5b611a60826119b0565b9050602081019050919050565b82818337600083830152505050565b6000611a8f611a8a84611a3c565b611a21565b905082815260208101848484011115611aab57611aaa6119ab565b5b611ab6848285611a6d565b509392505050565b600082601f830112611ad357611ad26119a6565b5b8135611ae3848260208601611a7c565b91505092915050565b6000819050919050565b611aff81611aec565b8114611b0a57600080fd5b50565b600081359050611b1c81611af6565b92915050565b600080600060608486031215611b3b57611b3a61193e565b5b6000611b4986828701611991565b935050602084013567ffffffffffffffff811115611b6a57611b69611943565b5b611b7686828701611abe565b9250506040611b8786828701611b0d565b9150509250925092565b6000819050919050565b611ba481611b91565b82525050565b6000602082019050611bbf6000830184611b9b565b92915050565b600060208284031215611bdb57611bda61193e565b5b6000611be984828501611991565b91505092915050565b600081519050919050565b600082825260208201905092915050565b6000819050602082019050919050565b600081519050919050565b600082825260208201905092915050565b60005b83811015611c58578082015181840152602081019050611c3d565b60008484015250505050565b6000611c6f82611c1e565b611c798185611c29565b9350611c89818560208601611c3a565b611c92816119b0565b840191505092915050565b600081519050919050565b600082825260208201905092915050565b6000819050602082019050919050565b600067ffffffffffffffff82169050919050565b611ce681611cc9565b82525050565b6000611cf88383611cdd565b60208301905092915050565b6000602082019050919050565b6000611d1c82611c9d565b611d268185611ca8565b9350611d3183611cb9565b8060005b83811015611d62578151611d498882611cec565b9750611d5483611d04565b925050600181019050611d35565b5085935050505092915050565b60006060830160008301518482036000860152611d8c8282611c64565b91505060208301518482036020860152611da68282611c64565b91505060408301518482036040860152611dc08282611d11565b9150508091505092915050565b6000611dd98383611d6f565b905092915050565b6000602082019050919050565b6000611df982611bf2565b611e038185611bfd565b935083602082028501611e1585611c0e565b8060005b85811015611e515784840389528151611e328582611dcd565b9450611e3d83611de1565b925060208a01995050600181019050611e19565b50829750879550505050505092915050565b60006020820190508181036000830152611e7d8184611dee565b905092915050565b600080fd5b600080fd5b60008083601f840112611ea557611ea46119a6565b5b8235905067ffffffffffffffff811115611ec257611ec1611e85565b5b602083019150836001820283011115611ede57611edd611e8a565b5b9250929050565b600067ffffffffffffffff821115611f0057611eff6119c1565b5b611f09826119b0565b9050602081019050919050565b6000611f29611f2484611ee5565b611a21565b905082815260208101848484011115611f4557611f446119ab565b5b611f50848285611a6d565b509392505050565b600082601f830112611f6d57611f6c6119a6565b5b8135611f7d848260208601611f16565b91505092915050565b60008060008060008060a08789031215611fa357611fa261193e565b5b6000611fb189828a01611991565b9650506020611fc289828a01611991565b955050604087013567ffffffffffffffff811115611fe357611fe2611943565b5b611fef89828a01611e8f565b9450945050606061200289828a01611b0d565b925050608087013567ffffffffffffffff81111561202357612022611943565b5b61202f89828a01611f58565b9150509295509295509295565b60008115159050919050565b6120518161203c565b82525050565b600060208201905061206c6000830184612048565b92915050565b600080604083850312156120895761208861193e565b5b600061209785828601611991565b92505060206120a885828601611b0d565b9150509250929050565b6120bb81611cc9565b81146120c657600080fd5b50565b6000813590506120d8816120b2565b92915050565b60008083601f8401126120f4576120f36119a6565b5b8235905067ffffffffffffffff81111561211157612110611e85565b5b60208301915083600182028301111561212d5761212c611e8a565b5b9250929050565b60008060008060008060008060a0898b0312156121545761215361193e565b5b60006121628b828c01611991565b985050602089013567ffffffffffffffff81111561218357612182611943565b5b61218f8b828c01611e8f565b975097505060406121a28b828c016120c9565b955050606089013567ffffffffffffffff8111156121c3576121c2611943565b5b6121cf8b828c01611e8f565b9450945050608089013567ffffffffffffffff8111156121f2576121f1611943565b5b6121fe8b828c016120de565b92509250509295985092959890939650565b600081519050919050565b600082825260208201905092915050565b600061223782612210565b612241818561221b565b9350612251818560208601611c3a565b61225a816119b0565b840191505092915050565b6000602082019050818103600083015261227f818461222c565b905092915050565b61229081611b91565b811461229b57600080fd5b50565b6000813590506122ad81612287565b92915050565b600080604083850312156122ca576122c961193e565b5b60006122d88582860161229e565b925050602083013567ffffffffffffffff8111156122f9576122f8611943565b5b61230585828601611f58565b9150509250929050565b61231881611968565b82525050565b6000602082019050612333600083018461230f565b92915050565b60006020828403121561234f5761234e61193e565b5b600082013567ffffffffffffffff81111561236d5761236c611943565b5b61237984828501611f58565b91505092915050565b600060ff82169050919050565b61239881612382565b82525050565b60006060820190506123b36000830186611b9b565b6123c06020830185611b9b565b6123cd604083018461238f565b949350505050565b6000602082840312156123eb576123ea61193e565b5b60006123f9848285016120c9565b91505092915050565b6000602082840312156124185761241761193e565b5b60006124268482850161229e565b91505092915050565b7f4e487b7100000000000000000000000000000000000000000000000000000000600052602260045260246000fd5b6000600282049050600182168061247657607f821691505b6020821081036124895761248861242f565b5b50919050565b7f4e487b7100000000000000000000000000000000000000000000000000000000600052603260045260246000fd5b7f4e487b7100000000000000000000000000000000000000000000000000000000600052601160045260246000fd5b60006124f882611aec565b915061250383611aec565b925082820390508181111561251b5761251a6124be565b5b92915050565b600061252c82611aec565b91506000820361253f5761253e6124be565b5b600182039050919050565b600061255582611cc9565b915061256083611cc9565b925082820261256e81611cc9565b91508082146125805761257f6124be565b5b5092915050565b600061259282611cc9565b915061259d83611cc9565b9250828201905067ffffffffffffffff8111156125bd576125bc6124be565b5b92915050565b60006125ce82611aec565b91507fffffffffffffffffffffffffffffffffffffffffffffffffffffffffffffffff8203612600576125ff6124be565b5b600182019050919050565b600081905092915050565b6000612622838561260b565b935061262f838584611a6d565b82840190509392505050565b6000612648828486612616565b91508190509392505050565b600082825260208201905092915050565b7f494420616c726561647920616666696c6961746564207769746820616e6f746860008201527f6572206164647265737300000000000000000000000000000000000000000000602082015250565b60006126c1602a83612654565b91506126cc82612665565b604082019050919050565b600060208201905081810360008301526126f0816126b4565b9050919050565b7f416464726573732063616e6e6f74206265203078300000000000000000000000600082015250565b600061272d601583612654565b9150612738826126f7565b602082019050919050565b6000602082019050818103600083015261275c81612720565b9050919050565b7f50726f6f6620657870697265642c2074727920766572696679696e672061676160008201527f696e000000000000000000000000000000000000000000000000000000000000602082015250565b60006127bf602283612654565b91506127ca82612763565b604082019050919050565b600060208201905081810360008301526127ee816127b2565b9050919050565b7f50726f6f66206973206e6f742076616c69640000000000000000000000000000600082015250565b600061282b601283612654565b9150612836826127f5565b602082019050919050565b6000602082019050818103600083015261285a8161281e565b9050919050565b60008190508160005260206000209050919050565b600081546128838161245e565b61288d818661260b565b945060018216600081146128a857600181146128bd576128f0565b60ff19831686528115158202860193506128f0565b6128c685612861565b60005b838110156128e8578154818901526001820191506020810190506128c9565b838801955050505b50505092915050565b60006129058284612876565b915081905092915050565b60006020601f8301049050919050565b600082821b905092915050565b60006008830261295d7fffffffffffffffffffffffffffffffffffffffffffffffffffffffffffffffff82612920565b6129678683612920565b95508019841693508086168417925050509392505050565b6000819050919050565b60006129a461299f61299a84611aec565b61297f565b611aec565b9050919050565b6000819050919050565b6129be83612989565b6129d26129ca826129ab565b84845461292d565b825550505050565b600090565b6129e76129da565b6129f28184846129b5565b505050565b5b81811015612a1657612a0b6000826129df565b6001810190506129f8565b5050565b601f821115612a5b57612a2c81612861565b612a3584612910565b81016020851015612a44578190505b612a58612a5085612910565b8301826129f7565b50505b505050565b600082821c905092915050565b6000612a7e60001984600802612a60565b1980831691505092915050565b6000612a978383612a6d565b9150826002028217905092915050565b612ab082611c1e565b67ffffffffffffffff811115612ac957612ac86119c1565b5b612ad3825461245e565b612ade828285612a1a565b600060209050601f831160018114612b115760008415612aff578287015190505b612b098582612a8b565b865550612b71565b601f198416612b1f86612861565b60005b82811015612b4757848901518255600182019150602085019450602081019050612b22565b86831015612b645784890151612b60601f891682612a6d565b8355505b6001600288020188555050505b505050505050565b6000612b8482611cc9565b9150612b8f83611cc9565b9250828203905067ffffffffffffffff811115612baf57612bae6124be565b5b92915050565b7f4e487b7100000000000000000000000000000000000000000000000000000000600052601260045260246000fd5b6000612bef82611cc9565b9150612bfa83611cc9565b925082612c0a57612c09612bb5565b5b828204905092915050565b7f4164647265737320616c72656164792076657269666965643b2063616e6e6f7460008201527f2072652d766572696679207965742c2077616974206174206c6561737420686160208201527f6c6620746865207665726966794461795468726573686f6c6400000000000000604082015250565b6000612c97605983612654565b9150612ca282612c15565b606082019050919050565b60006020820190508181036000830152612cc681612c8a565b9050919050565b60008160601b9050919050565b6000612ce582612ccd565b9050919050565b6000612cf782612cda565b9050919050565b612d0f612d0a82611968565b612cec565b82525050565b6000612d2082611c1e565b612d2a818561260b565b9350612d3a818560208601611c3a565b80840191505092915050565b6000819050919050565b612d61612d5c82611aec565b612d46565b82525050565b6000612d738286612cfe565b601482019150612d838285612d15565b9150612d8f8284612d50565b602082019150819050949350505050565b6000608082019050612db56000830187611b9b565b612dc2602083018661238f565b612dcf6040830185611b9b565b612ddc6060830184611b9b565b95945050505050565b7f696e76616c6964207369676e6174757265206c656e6774680000000000000000600082015250565b6000612e1b601883612654565b9150612e2682612de5565b602082019050919050565b60006020820190508181036000830152612e4a81612e0e565b9050919050565b7f4f776e61626c653a2063616c6c6572206973206e6f7420746865206f776e6572600082015250565b6000612e87602083612654565b9150612e9282612e51565b602082019050919050565b60006020820190508181036000830152612eb681612e7a565b9050919050565b7f5468726573686f6c6420616c72656164792073657420746f207468697320766160008201527f6c75650000000000000000000000000000000000000000000000000000000000602082015250565b6000612f19602383612654565b9150612f2482612ebd565b604082019050919050565b60006020820190508181036000830152612f4881612f0c565b9050919050565b7f19457468657265756d205369676e6564204d6573736167653a0a333200000000600082015250565b6000612f85601c8361260b565b9150612f9082612f4f565b601c82019050919050565b6000819050919050565b612fb6612fb182611b91565b612f9b565b82525050565b6000612fc782612f78565b9150612fd38284612fa5565b60208201915081905092915050565b6000612fee8284612d15565b91508190509291505056fea26469706673582212200c315fde104076b027a311c50f8e02f46ee666cbd57686dd0a0fe44ceef04a5c64736f6c63430008120033",
  "immutableReferences": {
    "27": [
      {
        "length": 32,
        "start": 3657
      },
      {
        "length": 32,
        "start": 5305
      }
    ]
  },
  "source": "// SPDX-License-Identifier: MIT\r\npragma solidity ^0.8.0;\r\n\r\nimport \"./SignatureHelper.sol\";\r\n\r\nerror Unauthorized(address sender, address toVerify);\r\n\r\n/// @title A contract to verify addresses\r\n/// @author JSC LEE\r\n/// @notice You can use this contract to verify addresses\r\ncontract GithubVerification is SignatureHelper {\r\n    mapping(address => Stamp[]) internal stamps;\r\n    mapping(string => address) internal stampHashMap;\r\n    Threshold[] thresholdHistory;\r\n\r\n    address private immutable _owner;\r\n\r\n    struct Stamp {\r\n        string id;\r\n        string _hash;\r\n        uint64[] verifiedAt;\r\n    }\r\n\r\n    struct Threshold {\r\n        uint64 timestamp;\r\n        uint64 threshold;\r\n    }\r\n\r\n    /// @notice This constructor sets the owner of the contract\r\n    constructor (uint64 _threshold) {\r\n        thresholdHistory.push(Threshold(uint64(block.timestamp), _threshold));\r\n        _owner = msg.sender;\r\n    }\r\n\r\n    /// @notice This function can only be called by the owner, and it verifies an address. It's not possible to re-verofuy an address before half the verifyDayThreshold has passed.\r\n    /// @dev Verifies an address\r\n    /// @param _toVerify The address to verify\r\n    /// @param _timestamp in seconds\r\n    function verifyAddress(\r\n        address _toVerify,\r\n        string calldata _userHash,\r\n        uint64 _timestamp,\r\n        string calldata _providerId,\r\n        bytes calldata _proofSignature\r\n    ) external {\r\n        require(\r\n            stampHashMap[_userHash] == address(0) ||\r\n                stampHashMap[_userHash] == _toVerify,\r\n            \"ID already affiliated with another address\"\r\n        );\r\n\r\n        require(_toVerify != address(0), \"Address cannot be 0x0\");\r\n        require(\r\n            block.timestamp < _timestamp + 1 hours,\r\n            \"Proof expired, try verifying again\"\r\n        );\r\n\r\n        require(\r\n            verify(_owner, _toVerify, _userHash, _timestamp, _proofSignature),\r\n            \"Proof is not valid\"\r\n        );\r\n\r\n        // Check if there is existing stamp with providerId\r\n        bool found = false;\r\n        uint foundIndex = 0;\r\n\r\n        for (uint i = 0; i < stamps[_toVerify].length; i++) {\r\n            if (\r\n                keccak256(abi.encodePacked(stamps[_toVerify][i].id)) ==\r\n                keccak256(abi.encodePacked(_providerId))\r\n            ) {\r\n                found = true;\r\n                foundIndex = i;\r\n                break;\r\n            }\r\n        }\r\n\r\n        if (!found) {\r\n            // Create new stamp if user does not already have a stamp for this providerId\r\n            stamps[_toVerify].push(createStamp(_providerId, _userHash, _timestamp));\r\n        } else { // If user already has a stamp for this providerId\r\n            // Check how long it has been since the last verification\r\n            uint64[] storage verifiedAt = stamps[_toVerify][foundIndex].verifiedAt;\r\n            uint64 timeSinceLastVerification = uint64(block.timestamp) -\r\n                verifiedAt[verifiedAt.length - 1];\r\n\r\n            // If it has been more than (verifyDayThreshold / 2) days, update the stamp\r\n            if (timeSinceLastVerification > uint64((thresholdHistory[thresholdHistory.length - 1].threshold / 2) * 1 days)) {\r\n                verifiedAt.push(_timestamp);\r\n            } else {\r\n                revert(\r\n                    \"Address already verified; cannot re-verify yet, wait at least half the verifyDayThreshold\"\r\n                );\r\n            }\r\n        }\r\n\r\n        stampHashMap[_userHash] = _toVerify;\r\n    }\r\n\r\n    function createStamp(\r\n        string memory _id,\r\n        string memory _userHash,\r\n        uint64 _timestamp\r\n    ) internal returns (Stamp memory) {\r\n        uint64[] memory verifiedAt = new uint64[](1);\r\n        verifiedAt[0] = _timestamp;\r\n        Stamp memory stamp = Stamp(_id, _userHash, verifiedAt);\r\n        stampHashMap[_userHash] = msg.sender;\r\n        return stamp;\r\n    }\r\n\r\n    /// @notice This function checks if an address is verified and if the address has been verified recently (within the set verifyDayThreshold)\r\n    /// @param _toCheck The address to check\r\n    /// @return A boolean indicating if the address is verified\r\n    // function addressIsVerified(address _toCheck) external view returns (bool) {\r\n    //     if (\r\n    //         verifiedTimeMap[_toCheck] + (verifyDayThreshold * 1 days) <\r\n    //         block.timestamp\r\n    //     ) return false;\r\n\r\n    //     return verifiedTimeMap[_toCheck] > 0;\r\n    // }\r\n\r\n    /// @notice This function returns the stamps of an address\r\n    /// @param _toCheck The address to check\r\n    /// @return An array of stamps\r\n    function getStamps(\r\n        address _toCheck\r\n    ) external view returns (Stamp[] memory) {\r\n        return stamps[_toCheck];\r\n    }\r\n\r\n    function getStampsAt(\r\n        address _toCheck,\r\n        uint _timestamp\r\n    ) external view returns (Stamp[] memory) {\r\n        Stamp[] memory stampsAt = new Stamp[](stamps[_toCheck].length);\r\n        uint count = 0;\r\n\r\n        // Loop through stamps\r\n        for (uint i = 0; i < stamps[_toCheck].length; i++) {\r\n            uint64[] storage verifiedAt = stamps[_toCheck][i].verifiedAt;\r\n            uint currentTimestampIndex = thresholdHistory.length - 1;\r\n\r\n            // Reverse for loop, because more recent dates are at the end of the array\r\n            for (uint j = verifiedAt.length; j > 0; j--) {\r\n                while (currentTimestampIndex > 0 && verifiedAt[j - 1] < thresholdHistory[currentTimestampIndex].threshold) {\r\n                    currentTimestampIndex--;\r\n                }\r\n                \r\n                uint64 verifyDayThreshold = thresholdHistory[currentTimestampIndex].threshold;\r\n\r\n                // Check if the verification timestamp is within the verifyDayThreshold\r\n                if (verifiedAt[j - 1] + (verifyDayThreshold * 1 days) > _timestamp \r\n                    && verifiedAt[j - 1] < _timestamp) {\r\n                    stampsAt[count] = stamps[_toCheck][i];\r\n                    count++;\r\n                    break;\r\n                } else if (verifiedAt[j - 1] + (verifyDayThreshold * 1 days) < _timestamp) {\r\n                    break;\r\n                }\r\n            }\r\n        }\r\n\r\n        Stamp[] memory stampsAtTrimmed = new Stamp[](count);\r\n\r\n        for (uint i = 0; i < count; i++) {\r\n            stampsAtTrimmed[i] = stampsAt[i];\r\n        }\r\n\r\n        return stampsAtTrimmed;\r\n    }\r\n\r\n\r\n    /// @notice This function can only be called by the owner, and it sets the verifyDayThreshold\r\n    /// @dev Sets the verifyDayThreshold\r\n    /// @param _days The number of days to set the verifyDayThreshold to\r\n    function setVerifyDayThreshold(uint64 _days) external onlyOwner {\r\n        Threshold memory lastThreshold = thresholdHistory[thresholdHistory.length - 1];\r\n        require(lastThreshold.threshold != _days, \"Threshold already set to this value\");\r\n        \r\n        thresholdHistory.push(Threshold(uint64(block.timestamp), _days));\r\n    }\r\n\r\n    modifier onlyOwner() {\r\n        require(msg.sender == _owner, \"Ownable: caller is not the owner\");\r\n        _;\r\n    }\r\n}\r\n",
  "sourcePath": "C:\\Users\\Monkey D. Dragon\\Documents\\GitHub\\SecureSECOVerification\\block\\contracts\\GithubVerification.sol",
  "compiler": {
    "name": "solc",
    "version": "0.8.18+commit.87f61d96.Emscripten.clang"
  },
  "schemaVersion": "3.4.13",
  "updatedAt": "2023-03-27T13:39:14.409Z",
  "devdoc": {
    "author": "JSC LEE",
    "kind": "dev",
    "methods": {
      "getStamps(address)": {
        "params": {
          "_toCheck": "The address to check"
        },
        "returns": {
          "_0": "An array of stamps"
        }
      },
      "setVerifyDayThreshold(uint64)": {
        "details": "Sets the verifyDayThreshold",
        "params": {
          "_days": "The number of days to set the verifyDayThreshold to"
        }
      },
      "verifyAddress(address,string,uint64,string,bytes)": {
        "details": "Verifies an address",
        "params": {
          "_timestamp": "in seconds",
          "_toVerify": "The address to verify"
        }
      }
    },
    "title": "A contract to verify addresses",
    "version": 1
  },
  "userdoc": {
    "kind": "user",
    "methods": {
      "constructor": {
        "notice": "This constructor sets the owner of the contract"
      },
      "getStamps(address)": {
        "notice": "This function returns the stamps of an address"
      },
      "setVerifyDayThreshold(uint64)": {
        "notice": "This function can only be called by the owner, and it sets the verifyDayThreshold"
      },
      "verifyAddress(address,string,uint64,string,bytes)": {
        "notice": "This function can only be called by the owner, and it verifies an address. It's not possible to re-verofuy an address before half the verifyDayThreshold has passed."
      }
    },
    "notice": "You can use this contract to verify addresses",
    "version": 1
  }
}