{
  "contractName": "GithubVerification",
  "abi": [
    {
      "inputs": [
        {
          "internalType": "uint64",
          "name": "_threshold",
          "type": "uint64"
        },
        {
          "internalType": "uint64",
          "name": "_reverifyThreshold",
          "type": "uint64"
        }
      ],
      "stateMutability": "nonpayable",
      "type": "constructor"
    },
    {
      "anonymous": false,
      "inputs": [
        {
          "indexed": true,
          "internalType": "address",
          "name": "previousOwner",
          "type": "address"
        },
        {
          "indexed": true,
          "internalType": "address",
          "name": "newOwner",
          "type": "address"
        }
      ],
      "name": "OwnershipTransferred",
      "type": "event"
    },
    {
      "inputs": [
        {
          "internalType": "bytes32",
          "name": "_messageHash",
          "type": "bytes32"
        }
      ],
      "name": "getEthSignedMessageHash",
      "outputs": [
        {
          "internalType": "bytes32",
          "name": "",
          "type": "bytes32"
        }
      ],
      "stateMutability": "pure",
      "type": "function",
      "constant": true
    },
    {
      "inputs": [
        {
          "internalType": "address",
          "name": "_toVerify",
          "type": "address"
        },
        {
          "internalType": "string",
          "name": "_userHash",
          "type": "string"
        },
        {
          "internalType": "uint256",
          "name": "_timestamp",
          "type": "uint256"
        }
      ],
      "name": "getMessageHash",
      "outputs": [
        {
          "internalType": "bytes32",
          "name": "",
          "type": "bytes32"
        }
      ],
      "stateMutability": "pure",
      "type": "function",
      "constant": true
    },
    {
      "inputs": [
        {
          "internalType": "address",
          "name": "_toVerify",
          "type": "address"
        },
        {
          "internalType": "string",
          "name": "_userHash",
          "type": "string"
        },
        {
          "internalType": "uint256",
          "name": "_timestamp",
          "type": "uint256"
        }
      ],
      "name": "getPackedMessage",
      "outputs": [
        {
          "internalType": "bytes",
          "name": "",
          "type": "bytes"
        }
      ],
      "stateMutability": "pure",
      "type": "function",
      "constant": true
    },
    {
      "inputs": [],
      "name": "owner",
      "outputs": [
        {
          "internalType": "address",
          "name": "",
          "type": "address"
        }
      ],
      "stateMutability": "view",
      "type": "function",
      "constant": true
    },
    {
      "inputs": [
        {
          "internalType": "bytes32",
          "name": "_ethSignedMessageHash",
          "type": "bytes32"
        },
        {
          "internalType": "bytes",
          "name": "_signature",
          "type": "bytes"
        }
      ],
      "name": "recoverSigner",
      "outputs": [
        {
          "internalType": "address",
          "name": "",
          "type": "address"
        }
      ],
      "stateMutability": "pure",
      "type": "function",
      "constant": true
    },
    {
      "inputs": [],
      "name": "renounceOwnership",
      "outputs": [],
      "stateMutability": "nonpayable",
      "type": "function"
    },
    {
      "inputs": [],
      "name": "reverifyThreshold",
      "outputs": [
        {
          "internalType": "uint64",
          "name": "",
          "type": "uint64"
        }
      ],
      "stateMutability": "view",
      "type": "function",
      "constant": true
    },
    {
      "inputs": [
        {
          "internalType": "bytes",
          "name": "sig",
          "type": "bytes"
        }
      ],
      "name": "splitSignature",
      "outputs": [
        {
          "internalType": "bytes32",
          "name": "r",
          "type": "bytes32"
        },
        {
          "internalType": "bytes32",
          "name": "s",
          "type": "bytes32"
        },
        {
          "internalType": "uint8",
          "name": "v",
          "type": "uint8"
        }
      ],
      "stateMutability": "pure",
      "type": "function",
      "constant": true
    },
    {
      "inputs": [
        {
          "internalType": "address",
          "name": "newOwner",
          "type": "address"
        }
      ],
      "name": "transferOwnership",
      "outputs": [],
      "stateMutability": "nonpayable",
      "type": "function"
    },
    {
      "inputs": [
        {
          "internalType": "address",
          "name": "_signer",
          "type": "address"
        },
        {
          "internalType": "address",
          "name": "_toVerify",
          "type": "address"
        },
        {
          "internalType": "string",
          "name": "_userHash",
          "type": "string"
        },
        {
          "internalType": "uint256",
          "name": "_timestamp",
          "type": "uint256"
        },
        {
          "internalType": "bytes",
          "name": "_signature",
          "type": "bytes"
        }
      ],
      "name": "verify",
      "outputs": [
        {
          "internalType": "bool",
          "name": "",
          "type": "bool"
        }
      ],
      "stateMutability": "pure",
      "type": "function",
      "constant": true
    },
    {
      "inputs": [
        {
          "internalType": "address",
          "name": "_toVerify",
          "type": "address"
        },
        {
          "internalType": "string",
          "name": "_userHash",
          "type": "string"
        },
        {
          "internalType": "uint64",
          "name": "_timestamp",
          "type": "uint64"
        },
        {
          "internalType": "string",
          "name": "_providerId",
          "type": "string"
        },
        {
          "internalType": "bytes",
          "name": "_proofSignature",
          "type": "bytes"
        }
      ],
      "name": "verifyAddress",
      "outputs": [],
      "stateMutability": "nonpayable",
      "type": "function"
    },
    {
      "inputs": [
        {
          "internalType": "string",
          "name": "_providerId",
          "type": "string"
        }
      ],
      "name": "unverify",
      "outputs": [],
      "stateMutability": "nonpayable",
      "type": "function"
    },
    {
      "inputs": [
        {
          "internalType": "string",
          "name": "str1",
          "type": "string"
        },
        {
          "internalType": "string",
          "name": "str2",
          "type": "string"
        }
      ],
      "name": "stringsAreEqual",
      "outputs": [
        {
          "internalType": "bool",
          "name": "",
          "type": "bool"
        }
      ],
      "stateMutability": "pure",
      "type": "function",
      "constant": true
    },
    {
      "inputs": [
        {
          "internalType": "address",
          "name": "_toCheck",
          "type": "address"
        }
      ],
      "name": "getStamps",
      "outputs": [
        {
          "components": [
            {
              "internalType": "string",
              "name": "providerId",
              "type": "string"
            },
            {
              "internalType": "string",
              "name": "userHash",
              "type": "string"
            },
            {
              "internalType": "uint64[]",
              "name": "verifiedAt",
              "type": "uint64[]"
            }
          ],
          "internalType": "struct GithubVerification.Stamp[]",
          "name": "",
          "type": "tuple[]"
        }
      ],
      "stateMutability": "view",
      "type": "function",
      "constant": true
    },
    {
      "inputs": [
        {
          "internalType": "address",
          "name": "_toCheck",
          "type": "address"
        },
        {
          "internalType": "uint256",
          "name": "_timestamp",
          "type": "uint256"
        }
      ],
      "name": "getStampsAt",
      "outputs": [
        {
          "components": [
            {
              "internalType": "string",
              "name": "providerId",
              "type": "string"
            },
            {
              "internalType": "string",
              "name": "userHash",
              "type": "string"
            },
            {
              "internalType": "uint64[]",
              "name": "verifiedAt",
              "type": "uint64[]"
            }
          ],
          "internalType": "struct GithubVerification.Stamp[]",
          "name": "",
          "type": "tuple[]"
        }
      ],
      "stateMutability": "view",
      "type": "function",
      "constant": true
    },
    {
      "inputs": [
        {
          "internalType": "uint64",
          "name": "_days",
          "type": "uint64"
        }
      ],
      "name": "setVerifyDayThreshold",
      "outputs": [],
      "stateMutability": "nonpayable",
      "type": "function"
    },
    {
      "inputs": [],
      "name": "getThresholdHistory",
      "outputs": [
        {
          "components": [
            {
              "internalType": "uint64",
              "name": "timestamp",
              "type": "uint64"
            },
            {
              "internalType": "uint64",
              "name": "threshold",
              "type": "uint64"
            }
          ],
          "internalType": "struct GithubVerification.Threshold[]",
          "name": "",
          "type": "tuple[]"
        }
      ],
      "stateMutability": "view",
      "type": "function",
      "constant": true
    },
    {
      "inputs": [],
      "name": "getAllMembers",
      "outputs": [
        {
          "internalType": "address[]",
          "name": "",
          "type": "address[]"
        }
      ],
      "stateMutability": "view",
      "type": "function",
      "constant": true
    },
    {
      "inputs": [],
      "name": "isOrWasMember",
      "outputs": [
        {
          "internalType": "bool",
          "name": "",
          "type": "bool"
        }
      ],
      "stateMutability": "view",
      "type": "function",
      "constant": true
    },
    {
      "inputs": [
        {
          "internalType": "uint64",
          "name": "_days",
          "type": "uint64"
        }
      ],
      "name": "setReverifyThreshold",
      "outputs": [],
      "stateMutability": "nonpayable",
      "type": "function"
    }
  ],
  "bytecode": "0x60806040523480156200001157600080fd5b50604051620042a0380380620042a083398181016040528101906200003791906200024e565b620000576200004b6200013860201b60201c565b6200014060201b60201c565b600460405180604001604052804267ffffffffffffffff1681526020018467ffffffffffffffff168152509080600181540180825580915050600190039060005260206000200160009091909190915060008201518160000160006101000a81548167ffffffffffffffff021916908367ffffffffffffffff16021790555060208201518160000160086101000a81548167ffffffffffffffff021916908367ffffffffffffffff160217905550505080600560006101000a81548167ffffffffffffffff021916908367ffffffffffffffff160217905550505062000295565b600033905090565b60008060009054906101000a900473ffffffffffffffffffffffffffffffffffffffff169050816000806101000a81548173ffffffffffffffffffffffffffffffffffffffff021916908373ffffffffffffffffffffffffffffffffffffffff1602179055508173ffffffffffffffffffffffffffffffffffffffff168173ffffffffffffffffffffffffffffffffffffffff167f8be0079c531659141344cd1fd0a4f28419497f9722a3daafe3b4186f6b6457e060405160405180910390a35050565b600080fd5b600067ffffffffffffffff82169050919050565b620002288162000209565b81146200023457600080fd5b50565b60008151905062000248816200021d565b92915050565b6000806040838503121562000268576200026762000204565b5b6000620002788582860162000237565b92505060206200028b8582860162000237565b9150509250929050565b613ffb80620002a56000396000f3fe608060405234801561001057600080fd5b506004361061012c5760003560e01c80637688aa9d116100ad578063a7bb580311610071578063a7bb580314610357578063ccd431e714610389578063dce27f8e146103a5578063f2fde38b146103c3578063fa540801146103df5761012c565b80637688aa9d1461029f57806377817529146102bb5780637c0f6b35146102eb5780638da5cb5b1461030957806397aba7f9146103275761012c565b80634b46d683116100f45780634b46d683146101fd57806350c31502146102195780636599173f146102495780636f63334014610265578063715018a6146102955761012c565b8063082d8f2914610131578063103271f2146101615780631a3719321461017f5780631e31549e146101af57806340a5304b146101df575b600080fd5b61014b6004803603810190610146919061252d565b61040f565b60405161015891906125b5565b60405180910390f35b610169610431565b60405161017691906125f3565b60405180910390f35b6101996004803603810190610194919061260e565b61044b565b6040516101a69190612898565b60405180910390f35b6101c960048036038101906101c491906129bb565b610699565b6040516101d69190612a8c565b60405180910390f35b6101e7610740565b6040516101f49190612a8c565b60405180910390f35b61021760048036038101906102129190612ad3565b6107e2565b005b610233600480360381019061022e9190612b00565b610816565b6040516102409190612898565b60405180910390f35b610263600480360381019061025e9190612b40565b610e9e565b005b61027f600480360381019061027a9190612b8d565b6111b4565b60405161028c9190612a8c565b60405180910390f35b61029d61120d565b005b6102b960048036038101906102b49190612c5b565b611221565b005b6102d560048036038101906102d0919061252d565b611a37565b6040516102e29190612d8c565b60405180910390f35b6102f3611a66565b6040516103009190612e6c565b60405180910390f35b610311611af4565b60405161031e9190612e9d565b60405180910390f35b610341600480360381019061033c9190612ee4565b611b1d565b60405161034e9190612e9d565b60405180910390f35b610371600480360381019061036c9190612f40565b611b8c565b60405161038093929190612fa5565b60405180910390f35b6103a3600480360381019061039e9190612ad3565b611bf4565b005b6103ad611dac565b6040516103ba91906130ba565b60405180910390f35b6103dd60048036038101906103d8919061260e565b611e6b565b005b6103f960048036038101906103f491906130dc565b611eee565b60405161040691906125b5565b60405180910390f35b60008061041d858585611a37565b905080805190602001209150509392505050565b600560009054906101000a900467ffffffffffffffff1681565b6060600160008373ffffffffffffffffffffffffffffffffffffffff1673ffffffffffffffffffffffffffffffffffffffff168152602001908152602001600020805480602002602001604051908101604052809291908181526020016000905b8282101561068e57838290600052602060002090600302016040518060600160405290816000820180546104df90613138565b80601f016020809104026020016040519081016040528092919081815260200182805461050b90613138565b80156105585780601f1061052d57610100808354040283529160200191610558565b820191906000526020600020905b81548152906001019060200180831161053b57829003601f168201915b5050505050815260200160018201805461057190613138565b80601f016020809104026020016040519081016040528092919081815260200182805461059d90613138565b80156105ea5780601f106105bf576101008083540402835291602001916105ea565b820191906000526020600020905b8154815290600101906020018083116105cd57829003601f168201915b505050505081526020016002820180548060200260200160405190810160405280929190818152602001828054801561067657602002820191906000526020600020906000905b82829054906101000a900467ffffffffffffffff1667ffffffffffffffff16815260200190600801906020826007010492830192600103820291508084116106315790505b505050505081525050815260200190600101906104ac565b505050509050919050565b6000806106eb8787878080601f016020809104026020016040519081016040528093929190818152602001838380828437600081840152601f19601f820116905080830192505050505050508661040f565b905060006106f882611eee565b90508873ffffffffffffffffffffffffffffffffffffffff1661071b8286611b1d565b73ffffffffffffffffffffffffffffffffffffffff1614925050509695505050505050565b6000805b6003805490508110156107d9573373ffffffffffffffffffffffffffffffffffffffff166003828154811061077c5761077b613169565b5b9060005260206000200160009054906101000a900473ffffffffffffffffffffffffffffffffffffffff1673ffffffffffffffffffffffffffffffffffffffff16036107cc5760019150506107df565b8080600101915050610744565b50600090505b90565b6107ea611f1e565b80600560006101000a81548167ffffffffffffffff021916908367ffffffffffffffff16021790555050565b60606000600160008573ffffffffffffffffffffffffffffffffffffffff1673ffffffffffffffffffffffffffffffffffffffff1681526020019081526020016000208054905067ffffffffffffffff811115610876576108756123cc565b5b6040519080825280602002602001820160405280156108af57816020015b61089c61217d565b8152602001906001900390816108945790505b5090506000805b600160008773ffffffffffffffffffffffffffffffffffffffff1673ffffffffffffffffffffffffffffffffffffffff16815260200190815260200160002080549050811015610de1576000600160008873ffffffffffffffffffffffffffffffffffffffff1673ffffffffffffffffffffffffffffffffffffffff168152602001908152602001600020828154811061095357610952613169565b5b906000526020600020906003020160020190506000600160048054905061097a91906131c7565b90505b6000811180156109cb5750866004828154811061099d5761099c613169565b5b9060005260206000200160000160009054906101000a900467ffffffffffffffff1667ffffffffffffffff16115b156109e35780806109db906131fb565b91505061097d565b6000600482815481106109f9576109f8613169565b5b9060005260206000200160000160089054906101000a900467ffffffffffffffff1690506000838054905090505b6000811115610dd057886201518083610a409190613224565b85600184610a4e91906131c7565b81548110610a5f57610a5e613169565b5b90600052602060002090600491828204019190066008029054906101000a900467ffffffffffffffff16610a939190613261565b67ffffffffffffffff16118015610afb57508884600183610ab491906131c7565b81548110610ac557610ac4613169565b5b90600052602060002090600491828204019190066008029054906101000a900467ffffffffffffffff1667ffffffffffffffff16105b15610d4b57600160008b73ffffffffffffffffffffffffffffffffffffffff1673ffffffffffffffffffffffffffffffffffffffff1681526020019081526020016000208581548110610b5157610b50613169565b5b9060005260206000209060030201604051806060016040529081600082018054610b7a90613138565b80601f0160208091040260200160405190810160405280929190818152602001828054610ba690613138565b8015610bf35780601f10610bc857610100808354040283529160200191610bf3565b820191906000526020600020905b815481529060010190602001808311610bd657829003601f168201915b50505050508152602001600182018054610c0c90613138565b80601f0160208091040260200160405190810160405280929190818152602001828054610c3890613138565b8015610c855780601f10610c5a57610100808354040283529160200191610c85565b820191906000526020600020905b815481529060010190602001808311610c6857829003601f168201915b5050505050815260200160028201805480602002602001604051908101604052809291908181526020018280548015610d1157602002820191906000526020600020906000905b82829054906101000a900467ffffffffffffffff1667ffffffffffffffff1681526020019060080190602082600701049283019260010382029150808411610ccc5790505b505050505081525050878781518110610d2d57610d2c613169565b5b60200260200101819052508580610d439061329d565b965050610dd0565b886201518083610d5b9190613224565b85600184610d6991906131c7565b81548110610d7a57610d79613169565b5b90600052602060002090600491828204019190066008029054906101000a900467ffffffffffffffff16610dae9190613261565b67ffffffffffffffff1610610dd0578080610dc8906131fb565b915050610a27565b5083806001019450505050506108b6565b5060008167ffffffffffffffff811115610dfe57610dfd6123cc565b5b604051908082528060200260200182016040528015610e3757816020015b610e2461217d565b815260200190600190039081610e1c5790505b50905060005b82811015610e9157838181518110610e5857610e57613169565b5b6020026020010151828281518110610e7357610e72613169565b5b60200260200101819052508080610e899061329d565b915050610e3d565b5080935050505092915050565b6000600160003373ffffffffffffffffffffffffffffffffffffffff1673ffffffffffffffffffffffffffffffffffffffff168152602001908152602001600020905060005b818054905081101561117457610fea828281548110610f0657610f05613169565b5b90600052602060002090600302016000018054610f2290613138565b80601f0160208091040260200160405190810160405280929190818152602001828054610f4e90613138565b8015610f9b5780601f10610f7057610100808354040283529160200191610f9b565b820191906000526020600020905b815481529060010190602001808311610f7e57829003601f168201915b505050505085858080601f016020809104026020016040519081016040528093929190818152602001838380828437600081840152601f19601f820116905080830192505050505050506111b4565b15611167576000600283838154811061100657611005613169565b5b90600052602060002090600302016001016040516110249190613388565b908152602001604051809103902060006101000a81548173ffffffffffffffffffffffffffffffffffffffff021916908373ffffffffffffffffffffffffffffffffffffffff160217905550816001838054905061108291906131c7565b8154811061109357611092613169565b5b90600052602060002090600302018282815481106110b4576110b3613169565b5b9060005260206000209060030201600082018160000190816110d6919061354c565b50600182018160010190816110eb919061354c565b50600282018160020190805461110292919061219e565b509050508180548061111757611116613634565b5b60019003818190600052602060002090600302016000808201600061113c91906121fe565b60018201600061114c91906121fe565b60028201600061115c919061223e565b5050905550506111b0565b8080600101915050610ee4565b506040517f08c379a00000000000000000000000000000000000000000000000000000000081526004016111a79061370c565b60405180910390fd5b5050565b6000816040516020016111c7919061375d565b60405160208183030381529060405280519060200120836040516020016111ee919061375d565b6040516020818303038152906040528051906020012014905092915050565b611215611f1e565b61121f6000611f9c565b565b600073ffffffffffffffffffffffffffffffffffffffff166002888860405161124b929190613799565b908152602001604051809103902060009054906101000a900473ffffffffffffffffffffffffffffffffffffffff1673ffffffffffffffffffffffffffffffffffffffff16148061130757508773ffffffffffffffffffffffffffffffffffffffff16600288886040516112c0929190613799565b908152602001604051809103902060009054906101000a900473ffffffffffffffffffffffffffffffffffffffff1673ffffffffffffffffffffffffffffffffffffffff16145b611346576040517f08c379a000000000000000000000000000000000000000000000000000000000815260040161133d90613824565b60405180910390fd5b600073ffffffffffffffffffffffffffffffffffffffff168873ffffffffffffffffffffffffffffffffffffffff16036113b5576040517f08c379a00000000000000000000000000000000000000000000000000000000081526004016113ac90613890565b60405180910390fd5b610e10856113c39190613261565b67ffffffffffffffff16421061140e576040517f08c379a000000000000000000000000000000000000000000000000000000000815260040161140590613922565b60405180910390fd5b611471611419611af4565b8989898967ffffffffffffffff1687878080601f016020809104026020016040519081016040528093929190818152602001838380828437600081840152601f19601f82011690508083019250505050505050610699565b6114b0576040517f08c379a00000000000000000000000000000000000000000000000000000000081526004016114a79061398e565b60405180910390fd5b60008060005b600160008c73ffffffffffffffffffffffffffffffffffffffff1673ffffffffffffffffffffffffffffffffffffffff168152602001908152602001600020805490508110156115cf578686604051602001611513929190613799565b60405160208183030381529060405280519060200120600160008d73ffffffffffffffffffffffffffffffffffffffff1673ffffffffffffffffffffffffffffffffffffffff168152602001908152602001600020828154811061157a57611579613169565b5b906000526020600020906003020160000160405160200161159b9190613388565b60405160208183030381529060405280519060200120036115c257600192508091506115cf565b80806001019150506114b6565b508161182d576000600160008c73ffffffffffffffffffffffffffffffffffffffff1673ffffffffffffffffffffffffffffffffffffffff16815260200190815260200160002080549050036116835760038a9080600181540180825580915050600190039060005260206000200160009091909190916101000a81548173ffffffffffffffffffffffffffffffffffffffff021916908373ffffffffffffffffffffffffffffffffffffffff1602179055505b600160008b73ffffffffffffffffffffffffffffffffffffffff1673ffffffffffffffffffffffffffffffffffffffff16815260200190815260200160002061175587878080601f016020809104026020016040519081016040528093929190818152602001838380828437600081840152601f19601f820116905080830192505050505050508b8b8080601f016020809104026020016040519081016040528093929190818152602001838380828437600081840152601f19601f820116905080830192505050505050508a612060565b9080600181540180825580915050600190039060005260206000209060030201600090919091909150600082015181600001908161179391906139ae565b5060208201518160010190816117a991906139ae565b5060408201518160020190805190602001906117c6929190612266565b5050508960028a8a6040516117dc929190613799565b908152602001604051809103902060006101000a81548173ffffffffffffffffffffffffffffffffffffffff021916908373ffffffffffffffffffffffffffffffffffffffff160217905550611a2b565b6000600160008c73ffffffffffffffffffffffffffffffffffffffff1673ffffffffffffffffffffffffffffffffffffffff16815260200190815260200160002082815481106118805761187f613169565b5b90600052602060002090600302016002019050600081600183805490506118a791906131c7565b815481106118b8576118b7613169565b5b90600052602060002090600491828204019190066008029054906101000a900467ffffffffffffffff16426118ed9190613a80565b9050600560009054906101000a900467ffffffffffffffff1667ffffffffffffffff168167ffffffffffffffff1611156119ed578a8a600160008f73ffffffffffffffffffffffffffffffffffffffff1673ffffffffffffffffffffffffffffffffffffffff168152602001908152602001600020858154811061197457611973613169565b5b90600052602060002090600302016001019182611992929190613ac7565b50818990806001815401808255809150506001900390600052602060002090600491828204019190066008029091909190916101000a81548167ffffffffffffffff021916908367ffffffffffffffff160217905550611a28565b6040517f08c379a0000000000000000000000000000000000000000000000000000000008152600401611a1f90613c2f565b60405180910390fd5b50505b50505050505050505050565b6060838383604051602001611a4e93929190613cb8565b60405160208183030381529060405290509392505050565b60606003805480602002602001604051908101604052809291908181526020018280548015611aea57602002820191906000526020600020905b8160009054906101000a900473ffffffffffffffffffffffffffffffffffffffff1673ffffffffffffffffffffffffffffffffffffffff1681526020019060010190808311611aa0575b5050505050905090565b60008060009054906101000a900473ffffffffffffffffffffffffffffffffffffffff16905090565b600080600080611b2c85611b8c565b92509250925060018682858560405160008152602001604052604051611b559493929190613cf1565b6020604051602081039080840390855afa158015611b77573d6000803e3d6000fd5b50505060206040510351935050505092915050565b60008060006041845114611bd5576040517f08c379a0000000000000000000000000000000000000000000000000000000008152600401611bcc90613d82565b60405180910390fd5b6020840151925060408401519150606084015160001a90509193909250565b611bfc611f1e565b600060046001600480549050611c1291906131c7565b81548110611c2357611c22613169565b5b906000526020600020016040518060400160405290816000820160009054906101000a900467ffffffffffffffff1667ffffffffffffffff1667ffffffffffffffff1681526020016000820160089054906101000a900467ffffffffffffffff1667ffffffffffffffff1667ffffffffffffffff168152505090508167ffffffffffffffff16816020015167ffffffffffffffff1603611cf8576040517f08c379a0000000000000000000000000000000000000000000000000000000008152600401611cef90613e14565b60405180910390fd5b600460405180604001604052804267ffffffffffffffff1681526020018467ffffffffffffffff168152509080600181540180825580915050600190039060005260206000200160009091909190915060008201518160000160006101000a81548167ffffffffffffffff021916908367ffffffffffffffff16021790555060208201518160000160086101000a81548167ffffffffffffffff021916908367ffffffffffffffff16021790555050505050565b60606004805480602002602001604051908101604052809291908181526020016000905b82821015611e62578382906000526020600020016040518060400160405290816000820160009054906101000a900467ffffffffffffffff1667ffffffffffffffff1667ffffffffffffffff1681526020016000820160089054906101000a900467ffffffffffffffff1667ffffffffffffffff1667ffffffffffffffff168152505081526020019060010190611dd0565b50505050905090565b611e73611f1e565b600073ffffffffffffffffffffffffffffffffffffffff168173ffffffffffffffffffffffffffffffffffffffff1603611ee2576040517f08c379a0000000000000000000000000000000000000000000000000000000008152600401611ed990613ea6565b60405180910390fd5b611eeb81611f9c565b50565b600081604051602001611f019190613f33565b604051602081830303815290604052805190602001209050919050565b611f26612175565b73ffffffffffffffffffffffffffffffffffffffff16611f44611af4565b73ffffffffffffffffffffffffffffffffffffffff1614611f9a576040517f08c379a0000000000000000000000000000000000000000000000000000000008152600401611f9190613fa5565b60405180910390fd5b565b60008060009054906101000a900473ffffffffffffffffffffffffffffffffffffffff169050816000806101000a81548173ffffffffffffffffffffffffffffffffffffffff021916908373ffffffffffffffffffffffffffffffffffffffff1602179055508173ffffffffffffffffffffffffffffffffffffffff168173ffffffffffffffffffffffffffffffffffffffff167f8be0079c531659141344cd1fd0a4f28419497f9722a3daafe3b4186f6b6457e060405160405180910390a35050565b61206861217d565b6000600167ffffffffffffffff811115612085576120846123cc565b5b6040519080825280602002602001820160405280156120b35781602001602082028036833780820191505090505b50905082816000815181106120cb576120ca613169565b5b602002602001019067ffffffffffffffff16908167ffffffffffffffff1681525050600060405180606001604052808781526020018681526020018381525090503360028660405161211d919061375d565b908152602001604051809103902060006101000a81548173ffffffffffffffffffffffffffffffffffffffff021916908373ffffffffffffffffffffffffffffffffffffffff16021790555080925050509392505050565b600033905090565b60405180606001604052806060815260200160608152602001606081525090565b828054828255906000526020600020906003016004900481019282156121ed576000526020600020916003016004900482015b828111156121ec5782548255916001019190600101906121d1565b5b5090506121fa9190612322565b5090565b50805461220a90613138565b6000825580601f1061221c575061223b565b601f01602090049060005260206000209081019061223a9190612322565b5b50565b5080546000825560030160049004906000526020600020908101906122639190612322565b50565b828054828255906000526020600020906003016004900481019282156123115791602002820160005b838211156122db57835183826101000a81548167ffffffffffffffff021916908367ffffffffffffffff160217905550926020019260080160208160070104928301926001030261228f565b801561230f5782816101000a81549067ffffffffffffffff02191690556008016020816007010492830192600103026122db565b505b50905061231e9190612322565b5090565b5b8082111561233b576000816000905550600101612323565b5090565b6000604051905090565b600080fd5b600080fd5b600073ffffffffffffffffffffffffffffffffffffffff82169050919050565b600061237e82612353565b9050919050565b61238e81612373565b811461239957600080fd5b50565b6000813590506123ab81612385565b92915050565b600080fd5b600080fd5b6000601f19601f8301169050919050565b7f4e487b7100000000000000000000000000000000000000000000000000000000600052604160045260246000fd5b612404826123bb565b810181811067ffffffffffffffff82111715612423576124226123cc565b5b80604052505050565b600061243661233f565b905061244282826123fb565b919050565b600067ffffffffffffffff821115612462576124616123cc565b5b61246b826123bb565b9050602081019050919050565b82818337600083830152505050565b600061249a61249584612447565b61242c565b9050828152602081018484840111156124b6576124b56123b6565b5b6124c1848285612478565b509392505050565b600082601f8301126124de576124dd6123b1565b5b81356124ee848260208601612487565b91505092915050565b6000819050919050565b61250a816124f7565b811461251557600080fd5b50565b60008135905061252781612501565b92915050565b60008060006060848603121561254657612545612349565b5b60006125548682870161239c565b935050602084013567ffffffffffffffff8111156125755761257461234e565b5b612581868287016124c9565b925050604061259286828701612518565b9150509250925092565b6000819050919050565b6125af8161259c565b82525050565b60006020820190506125ca60008301846125a6565b92915050565b600067ffffffffffffffff82169050919050565b6125ed816125d0565b82525050565b600060208201905061260860008301846125e4565b92915050565b60006020828403121561262457612623612349565b5b60006126328482850161239c565b91505092915050565b600081519050919050565b600082825260208201905092915050565b6000819050602082019050919050565b600081519050919050565b600082825260208201905092915050565b60005b838110156126a1578082015181840152602081019050612686565b60008484015250505050565b60006126b882612667565b6126c28185612672565b93506126d2818560208601612683565b6126db816123bb565b840191505092915050565b600081519050919050565b600082825260208201905092915050565b6000819050602082019050919050565b61271b816125d0565b82525050565b600061272d8383612712565b60208301905092915050565b6000602082019050919050565b6000612751826126e6565b61275b81856126f1565b935061276683612702565b8060005b8381101561279757815161277e8882612721565b975061278983612739565b92505060018101905061276a565b5085935050505092915050565b600060608301600083015184820360008601526127c182826126ad565b915050602083015184820360208601526127db82826126ad565b915050604083015184820360408601526127f58282612746565b9150508091505092915050565b600061280e83836127a4565b905092915050565b6000602082019050919050565b600061282e8261263b565b6128388185612646565b93508360208202850161284a85612657565b8060005b8581101561288657848403895281516128678582612802565b945061287283612816565b925060208a0199505060018101905061284e565b50829750879550505050505092915050565b600060208201905081810360008301526128b28184612823565b905092915050565b600080fd5b600080fd5b60008083601f8401126128da576128d96123b1565b5b8235905067ffffffffffffffff8111156128f7576128f66128ba565b5b602083019150836001820283011115612913576129126128bf565b5b9250929050565b600067ffffffffffffffff821115612935576129346123cc565b5b61293e826123bb565b9050602081019050919050565b600061295e6129598461291a565b61242c565b90508281526020810184848401111561297a576129796123b6565b5b612985848285612478565b509392505050565b600082601f8301126129a2576129a16123b1565b5b81356129b284826020860161294b565b91505092915050565b60008060008060008060a087890312156129d8576129d7612349565b5b60006129e689828a0161239c565b96505060206129f789828a0161239c565b955050604087013567ffffffffffffffff811115612a1857612a1761234e565b5b612a2489828a016128c4565b94509450506060612a3789828a01612518565b925050608087013567ffffffffffffffff811115612a5857612a5761234e565b5b612a6489828a0161298d565b9150509295509295509295565b60008115159050919050565b612a8681612a71565b82525050565b6000602082019050612aa16000830184612a7d565b92915050565b612ab0816125d0565b8114612abb57600080fd5b50565b600081359050612acd81612aa7565b92915050565b600060208284031215612ae957612ae8612349565b5b6000612af784828501612abe565b91505092915050565b60008060408385031215612b1757612b16612349565b5b6000612b258582860161239c565b9250506020612b3685828601612518565b9150509250929050565b60008060208385031215612b5757612b56612349565b5b600083013567ffffffffffffffff811115612b7557612b7461234e565b5b612b81858286016128c4565b92509250509250929050565b60008060408385031215612ba457612ba3612349565b5b600083013567ffffffffffffffff811115612bc257612bc161234e565b5b612bce858286016124c9565b925050602083013567ffffffffffffffff811115612bef57612bee61234e565b5b612bfb858286016124c9565b9150509250929050565b60008083601f840112612c1b57612c1a6123b1565b5b8235905067ffffffffffffffff811115612c3857612c376128ba565b5b602083019150836001820283011115612c5457612c536128bf565b5b9250929050565b60008060008060008060008060a0898b031215612c7b57612c7a612349565b5b6000612c898b828c0161239c565b985050602089013567ffffffffffffffff811115612caa57612ca961234e565b5b612cb68b828c016128c4565b97509750506040612cc98b828c01612abe565b955050606089013567ffffffffffffffff811115612cea57612ce961234e565b5b612cf68b828c016128c4565b9450945050608089013567ffffffffffffffff811115612d1957612d1861234e565b5b612d258b828c01612c05565b92509250509295985092959890939650565b600081519050919050565b600082825260208201905092915050565b6000612d5e82612d37565b612d688185612d42565b9350612d78818560208601612683565b612d81816123bb565b840191505092915050565b60006020820190508181036000830152612da68184612d53565b905092915050565b600081519050919050565b600082825260208201905092915050565b6000819050602082019050919050565b612de381612373565b82525050565b6000612df58383612dda565b60208301905092915050565b6000602082019050919050565b6000612e1982612dae565b612e238185612db9565b9350612e2e83612dca565b8060005b83811015612e5f578151612e468882612de9565b9750612e5183612e01565b925050600181019050612e32565b5085935050505092915050565b60006020820190508181036000830152612e868184612e0e565b905092915050565b612e9781612373565b82525050565b6000602082019050612eb26000830184612e8e565b92915050565b612ec18161259c565b8114612ecc57600080fd5b50565b600081359050612ede81612eb8565b92915050565b60008060408385031215612efb57612efa612349565b5b6000612f0985828601612ecf565b925050602083013567ffffffffffffffff811115612f2a57612f2961234e565b5b612f368582860161298d565b9150509250929050565b600060208284031215612f5657612f55612349565b5b600082013567ffffffffffffffff811115612f7457612f7361234e565b5b612f808482850161298d565b91505092915050565b600060ff82169050919050565b612f9f81612f89565b82525050565b6000606082019050612fba60008301866125a6565b612fc760208301856125a6565b612fd46040830184612f96565b949350505050565b600081519050919050565b600082825260208201905092915050565b6000819050602082019050919050565b60408201600082015161301e6000850182612712565b5060208201516130316020850182612712565b50505050565b60006130438383613008565b60408301905092915050565b6000602082019050919050565b600061306782612fdc565b6130718185612fe7565b935061307c83612ff8565b8060005b838110156130ad5781516130948882613037565b975061309f8361304f565b925050600181019050613080565b5085935050505092915050565b600060208201905081810360008301526130d4818461305c565b905092915050565b6000602082840312156130f2576130f1612349565b5b600061310084828501612ecf565b91505092915050565b7f4e487b7100000000000000000000000000000000000000000000000000000000600052602260045260246000fd5b6000600282049050600182168061315057607f821691505b60208210810361316357613162613109565b5b50919050565b7f4e487b7100000000000000000000000000000000000000000000000000000000600052603260045260246000fd5b7f4e487b7100000000000000000000000000000000000000000000000000000000600052601160045260246000fd5b60006131d2826124f7565b91506131dd836124f7565b92508282039050818111156131f5576131f4613198565b5b92915050565b6000613206826124f7565b91506000820361321957613218613198565b5b600182039050919050565b600061322f826125d0565b915061323a836125d0565b9250828202613248816125d0565b915080821461325a57613259613198565b5b5092915050565b600061326c826125d0565b9150613277836125d0565b9250828201905067ffffffffffffffff81111561329757613296613198565b5b92915050565b60006132a8826124f7565b91507fffffffffffffffffffffffffffffffffffffffffffffffffffffffffffffffff82036132da576132d9613198565b5b600182019050919050565b600081905092915050565b60008190508160005260206000209050919050565b6000815461331281613138565b61331c81866132e5565b94506001821660008114613337576001811461334c5761337f565b60ff198316865281151582028601935061337f565b613355856132f0565b60005b8381101561337757815481890152600182019150602081019050613358565b838801955050505b50505092915050565b60006133948284613305565b915081905092915050565b6000815490506133ae81613138565b9050919050565b60006020601f8301049050919050565b600082821b905092915050565b6000600883026134027fffffffffffffffffffffffffffffffffffffffffffffffffffffffffffffffff826133c5565b61340c86836133c5565b95508019841693508086168417925050509392505050565b6000819050919050565b600061344961344461343f846124f7565b613424565b6124f7565b9050919050565b6000819050919050565b6134638361342e565b61347761346f82613450565b8484546133d2565b825550505050565b600090565b61348c61347f565b61349781848461345a565b505050565b5b818110156134bb576134b0600082613484565b60018101905061349d565b5050565b601f821115613500576134d1816132f0565b6134da846133b5565b810160208510156134e9578190505b6134fd6134f5856133b5565b83018261349c565b50505b505050565b600082821c905092915050565b600061352360001984600802613505565b1980831691505092915050565b600061353c8383613512565b9150826002028217905092915050565b81810361355a575050613632565b6135638261339f565b67ffffffffffffffff81111561357c5761357b6123cc565b5b6135868254613138565b6135918282856134bf565b6000601f8311600181146135c057600084156135ae578287015490505b6135b88582613530565b86555061362b565b601f1984166135ce876132f0565b96506135d9866132f0565b60005b82811015613601578489015482556001820191506001850194506020810190506135dc565b8683101561361e578489015461361a601f891682613512565b8355505b6001600288020188555050505b5050505050505b565b7f4e487b7100000000000000000000000000000000000000000000000000000000600052603160045260246000fd5b600082825260208201905092915050565b7f436f756c64206e6f742066696e6420746869732070726f766964657220616d6f60008201527f6e6720796f7572207374616d70733b2061726520796f75207375726520796f7560208201527f277265207665726966696564207769746820746869732070726f76696465723f604082015250565b60006136f6606083613663565b915061370182613674565b606082019050919050565b60006020820190508181036000830152613725816136e9565b9050919050565b600061373782612667565b61374181856132e5565b9350613751818560208601612683565b80840191505092915050565b6000613769828461372c565b915081905092915050565b600061378083856132e5565b935061378d838584612478565b82840190509392505050565b60006137a6828486613774565b91508190509392505050565b7f494420616c726561647920616666696c6961746564207769746820616e6f746860008201527f6572206164647265737300000000000000000000000000000000000000000000602082015250565b600061380e602a83613663565b9150613819826137b2565b604082019050919050565b6000602082019050818103600083015261383d81613801565b9050919050565b7f416464726573732063616e6e6f74206265203078300000000000000000000000600082015250565b600061387a601583613663565b915061388582613844565b602082019050919050565b600060208201905081810360008301526138a98161386d565b9050919050565b7f50726f6f6620657870697265642c2074727920766572696679696e672061676160008201527f696e000000000000000000000000000000000000000000000000000000000000602082015250565b600061390c602283613663565b9150613917826138b0565b604082019050919050565b6000602082019050818103600083015261393b816138ff565b9050919050565b7f50726f6f66206973206e6f742076616c69640000000000000000000000000000600082015250565b6000613978601283613663565b915061398382613942565b602082019050919050565b600060208201905081810360008301526139a78161396b565b9050919050565b6139b782612667565b67ffffffffffffffff8111156139d0576139cf6123cc565b5b6139da8254613138565b6139e58282856134bf565b600060209050601f831160018114613a185760008415613a06578287015190505b613a108582613530565b865550613a78565b601f198416613a26866132f0565b60005b82811015613a4e57848901518255600182019150602085019450602081019050613a29565b86831015613a6b5784890151613a67601f891682613512565b8355505b6001600288020188555050505b505050505050565b6000613a8b826125d0565b9150613a96836125d0565b9250828203905067ffffffffffffffff811115613ab657613ab5613198565b5b92915050565b600082905092915050565b613ad18383613abc565b67ffffffffffffffff811115613aea57613ae96123cc565b5b613af48254613138565b613aff8282856134bf565b6000601f831160018114613b2e5760008415613b1c578287013590505b613b268582613530565b865550613b8e565b601f198416613b3c866132f0565b60005b82811015613b6457848901358255600182019150602085019450602081019050613b3f565b86831015613b815784890135613b7d601f891682613512565b8355505b6001600288020188555050505b50505050505050565b7f4164647265737320616c72656164792076657269666965643b2063616e6e6f7460008201527f2072652d766572696679207965742c2077616974206174206c6561737420686160208201527f6c6620746865207665726966794461795468726573686f6c6400000000000000604082015250565b6000613c19605983613663565b9150613c2482613b97565b606082019050919050565b60006020820190508181036000830152613c4881613c0c565b9050919050565b60008160601b9050919050565b6000613c6782613c4f565b9050919050565b6000613c7982613c5c565b9050919050565b613c91613c8c82612373565b613c6e565b82525050565b6000819050919050565b613cb2613cad826124f7565b613c97565b82525050565b6000613cc48286613c80565b601482019150613cd4828561372c565b9150613ce08284613ca1565b602082019150819050949350505050565b6000608082019050613d0660008301876125a6565b613d136020830186612f96565b613d2060408301856125a6565b613d2d60608301846125a6565b95945050505050565b7f696e76616c6964207369676e6174757265206c656e6774680000000000000000600082015250565b6000613d6c601883613663565b9150613d7782613d36565b602082019050919050565b60006020820190508181036000830152613d9b81613d5f565b9050919050565b7f5468726573686f6c6420616c72656164792073657420746f207468697320766160008201527f6c75650000000000000000000000000000000000000000000000000000000000602082015250565b6000613dfe602383613663565b9150613e0982613da2565b604082019050919050565b60006020820190508181036000830152613e2d81613df1565b9050919050565b7f4f776e61626c653a206e6577206f776e657220697320746865207a65726f206160008201527f6464726573730000000000000000000000000000000000000000000000000000602082015250565b6000613e90602683613663565b9150613e9b82613e34565b604082019050919050565b60006020820190508181036000830152613ebf81613e83565b9050919050565b7f19457468657265756d205369676e6564204d6573736167653a0a333200000000600082015250565b6000613efc601c836132e5565b9150613f0782613ec6565b601c82019050919050565b6000819050919050565b613f2d613f288261259c565b613f12565b82525050565b6000613f3e82613eef565b9150613f4a8284613f1c565b60208201915081905092915050565b7f4f776e61626c653a2063616c6c6572206973206e6f7420746865206f776e6572600082015250565b6000613f8f602083613663565b9150613f9a82613f59565b602082019050919050565b60006020820190508181036000830152613fbe81613f82565b905091905056fea2646970667358221220c0a7b69336a9f1511bf63eeeb1d4f4b77878071ce42c231626781c7382c2cec164736f6c63430008120033",
  "immutableReferences": {},
  "source": "// SPDX-License-Identifier: MIT\n/**\n  * This program has been developed by students from the bachelor Computer Science at Utrecht University within the Software Project course.\n  *  Copyright Utrecht University (Department of Information and Computing Sciences)\n  */\n\npragma solidity ^0.8.0;\n\nimport \"./SignatureHelper.sol\";\nimport {Ownable} from \"@openzeppelin/contracts/access/Ownable.sol\";\n\n/// @title A contract to verify addresses\n/// @author JSC LEE\n/// @notice You can use this contract to verify addresses\ncontract GithubVerification is SignatureHelper, Ownable {\n    // Map from user to their stamps\n    mapping(address => Stamp[]) internal stamps;\n    // Map from userhash to address to make sure the userhash isn't already used by another address\n    mapping(string => address) internal stampHashMap;\n    address[] allMembers;\n\n    /// @notice The thresholdHistory array stores the history of the verifyDayThreshold variable. This is needed because we might want to check if some stamps were valid in the past.\n    Threshold[] thresholdHistory;\n\n    /// @notice The reverifyThreshold determines how long a user has to wait before they can re-verify their address, in days\n    uint64 public reverifyThreshold;\n\n    /// @notice A stamp defines proof of verification for a user on a specific platform at a specific date\n    struct Stamp {\n        string providerId; // Unique id for the provider (github, proofofhumanity, etc.)\n        string userHash; // Hash of some unique user data of the provider (username, email, etc.)\n        uint64[] verifiedAt; // Timestamps at which the user has verified\n    }\n\n    /// @notice A threshold defines the number of days for which a stamp is valid\n    struct Threshold {\n        uint64 timestamp; // Timestamp at which the threshold was set\n        uint64 threshold; // Number of days for which a stamp is valid\n    }\n\n    /// @notice Initializes the owner of the contract\n    constructor(uint64 _threshold, uint64 _reverifyThreshold) {\n        thresholdHistory.push(Threshold(uint64(block.timestamp), _threshold));\n        reverifyThreshold = _reverifyThreshold;\n    }\n\n    /// @notice This function can only be called by the owner, and it verifies an address. It's not possible to re-verify an address before half the verifyDayThreshold has passed.\n    /// @dev Verifies an address\n    /// @param _toVerify The address to verify\n    /// @param _timestamp in seconds\n    function verifyAddress(\n        address _toVerify,\n        string calldata _userHash,\n        uint64 _timestamp,\n        string calldata _providerId,\n        bytes calldata _proofSignature\n    ) external {\n        require(\n            stampHashMap[_userHash] == address(0) ||\n                stampHashMap[_userHash] == _toVerify,\n            \"ID already affiliated with another address\"\n        );\n\n        require(_toVerify != address(0), \"Address cannot be 0x0\");\n        require(\n            block.timestamp < _timestamp + 1 hours,\n            \"Proof expired, try verifying again\"\n        );\n\n        require(\n            verify(owner(), _toVerify, _userHash, _timestamp, _proofSignature),\n            \"Proof is not valid\"\n        );\n\n        // Check if there is existing stamp with providerId\n        bool found; // = false;\n        uint foundIndex; // = 0;\n\n        for (uint i; i < stamps[_toVerify].length;) {\n            if (\n                keccak256(abi.encodePacked(stamps[_toVerify][i].providerId)) ==\n                keccak256(abi.encodePacked(_providerId))\n            ) {\n                found = true;\n                foundIndex = i;\n                break;\n            }\n\n            unchecked {\n                i++;\n            }\n        }\n\n        if (!found) {\n            // Check if this is the first time this user has verified so we can add them to the allMembers list\n            if (stamps[_toVerify].length == 0) {\n                allMembers.push(_toVerify);\n            }\n\n            // Create new stamp if user does not already have a stamp for this providerId\n            stamps[_toVerify].push(\n                createStamp(_providerId, _userHash, _timestamp)\n            );\n\n            // This only needs to happens once (namely the first time an account verifies)\n            stampHashMap[_userHash] = _toVerify;\n        } else {\n            // If user already has a stamp for this providerId\n            // Check how long it has been since the last verification\n            uint64[] storage verifiedAt = stamps[_toVerify][foundIndex]\n                .verifiedAt;\n            uint64 timeSinceLastVerification = uint64(block.timestamp) -\n                verifiedAt[verifiedAt.length - 1];\n\n            // If it has been more than reverifyThreshold days, update the stamp\n            if (timeSinceLastVerification > reverifyThreshold) {\n                // Overwrite the userHash (in case the user changed their username or used another account to reverify)\n                stamps[_toVerify][foundIndex].userHash = _userHash;\n                verifiedAt.push(_timestamp);\n            } else {\n                revert(\n                    \"Address already verified; cannot re-verify yet, wait at least half the verifyDayThreshold\"\n                );\n            }\n        }\n    }\n\n    /// @notice Unverifies a provider from the sender\n    /// @param _providerId Unique id for the provider (github, proofofhumanity, etc.) to be removed\n    function unverify(string calldata _providerId) external {\n        // Assume all is good in the world\n        Stamp[] storage stampsAt = stamps[msg.sender];\n\n        // Look up the corresponding stamp for the provider\n        for (uint i; i < stampsAt.length;) {\n            if (stringsAreEqual(stampsAt[i].providerId, _providerId)) {\n                // Remove the mapping from userhash to address\n                stampHashMap[stampsAt[i].userHash] = address(0);\n\n                // Remove stamp from stamps array (we don't care about order so we can just swap and pop)\n                stampsAt[i] = stampsAt[stampsAt.length - 1];\n                stampsAt.pop();\n                return;\n            }\n\n            unchecked {\n                i++;\n            }\n        }\n\n        revert(\"Could not find this provider among your stamps; are you sure you're verified with this provider?\");\n    }\n\n    /// @dev Solidity doesn't support string comparison, so we use keccak256 to compare strings\n    function stringsAreEqual(string memory str1, string memory str2) public pure returns (bool) {\n        return keccak256(abi.encodePacked(str1)) == keccak256(abi.encodePacked(str2));\n    }\n\n    /// @notice Creates a stamp for a user\n    /// @param _providerId Unique id for the provider (github, proofofhumanity, etc.)\n    /// @param _userHash Unique user hash on the platform of the stamp (GH, PoH, etc.)\n    /// @param _timestamp Timestamp at which the proof was generated\n    /// @return Stamp Returns the created stamp\n    function createStamp(\n        string memory _providerId,\n        string memory _userHash,\n        uint64 _timestamp\n    ) internal returns (Stamp memory) {\n        uint64[] memory verifiedAt = new uint64[](1);\n        verifiedAt[0] = _timestamp;\n        Stamp memory stamp = Stamp(_providerId, _userHash, verifiedAt);\n        stampHashMap[_userHash] = msg.sender;\n        return stamp;\n    }\n\n    /// @notice This function returns the stamps of an address\n    /// @param _toCheck The address to check\n    /// @return An array of stamps\n    function getStamps(\n        address _toCheck\n    ) external view returns (Stamp[] memory) {\n        return stamps[_toCheck];\n    }\n\n    /// @notice Returns the *valid* stamps of an address at a specific timestamp\n    /// @param _toCheck The address to check\n    /// @param _timestamp The timestamp to check (seconds)\n    function getStampsAt(\n        address _toCheck,\n        uint _timestamp\n    ) external view returns (Stamp[] memory) {\n        Stamp[] memory stampsAt = new Stamp[](stamps[_toCheck].length);\n        uint count; // = 0;\n\n        // Loop through all the user's stamps\n        for (uint i; i < stamps[_toCheck].length;) {\n            // Get the list of all verification timestamps\n            uint64[] storage verifiedAt = stamps[_toCheck][i].verifiedAt;\n\n            // Get the threshold at _timestamp\n            uint currentTimestampIndex = thresholdHistory.length - 1;\n            while (\n                currentTimestampIndex > 0 &&\n                thresholdHistory[currentTimestampIndex].timestamp > _timestamp\n            ) {\n                currentTimestampIndex--;\n            }\n\n            uint64 verifyDayThreshold = thresholdHistory[currentTimestampIndex]\n                .threshold;\n\n            // Reverse for loop, because more recent dates are at the end of the array\n            for (uint j = verifiedAt.length; j > 0; j--) {\n                // If the stamp is valid at _timestamp, add it to the stampsAt array\n                if (\n                    verifiedAt[j - 1] + (verifyDayThreshold * 1 days) >\n                    _timestamp &&\n                    verifiedAt[j - 1] < _timestamp\n                ) {\n                    stampsAt[count] = stamps[_toCheck][i];\n                    count++;\n                    break;\n                } else if (\n                    verifiedAt[j - 1] + (verifyDayThreshold * 1 days) <\n                    _timestamp\n                ) {\n                    break;\n                }\n            }\n\n            unchecked {\n                i++;\n            }\n        }\n\n        Stamp[] memory stampsAtTrimmed = new Stamp[](count);\n\n        for (uint i = 0; i < count; i++) {\n            stampsAtTrimmed[i] = stampsAt[i];\n        }\n\n        return stampsAtTrimmed;\n    }\n\n    /// @notice This function can only be called by the owner to set the verifyDayThreshold\n    /// @dev Sets the verifyDayThreshold\n    /// @param _days The number of days to set the verifyDayThreshold to\n    function setVerifyDayThreshold(uint64 _days) external onlyOwner {\n        Threshold memory lastThreshold = thresholdHistory[\n            thresholdHistory.length - 1\n        ];\n        require(\n            lastThreshold.threshold != _days,\n            \"Threshold already set to this value\"\n        );\n\n        thresholdHistory.push(Threshold(uint64(block.timestamp), _days));\n    }\n\n    /// @notice Returns the full threshold history\n    /// @return An array of Threshold structs\n    function getThresholdHistory() external view returns (Threshold[] memory) {\n        return thresholdHistory;\n    }\n\n    function getAllMembers() external view returns (address[] memory) {\n        return allMembers;\n    }\n\n    /// @notice Returns whether or not the caller is or was a member at any time\n    /// @dev Loop through the array of all members and return true if the caller is found\n    /// @return bool Whether or not the caller is or was a member at any time\n    function isOrWasMember() external view returns (bool) {\n        // Loop through the member array\n        for (uint i; i < allMembers.length;) {\n            // If the member is found, return true\n            if (allMembers[i] == msg.sender) {\n                return true;\n            }\n\n            unchecked {\n                i++;\n            }\n        }\n        return false;\n    }\n\n    /// @notice This function can only be called by the owner to set the reverifyThreshold\n    /// @dev Sets the reverifyThreshold\n    /// @param _days The number of days to set the reverifyThreshold to\n    function setReverifyThreshold(uint64 _days) external onlyOwner {\n        reverifyThreshold = _days;\n    }\n}",
  "sourcePath": "/Users/mik-0/Documents/GitHub/SecureSECOVerification/block/contracts/GithubVerification.sol",
  "compiler": {
    "name": "solc",
    "version": "0.8.18+commit.87f61d96.Emscripten.clang"
  },
  "schemaVersion": "3.4.12",
  "updatedAt": "2023-05-07T18:20:45.435Z",
  "networkType": "ethereum",
  "devdoc": {
    "author": "JSC LEE",
    "kind": "dev",
    "methods": {
      "getEthSignedMessageHash(bytes32)": {
        "params": {
          "_messageHash": "The hash of the packed message (messageHash) to be signed"
        },
        "returns": {
          "_0": "bytes32 Returns the signed messageHash"
        }
      },
      "getMessageHash(address,string,uint256)": {
        "details": "This is done after packing the parameters ",
        "params": {
          "_timestamp": "Timestamp at which the proof was generated",
          "_toVerify": "The address to verify",
          "_userHash": "Unique user hash of the platform of the stamp (GH, PoH, etc.)"
        },
        "returns": {
          "_0": "bytes Returns the hash of the packed message (a.k.a. messageHash)"
        }
      },
      "getPackedMessage(address,string,uint256)": {
        "details": "This is done before the keccak256 hash",
        "params": {
          "_timestamp": "Timestamp at which the proof was generated",
          "_toVerify": "The address to verify",
          "_userHash": "Unique user hash on the platform of the stamp (GH, PoH, etc.)"
        },
        "returns": {
          "_0": "bytes Returns the packed message"
        }
      },
      "getStamps(address)": {
        "params": {
          "_toCheck": "The address to check"
        },
        "returns": {
          "_0": "An array of stamps"
        }
      },
      "getStampsAt(address,uint256)": {
        "params": {
          "_timestamp": "The timestamp to check (seconds)",
          "_toCheck": "The address to check"
        }
      },
      "getThresholdHistory()": {
        "returns": {
          "_0": "An array of Threshold structs"
        }
      },
      "isOrWasMember()": {
        "details": "Loop through the array of all members and return true if the caller is found",
        "returns": {
          "_0": "bool Whether or not the caller is or was a member at any time"
        }
      },
      "owner()": {
        "details": "Returns the address of the current owner."
      },
      "recoverSigner(bytes32,bytes)": {
        "details": "This uses ecrecover",
        "params": {
          "_ethSignedMessageHash": "The signed messageHash created from the parameters",
          "_signature": "The signature of the proof signed by the signer"
        },
        "returns": {
          "_0": "address Returns the recovered address"
        }
      },
      "renounceOwnership()": {
        "details": "Leaves the contract without owner. It will not be possible to call `onlyOwner` functions anymore. Can only be called by the current owner. NOTE: Renouncing ownership will leave the contract without an owner, thereby removing any functionality that is only available to the owner."
      },
      "setReverifyThreshold(uint64)": {
        "details": "Sets the reverifyThreshold",
        "params": {
          "_days": "The number of days to set the reverifyThreshold to"
        }
      },
      "setVerifyDayThreshold(uint64)": {
        "details": "Sets the verifyDayThreshold",
        "params": {
          "_days": "The number of days to set the verifyDayThreshold to"
        }
      },
      "splitSignature(bytes)": {
        "details": "This is necessary for the ecrecover function",
        "params": {
          "sig": "The signature"
        },
        "returns": {
          "r": "Returns the first 32 bytes of the signature",
          "s": "Returns the second 32 bytes of the signature",
          "v": "Returns the last byte of the signature"
        }
      },
      "stringsAreEqual(string,string)": {
        "details": "Solidity doesn't support string comparison, so we use keccak256 to compare strings"
      },
      "transferOwnership(address)": {
        "details": "Transfers ownership of the contract to a new account (`newOwner`). Can only be called by the current owner."
      },
      "unverify(string)": {
        "params": {
          "_providerId": "Unique id for the provider (github, proofofhumanity, etc.) to be removed"
        }
      },
      "verify(address,address,string,uint256,bytes)": {
        "details": "Generate the signed messageHash from the parameters to verify the signature against",
        "params": {
          "_signature": "The signature of the proof signed by the signer",
          "_signer": "The signer of the signature (the owner of the contract)",
          "_timestamp": "Timestamp at which the proof was generated",
          "_toVerify": "The address to verify",
          "_userHash": "Unique user hash of the platform of the stamp (GH, PoH, etc.)"
        },
        "returns": {
          "_0": "bool Returns the result of the verification, where true indicates success and false indicates failure"
        }
      },
      "verifyAddress(address,string,uint64,string,bytes)": {
        "details": "Verifies an address",
        "params": {
          "_timestamp": "in seconds",
          "_toVerify": "The address to verify"
        }
      }
    },
    "title": "A contract to verify addresses",
    "version": 1
  },
  "userdoc": {
    "kind": "user",
    "methods": {
      "constructor": {
        "notice": "Initializes the owner of the contract"
      },
      "getEthSignedMessageHash(bytes32)": {
        "notice": "Signs the messageHash with a standard prefix"
      },
      "getMessageHash(address,string,uint256)": {
        "notice": "Hashes a (packed) message using keccak256"
      },
      "getPackedMessage(address,string,uint256)": {
        "notice": "Packs three parameters (address, string, uint) into one packed message"
      },
      "getStamps(address)": {
        "notice": "This function returns the stamps of an address"
      },
      "getStampsAt(address,uint256)": {
        "notice": "Returns the *valid* stamps of an address at a specific timestamp"
      },
      "getThresholdHistory()": {
        "notice": "Returns the full threshold history"
      },
      "isOrWasMember()": {
        "notice": "Returns whether or not the caller is or was a member at any time"
      },
      "recoverSigner(bytes32,bytes)": {
        "notice": "Recover the signer from the signed messageHash and the signature"
      },
      "reverifyThreshold()": {
        "notice": "The reverifyThreshold determines how long a user has to wait before they can re-verify their address, in days"
      },
      "setReverifyThreshold(uint64)": {
        "notice": "This function can only be called by the owner to set the reverifyThreshold"
      },
      "setVerifyDayThreshold(uint64)": {
        "notice": "This function can only be called by the owner to set the verifyDayThreshold"
      },
      "splitSignature(bytes)": {
        "notice": "Splits the signature into r, s, and v"
      },
      "unverify(string)": {
        "notice": "Unverifies a provider from the sender"
      },
      "verify(address,address,string,uint256,bytes)": {
        "notice": "Verify a signature"
      },
      "verifyAddress(address,string,uint64,string,bytes)": {
        "notice": "This function can only be called by the owner, and it verifies an address. It's not possible to re-verify an address before half the verifyDayThreshold has passed."
      }
    },
    "notice": "You can use this contract to verify addresses",
    "version": 1
  }
}