{
  "contractName": "GithubVerification",
  "abi": [
    {
      "inputs": [
        {
          "internalType": "uint64",
          "name": "_threshold",
          "type": "uint64"
        },
        {
          "internalType": "uint64",
          "name": "_reverifyThreshold",
          "type": "uint64"
        }
      ],
      "stateMutability": "nonpayable",
      "type": "constructor"
    },
    {
      "inputs": [
        {
          "internalType": "bytes32",
          "name": "_messageHash",
          "type": "bytes32"
        }
      ],
      "name": "getEthSignedMessageHash",
      "outputs": [
        {
          "internalType": "bytes32",
          "name": "",
          "type": "bytes32"
        }
      ],
      "stateMutability": "pure",
      "type": "function"
    },
    {
      "inputs": [
        {
          "internalType": "address",
          "name": "_toVerify",
          "type": "address"
        },
        {
          "internalType": "string",
          "name": "_userHash",
          "type": "string"
        },
        {
          "internalType": "uint256",
          "name": "_timestamp",
          "type": "uint256"
        }
      ],
      "name": "getMessageHash",
      "outputs": [
        {
          "internalType": "bytes32",
          "name": "",
          "type": "bytes32"
        }
      ],
      "stateMutability": "pure",
      "type": "function"
    },
    {
      "inputs": [
        {
          "internalType": "address",
          "name": "_toVerify",
          "type": "address"
        },
        {
          "internalType": "string",
          "name": "_userHash",
          "type": "string"
        },
        {
          "internalType": "uint256",
          "name": "_timestamp",
          "type": "uint256"
        }
      ],
      "name": "getPackedMessage",
      "outputs": [
        {
          "internalType": "bytes",
          "name": "",
          "type": "bytes"
        }
      ],
      "stateMutability": "pure",
      "type": "function"
    },
    {
      "inputs": [
        {
          "internalType": "bytes32",
          "name": "_ethSignedMessageHash",
          "type": "bytes32"
        },
        {
          "internalType": "bytes",
          "name": "_signature",
          "type": "bytes"
        }
      ],
      "name": "recoverSigner",
      "outputs": [
        {
          "internalType": "address",
          "name": "",
          "type": "address"
        }
      ],
      "stateMutability": "pure",
      "type": "function"
    },
    {
      "inputs": [
        {
          "internalType": "bytes",
          "name": "sig",
          "type": "bytes"
        }
      ],
      "name": "splitSignature",
      "outputs": [
        {
          "internalType": "bytes32",
          "name": "r",
          "type": "bytes32"
        },
        {
          "internalType": "bytes32",
          "name": "s",
          "type": "bytes32"
        },
        {
          "internalType": "uint8",
          "name": "v",
          "type": "uint8"
        }
      ],
      "stateMutability": "pure",
      "type": "function"
    },
    {
      "inputs": [
        {
          "internalType": "address",
          "name": "_signer",
          "type": "address"
        },
        {
          "internalType": "address",
          "name": "_toVerify",
          "type": "address"
        },
        {
          "internalType": "string",
          "name": "_userHash",
          "type": "string"
        },
        {
          "internalType": "uint256",
          "name": "_timestamp",
          "type": "uint256"
        },
        {
          "internalType": "bytes",
          "name": "_signature",
          "type": "bytes"
        }
      ],
      "name": "verify",
      "outputs": [
        {
          "internalType": "bool",
          "name": "",
          "type": "bool"
        }
      ],
      "stateMutability": "pure",
      "type": "function"
    },
    {
      "inputs": [
        {
          "internalType": "address",
          "name": "_toVerify",
          "type": "address"
        },
        {
          "internalType": "string",
          "name": "_userHash",
          "type": "string"
        },
        {
          "internalType": "uint64",
          "name": "_timestamp",
          "type": "uint64"
        },
        {
          "internalType": "string",
          "name": "_providerId",
          "type": "string"
        },
        {
          "internalType": "bytes",
          "name": "_proofSignature",
          "type": "bytes"
        }
      ],
      "name": "verifyAddress",
      "outputs": [],
      "stateMutability": "nonpayable",
      "type": "function"
    },
    {
      "inputs": [
        {
          "internalType": "address",
          "name": "_toCheck",
          "type": "address"
        }
      ],
      "name": "getStamps",
      "outputs": [
        {
          "components": [
            {
              "internalType": "string",
              "name": "id",
              "type": "string"
            },
            {
              "internalType": "string",
              "name": "_hash",
              "type": "string"
            },
            {
              "internalType": "uint64[]",
              "name": "verifiedAt",
              "type": "uint64[]"
            }
          ],
          "internalType": "struct GithubVerification.Stamp[]",
          "name": "",
          "type": "tuple[]"
        }
      ],
      "stateMutability": "view",
      "type": "function"
    },
    {
      "inputs": [
        {
          "internalType": "address",
          "name": "_toCheck",
          "type": "address"
        },
        {
          "internalType": "uint256",
          "name": "_timestamp",
          "type": "uint256"
        }
      ],
      "name": "getStampsAt",
      "outputs": [
        {
          "components": [
            {
              "internalType": "string",
              "name": "id",
              "type": "string"
            },
            {
              "internalType": "string",
              "name": "_hash",
              "type": "string"
            },
            {
              "internalType": "uint64[]",
              "name": "verifiedAt",
              "type": "uint64[]"
            }
          ],
          "internalType": "struct GithubVerification.Stamp[]",
          "name": "",
          "type": "tuple[]"
        }
      ],
      "stateMutability": "view",
      "type": "function"
    },
    {
      "inputs": [
        {
          "internalType": "uint64",
          "name": "_days",
          "type": "uint64"
        }
      ],
      "name": "setVerifyDayThreshold",
      "outputs": [],
      "stateMutability": "nonpayable",
      "type": "function"
    },
    {
      "inputs": [
        {
          "internalType": "uint64",
          "name": "_days",
          "type": "uint64"
        }
      ],
      "name": "setReverifyThreshold",
      "outputs": [],
      "stateMutability": "nonpayable",
      "type": "function"
    }
  ],
  "bytecode": "0x60a06040523480156200001157600080fd5b506040516200327138038062003271833981810160405281019062000037919062000196565b600260405180604001604052804267ffffffffffffffff1681526020018467ffffffffffffffff168152509080600181540180825580915050600190039060005260206000200160009091909190915060008201518160000160006101000a81548167ffffffffffffffff021916908367ffffffffffffffff16021790555060208201518160000160086101000a81548167ffffffffffffffff021916908367ffffffffffffffff160217905550505080600360006101000a81548167ffffffffffffffff021916908367ffffffffffffffff1602179055503373ffffffffffffffffffffffffffffffffffffffff1660808173ffffffffffffffffffffffffffffffffffffffff16815250505050620001dd565b600080fd5b600067ffffffffffffffff82169050919050565b620001708162000151565b81146200017c57600080fd5b50565b600081519050620001908162000165565b92915050565b60008060408385031215620001b057620001af6200014c565b5b6000620001c0858286016200017f565b9250506020620001d3858286016200017f565b9150509250929050565b60805161306a620002076000396000818161059c01528181610efe0152611525015261306a6000f3fe608060405234801561001057600080fd5b50600436106100a95760003560e01c80637688aa9d116100715780637688aa9d1461018a57806377817529146101a657806397aba7f9146101d6578063a7bb580314610206578063ccd431e714610238578063fa54080114610254576100a9565b8063082d8f29146100ae5780631a371932146100de5780631e31549e1461010e5780634b46d6831461013e57806350c315021461015a575b600080fd5b6100c860048036038101906100c39190611b8e565b610284565b6040516100d59190611c16565b60405180910390f35b6100f860048036038101906100f39190611c31565b6102a6565b6040516101059190611ecf565b60405180910390f35b61012860048036038101906101239190611ff2565b6104f3565b60405161013591906120c3565b60405180910390f35b6101586004803603810190610153919061210a565b61059a565b005b610174600480360381019061016f9190612137565b610654565b6040516101819190611ecf565b60405180910390f35b6101a4600480360381019061019f91906121cd565b610d0c565b005b6101c060048036038101906101bb9190611b8e565b61141d565b6040516101cd91906122fe565b60405180910390f35b6101f060048036038101906101eb919061234c565b61144c565b6040516101fd91906123b7565b60405180910390f35b610220600480360381019061021b91906123d2565b6114bb565b60405161022f93929190612437565b60405180910390f35b610252600480360381019061024d919061210a565b611523565b005b61026e6004803603810190610269919061246e565b611761565b60405161027b9190611c16565b60405180910390f35b60008061029285858561141d565b905080805190602001209150509392505050565b60606000808373ffffffffffffffffffffffffffffffffffffffff1673ffffffffffffffffffffffffffffffffffffffff168152602001908152602001600020805480602002602001604051908101604052809291908181526020016000905b828210156104e85783829060005260206000209060030201604051806060016040529081600082018054610339906124ca565b80601f0160208091040260200160405190810160405280929190818152602001828054610365906124ca565b80156103b25780601f10610387576101008083540402835291602001916103b2565b820191906000526020600020905b81548152906001019060200180831161039557829003601f168201915b505050505081526020016001820180546103cb906124ca565b80601f01602080910402602001604051908101604052809291908181526020018280546103f7906124ca565b80156104445780601f1061041957610100808354040283529160200191610444565b820191906000526020600020905b81548152906001019060200180831161042757829003601f168201915b50505050508152602001600282018054806020026020016040519081016040528092919081815260200182805480156104d057602002820191906000526020600020906000905b82829054906101000a900467ffffffffffffffff1667ffffffffffffffff168152602001906008019060208260070104928301926001038202915080841161048b5790505b50505050508152505081526020019060010190610306565b505050509050919050565b6000806105458787878080601f016020809104026020016040519081016040528093929190818152602001838380828437600081840152601f19601f8201169050808301925050505050505086610284565b9050600061055282611761565b90508873ffffffffffffffffffffffffffffffffffffffff16610575828661144c565b73ffffffffffffffffffffffffffffffffffffffff1614925050509695505050505050565b7f000000000000000000000000000000000000000000000000000000000000000073ffffffffffffffffffffffffffffffffffffffff163373ffffffffffffffffffffffffffffffffffffffff1614610628576040517f08c379a000000000000000000000000000000000000000000000000000000000815260040161061f90612558565b60405180910390fd5b80600360006101000a81548167ffffffffffffffff021916908367ffffffffffffffff16021790555050565b606060008060008573ffffffffffffffffffffffffffffffffffffffff1673ffffffffffffffffffffffffffffffffffffffff1681526020019081526020016000208054905067ffffffffffffffff8111156106b3576106b2611a2d565b5b6040519080825280602002602001820160405280156106ec57816020015b6106d96118a6565b8152602001906001900390816106d15790505b5090506000805b6000808773ffffffffffffffffffffffffffffffffffffffff1673ffffffffffffffffffffffffffffffffffffffff16815260200190815260200160002080549050811015610c4f5760008060008873ffffffffffffffffffffffffffffffffffffffff1673ffffffffffffffffffffffffffffffffffffffff168152602001908152602001600020828154811061078e5761078d612578565b5b90600052602060002090600302016002019050600060016002805490506107b591906125d6565b90505b600081118015610806575086600282815481106107d8576107d7612578565b5b9060005260206000200160000160009054906101000a900467ffffffffffffffff1667ffffffffffffffff16115b1561081e5780806108169061260a565b9150506107b8565b60006002828154811061083457610833612578565b5b9060005260206000200160000160089054906101000a900467ffffffffffffffff169050603c8167ffffffffffffffff161461087357610872612633565b5b600080848054905090505b6000811115610c37578962015180846108979190612662565b866001846108a591906125d6565b815481106108b6576108b5612578565b5b90600052602060002090600491828204019190066008029054906101000a900467ffffffffffffffff166108ea919061269f565b67ffffffffffffffff161180156109525750898560018361090b91906125d6565b8154811061091c5761091b612578565b5b90600052602060002090600491828204019190066008029054906101000a900467ffffffffffffffff1667ffffffffffffffff16105b15610bab5781610ba6576000808c73ffffffffffffffffffffffffffffffffffffffff1673ffffffffffffffffffffffffffffffffffffffff16815260200190815260200160002086815481106109ac576109ab612578565b5b90600052602060002090600302016040518060600160405290816000820180546109d5906124ca565b80601f0160208091040260200160405190810160405280929190818152602001828054610a01906124ca565b8015610a4e5780601f10610a2357610100808354040283529160200191610a4e565b820191906000526020600020905b815481529060010190602001808311610a3157829003601f168201915b50505050508152602001600182018054610a67906124ca565b80601f0160208091040260200160405190810160405280929190818152602001828054610a93906124ca565b8015610ae05780601f10610ab557610100808354040283529160200191610ae0565b820191906000526020600020905b815481529060010190602001808311610ac357829003601f168201915b5050505050815260200160028201805480602002602001604051908101604052809291908181526020018280548015610b6c57602002820191906000526020600020906000905b82829054906101000a900467ffffffffffffffff1667ffffffffffffffff1681526020019060080190602082600701049283019260010382029150808411610b275790505b505050505081525050888881518110610b8857610b87612578565b5b60200260200101819052508680610b9e906126db565b975050600191505b610c24565b896201518084610bbb9190612662565b86600184610bc991906125d6565b81548110610bda57610bd9612578565b5b90600052602060002090600491828204019190066008029054906101000a900467ffffffffffffffff16610c0e919061269f565b67ffffffffffffffff161015610c2357600191505b5b8080610c2f9061260a565b91505061087e565b50505050508080610c47906126db565b9150506106f3565b5060008167ffffffffffffffff811115610c6c57610c6b611a2d565b5b604051908082528060200260200182016040528015610ca557816020015b610c926118a6565b815260200190600190039081610c8a5790505b50905060005b82811015610cff57838181518110610cc657610cc5612578565b5b6020026020010151828281518110610ce157610ce0612578565b5b60200260200101819052508080610cf7906126db565b915050610cab565b5080935050505092915050565b600073ffffffffffffffffffffffffffffffffffffffff1660018888604051610d36929190612753565b908152602001604051809103902060009054906101000a900473ffffffffffffffffffffffffffffffffffffffff1673ffffffffffffffffffffffffffffffffffffffff161480610df257508773ffffffffffffffffffffffffffffffffffffffff1660018888604051610dab929190612753565b908152602001604051809103902060009054906101000a900473ffffffffffffffffffffffffffffffffffffffff1673ffffffffffffffffffffffffffffffffffffffff16145b610e31576040517f08c379a0000000000000000000000000000000000000000000000000000000008152600401610e28906127de565b60405180910390fd5b600073ffffffffffffffffffffffffffffffffffffffff168873ffffffffffffffffffffffffffffffffffffffff1603610ea0576040517f08c379a0000000000000000000000000000000000000000000000000000000008152600401610e979061284a565b60405180910390fd5b610e1085610eae919061269f565b67ffffffffffffffff164210610ef9576040517f08c379a0000000000000000000000000000000000000000000000000000000008152600401610ef0906128dc565b60405180910390fd5b610f757f00000000000000000000000000000000000000000000000000000000000000008989898967ffffffffffffffff1687878080601f016020809104026020016040519081016040528093929190818152602001838380828437600081840152601f19601f820116905080830192505050505050506104f3565b610fb4576040517f08c379a0000000000000000000000000000000000000000000000000000000008152600401610fab90612948565b60405180910390fd5b60008060005b6000808c73ffffffffffffffffffffffffffffffffffffffff1673ffffffffffffffffffffffffffffffffffffffff168152602001908152602001600020805490508110156110d7578686604051602001611016929190612753565b604051602081830303815290604052805190602001206000808d73ffffffffffffffffffffffffffffffffffffffff1673ffffffffffffffffffffffffffffffffffffffff168152602001908152602001600020828154811061107c5761107b612578565b5b906000526020600020906003020160000160405160200161109d9190612a00565b60405160208183030381529060405280519060200120036110c457600192508091506110d7565b80806110cf906126db565b915050610fba565b5081611227576000808b73ffffffffffffffffffffffffffffffffffffffff1673ffffffffffffffffffffffffffffffffffffffff1681526020019081526020016000206111ae87878080601f016020809104026020016040519081016040528093929190818152602001838380828437600081840152601f19601f820116905080830192505050505050508b8b8080601f016020809104026020016040519081016040528093929190818152602001838380828437600081840152601f19601f820116905080830192505050505050508a611791565b908060018154018082558091505060019003906000526020600020906003020160009091909190915060008201518160000190816111ec9190612bae565b5060208201518160010190816112029190612bae565b50604082015181600201908051906020019061121f9291906118c7565b5050506113b2565b60008060008c73ffffffffffffffffffffffffffffffffffffffff1673ffffffffffffffffffffffffffffffffffffffff168152602001908152602001600020828154811061127957611278612578565b5b90600052602060002090600302016002019050600081600183805490506112a091906125d6565b815481106112b1576112b0612578565b5b90600052602060002090600491828204019190066008029054906101000a900467ffffffffffffffff16426112e69190612c80565b9050600360009054906101000a900467ffffffffffffffff1667ffffffffffffffff168167ffffffffffffffff16111561137457818990806001815401808255809150506001900390600052602060002090600491828204019190066008029091909190916101000a81548167ffffffffffffffff021916908367ffffffffffffffff1602179055506113af565b6040517f08c379a00000000000000000000000000000000000000000000000000000000081526004016113a690612d54565b60405180910390fd5b50505b8960018a8a6040516113c5929190612753565b908152602001604051809103902060006101000a81548173ffffffffffffffffffffffffffffffffffffffff021916908373ffffffffffffffffffffffffffffffffffffffff16021790555050505050505050505050565b606083838360405160200161143493929190612e0e565b60405160208183030381529060405290509392505050565b60008060008061145b856114bb565b925092509250600186828585604051600081526020016040526040516114849493929190612e47565b6020604051602081039080840390855afa1580156114a6573d6000803e3d6000fd5b50505060206040510351935050505092915050565b60008060006041845114611504576040517f08c379a00000000000000000000000000000000000000000000000000000000081526004016114fb90612ed8565b60405180910390fd5b6020840151925060408401519150606084015160001a90509193909250565b7f000000000000000000000000000000000000000000000000000000000000000073ffffffffffffffffffffffffffffffffffffffff163373ffffffffffffffffffffffffffffffffffffffff16146115b1576040517f08c379a00000000000000000000000000000000000000000000000000000000081526004016115a890612558565b60405180910390fd5b6000600260016002805490506115c791906125d6565b815481106115d8576115d7612578565b5b906000526020600020016040518060400160405290816000820160009054906101000a900467ffffffffffffffff1667ffffffffffffffff1667ffffffffffffffff1681526020016000820160089054906101000a900467ffffffffffffffff1667ffffffffffffffff1667ffffffffffffffff168152505090508167ffffffffffffffff16816020015167ffffffffffffffff16036116ad576040517f08c379a00000000000000000000000000000000000000000000000000000000081526004016116a490612f6a565b60405180910390fd5b600260405180604001604052804267ffffffffffffffff1681526020018467ffffffffffffffff168152509080600181540180825580915050600190039060005260206000200160009091909190915060008201518160000160006101000a81548167ffffffffffffffff021916908367ffffffffffffffff16021790555060208201518160000160086101000a81548167ffffffffffffffff021916908367ffffffffffffffff16021790555050505050565b6000816040516020016117749190612ff7565b604051602081830303815290604052805190602001209050919050565b6117996118a6565b6000600167ffffffffffffffff8111156117b6576117b5611a2d565b5b6040519080825280602002602001820160405280156117e45781602001602082028036833780820191505090505b50905082816000815181106117fc576117fb612578565b5b602002602001019067ffffffffffffffff16908167ffffffffffffffff1681525050600060405180606001604052808781526020018681526020018381525090503360018660405161184e919061301d565b908152602001604051809103902060006101000a81548173ffffffffffffffffffffffffffffffffffffffff021916908373ffffffffffffffffffffffffffffffffffffffff16021790555080925050509392505050565b60405180606001604052806060815260200160608152602001606081525090565b828054828255906000526020600020906003016004900481019282156119725791602002820160005b8382111561193c57835183826101000a81548167ffffffffffffffff021916908367ffffffffffffffff16021790555092602001926008016020816007010492830192600103026118f0565b80156119705782816101000a81549067ffffffffffffffff021916905560080160208160070104928301926001030261193c565b505b50905061197f9190611983565b5090565b5b8082111561199c576000816000905550600101611984565b5090565b6000604051905090565b600080fd5b600080fd5b600073ffffffffffffffffffffffffffffffffffffffff82169050919050565b60006119df826119b4565b9050919050565b6119ef816119d4565b81146119fa57600080fd5b50565b600081359050611a0c816119e6565b92915050565b600080fd5b600080fd5b6000601f19601f8301169050919050565b7f4e487b7100000000000000000000000000000000000000000000000000000000600052604160045260246000fd5b611a6582611a1c565b810181811067ffffffffffffffff82111715611a8457611a83611a2d565b5b80604052505050565b6000611a976119a0565b9050611aa38282611a5c565b919050565b600067ffffffffffffffff821115611ac357611ac2611a2d565b5b611acc82611a1c565b9050602081019050919050565b82818337600083830152505050565b6000611afb611af684611aa8565b611a8d565b905082815260208101848484011115611b1757611b16611a17565b5b611b22848285611ad9565b509392505050565b600082601f830112611b3f57611b3e611a12565b5b8135611b4f848260208601611ae8565b91505092915050565b6000819050919050565b611b6b81611b58565b8114611b7657600080fd5b50565b600081359050611b8881611b62565b92915050565b600080600060608486031215611ba757611ba66119aa565b5b6000611bb5868287016119fd565b935050602084013567ffffffffffffffff811115611bd657611bd56119af565b5b611be286828701611b2a565b9250506040611bf386828701611b79565b9150509250925092565b6000819050919050565b611c1081611bfd565b82525050565b6000602082019050611c2b6000830184611c07565b92915050565b600060208284031215611c4757611c466119aa565b5b6000611c55848285016119fd565b91505092915050565b600081519050919050565b600082825260208201905092915050565b6000819050602082019050919050565b600081519050919050565b600082825260208201905092915050565b60005b83811015611cc4578082015181840152602081019050611ca9565b60008484015250505050565b6000611cdb82611c8a565b611ce58185611c95565b9350611cf5818560208601611ca6565b611cfe81611a1c565b840191505092915050565b600081519050919050565b600082825260208201905092915050565b6000819050602082019050919050565b600067ffffffffffffffff82169050919050565b611d5281611d35565b82525050565b6000611d648383611d49565b60208301905092915050565b6000602082019050919050565b6000611d8882611d09565b611d928185611d14565b9350611d9d83611d25565b8060005b83811015611dce578151611db58882611d58565b9750611dc083611d70565b925050600181019050611da1565b5085935050505092915050565b60006060830160008301518482036000860152611df88282611cd0565b91505060208301518482036020860152611e128282611cd0565b91505060408301518482036040860152611e2c8282611d7d565b9150508091505092915050565b6000611e458383611ddb565b905092915050565b6000602082019050919050565b6000611e6582611c5e565b611e6f8185611c69565b935083602082028501611e8185611c7a565b8060005b85811015611ebd5784840389528151611e9e8582611e39565b9450611ea983611e4d565b925060208a01995050600181019050611e85565b50829750879550505050505092915050565b60006020820190508181036000830152611ee98184611e5a565b905092915050565b600080fd5b600080fd5b60008083601f840112611f1157611f10611a12565b5b8235905067ffffffffffffffff811115611f2e57611f2d611ef1565b5b602083019150836001820283011115611f4a57611f49611ef6565b5b9250929050565b600067ffffffffffffffff821115611f6c57611f6b611a2d565b5b611f7582611a1c565b9050602081019050919050565b6000611f95611f9084611f51565b611a8d565b905082815260208101848484011115611fb157611fb0611a17565b5b611fbc848285611ad9565b509392505050565b600082601f830112611fd957611fd8611a12565b5b8135611fe9848260208601611f82565b91505092915050565b60008060008060008060a0878903121561200f5761200e6119aa565b5b600061201d89828a016119fd565b965050602061202e89828a016119fd565b955050604087013567ffffffffffffffff81111561204f5761204e6119af565b5b61205b89828a01611efb565b9450945050606061206e89828a01611b79565b925050608087013567ffffffffffffffff81111561208f5761208e6119af565b5b61209b89828a01611fc4565b9150509295509295509295565b60008115159050919050565b6120bd816120a8565b82525050565b60006020820190506120d860008301846120b4565b92915050565b6120e781611d35565b81146120f257600080fd5b50565b600081359050612104816120de565b92915050565b6000602082840312156121205761211f6119aa565b5b600061212e848285016120f5565b91505092915050565b6000806040838503121561214e5761214d6119aa565b5b600061215c858286016119fd565b925050602061216d85828601611b79565b9150509250929050565b60008083601f84011261218d5761218c611a12565b5b8235905067ffffffffffffffff8111156121aa576121a9611ef1565b5b6020830191508360018202830111156121c6576121c5611ef6565b5b9250929050565b60008060008060008060008060a0898b0312156121ed576121ec6119aa565b5b60006121fb8b828c016119fd565b985050602089013567ffffffffffffffff81111561221c5761221b6119af565b5b6122288b828c01611efb565b9750975050604061223b8b828c016120f5565b955050606089013567ffffffffffffffff81111561225c5761225b6119af565b5b6122688b828c01611efb565b9450945050608089013567ffffffffffffffff81111561228b5761228a6119af565b5b6122978b828c01612177565b92509250509295985092959890939650565b600081519050919050565b600082825260208201905092915050565b60006122d0826122a9565b6122da81856122b4565b93506122ea818560208601611ca6565b6122f381611a1c565b840191505092915050565b6000602082019050818103600083015261231881846122c5565b905092915050565b61232981611bfd565b811461233457600080fd5b50565b60008135905061234681612320565b92915050565b60008060408385031215612363576123626119aa565b5b600061237185828601612337565b925050602083013567ffffffffffffffff811115612392576123916119af565b5b61239e85828601611fc4565b9150509250929050565b6123b1816119d4565b82525050565b60006020820190506123cc60008301846123a8565b92915050565b6000602082840312156123e8576123e76119aa565b5b600082013567ffffffffffffffff811115612406576124056119af565b5b61241284828501611fc4565b91505092915050565b600060ff82169050919050565b6124318161241b565b82525050565b600060608201905061244c6000830186611c07565b6124596020830185611c07565b6124666040830184612428565b949350505050565b600060208284031215612484576124836119aa565b5b600061249284828501612337565b91505092915050565b7f4e487b7100000000000000000000000000000000000000000000000000000000600052602260045260246000fd5b600060028204905060018216806124e257607f821691505b6020821081036124f5576124f461249b565b5b50919050565b600082825260208201905092915050565b7f4f776e61626c653a2063616c6c6572206973206e6f7420746865206f776e6572600082015250565b60006125426020836124fb565b915061254d8261250c565b602082019050919050565b6000602082019050818103600083015261257181612535565b9050919050565b7f4e487b7100000000000000000000000000000000000000000000000000000000600052603260045260246000fd5b7f4e487b7100000000000000000000000000000000000000000000000000000000600052601160045260246000fd5b60006125e182611b58565b91506125ec83611b58565b9250828203905081811115612604576126036125a7565b5b92915050565b600061261582611b58565b915060008203612628576126276125a7565b5b600182039050919050565b7f4e487b7100000000000000000000000000000000000000000000000000000000600052600160045260246000fd5b600061266d82611d35565b915061267883611d35565b925082820261268681611d35565b9150808214612698576126976125a7565b5b5092915050565b60006126aa82611d35565b91506126b583611d35565b9250828201905067ffffffffffffffff8111156126d5576126d46125a7565b5b92915050565b60006126e682611b58565b91507fffffffffffffffffffffffffffffffffffffffffffffffffffffffffffffffff8203612718576127176125a7565b5b600182019050919050565b600081905092915050565b600061273a8385612723565b9350612747838584611ad9565b82840190509392505050565b600061276082848661272e565b91508190509392505050565b7f494420616c726561647920616666696c6961746564207769746820616e6f746860008201527f6572206164647265737300000000000000000000000000000000000000000000602082015250565b60006127c8602a836124fb565b91506127d38261276c565b604082019050919050565b600060208201905081810360008301526127f7816127bb565b9050919050565b7f416464726573732063616e6e6f74206265203078300000000000000000000000600082015250565b60006128346015836124fb565b915061283f826127fe565b602082019050919050565b6000602082019050818103600083015261286381612827565b9050919050565b7f50726f6f6620657870697265642c2074727920766572696679696e672061676160008201527f696e000000000000000000000000000000000000000000000000000000000000602082015250565b60006128c66022836124fb565b91506128d18261286a565b604082019050919050565b600060208201905081810360008301526128f5816128b9565b9050919050565b7f50726f6f66206973206e6f742076616c69640000000000000000000000000000600082015250565b60006129326012836124fb565b915061293d826128fc565b602082019050919050565b6000602082019050818103600083015261296181612925565b9050919050565b60008190508160005260206000209050919050565b6000815461298a816124ca565b6129948186612723565b945060018216600081146129af57600181146129c4576129f7565b60ff19831686528115158202860193506129f7565b6129cd85612968565b60005b838110156129ef578154818901526001820191506020810190506129d0565b838801955050505b50505092915050565b6000612a0c828461297d565b915081905092915050565b60006020601f8301049050919050565b600082821b905092915050565b600060088302612a647fffffffffffffffffffffffffffffffffffffffffffffffffffffffffffffffff82612a27565b612a6e8683612a27565b95508019841693508086168417925050509392505050565b6000819050919050565b6000612aab612aa6612aa184611b58565b612a86565b611b58565b9050919050565b6000819050919050565b612ac583612a90565b612ad9612ad182612ab2565b848454612a34565b825550505050565b600090565b612aee612ae1565b612af9818484612abc565b505050565b5b81811015612b1d57612b12600082612ae6565b600181019050612aff565b5050565b601f821115612b6257612b3381612968565b612b3c84612a17565b81016020851015612b4b578190505b612b5f612b5785612a17565b830182612afe565b50505b505050565b600082821c905092915050565b6000612b8560001984600802612b67565b1980831691505092915050565b6000612b9e8383612b74565b9150826002028217905092915050565b612bb782611c8a565b67ffffffffffffffff811115612bd057612bcf611a2d565b5b612bda82546124ca565b612be5828285612b21565b600060209050601f831160018114612c185760008415612c06578287015190505b612c108582612b92565b865550612c78565b601f198416612c2686612968565b60005b82811015612c4e57848901518255600182019150602085019450602081019050612c29565b86831015612c6b5784890151612c67601f891682612b74565b8355505b6001600288020188555050505b505050505050565b6000612c8b82611d35565b9150612c9683611d35565b9250828203905067ffffffffffffffff811115612cb657612cb56125a7565b5b92915050565b7f4164647265737320616c72656164792076657269666965643b2063616e6e6f7460008201527f2072652d766572696679207965742c2077616974206174206c6561737420686160208201527f6c6620746865207665726966794461795468726573686f6c6400000000000000604082015250565b6000612d3e6059836124fb565b9150612d4982612cbc565b606082019050919050565b60006020820190508181036000830152612d6d81612d31565b9050919050565b60008160601b9050919050565b6000612d8c82612d74565b9050919050565b6000612d9e82612d81565b9050919050565b612db6612db1826119d4565b612d93565b82525050565b6000612dc782611c8a565b612dd18185612723565b9350612de1818560208601611ca6565b80840191505092915050565b6000819050919050565b612e08612e0382611b58565b612ded565b82525050565b6000612e1a8286612da5565b601482019150612e2a8285612dbc565b9150612e368284612df7565b602082019150819050949350505050565b6000608082019050612e5c6000830187611c07565b612e696020830186612428565b612e766040830185611c07565b612e836060830184611c07565b95945050505050565b7f696e76616c6964207369676e6174757265206c656e6774680000000000000000600082015250565b6000612ec26018836124fb565b9150612ecd82612e8c565b602082019050919050565b60006020820190508181036000830152612ef181612eb5565b9050919050565b7f5468726573686f6c6420616c72656164792073657420746f207468697320766160008201527f6c75650000000000000000000000000000000000000000000000000000000000602082015250565b6000612f546023836124fb565b9150612f5f82612ef8565b604082019050919050565b60006020820190508181036000830152612f8381612f47565b9050919050565b7f19457468657265756d205369676e6564204d6573736167653a0a333200000000600082015250565b6000612fc0601c83612723565b9150612fcb82612f8a565b601c82019050919050565b6000819050919050565b612ff1612fec82611bfd565b612fd6565b82525050565b600061300282612fb3565b915061300e8284612fe0565b60208201915081905092915050565b60006130298284612dbc565b91508190509291505056fea26469706673582212204b36d676700cb7b56875dfa48683802487baf7849dcad4425af17ae38c4c2d8c64736f6c63430008120033",
  "immutableReferences": {
    "30": [
      {
        "length": 32,
        "start": 1436
      },
      {
        "length": 32,
        "start": 3838
      },
      {
        "length": 32,
        "start": 5413
      }
    ]
  },
  "source": "// SPDX-License-Identifier: MIT\r\npragma solidity ^0.8.0;\r\n\r\nimport \"./SignatureHelper.sol\";\r\n\r\nerror Bababooey(uint64 verifiedAt);\r\n\r\n/// @title A contract to verify addresses\r\n/// @author JSC LEE\r\n/// @notice You can use this contract to verify addresses\r\ncontract GithubVerification is SignatureHelper {\r\n    mapping(address => Stamp[]) internal stamps;\r\n    mapping(string => address) internal stampHashMap;\r\n\r\n    /// @notice The thresholdHistory array stores the history of the verifyDayThreshold variable. This is needed because we might want to check if some stamps were valid in the past.\r\n    Threshold[] thresholdHistory;\r\n\r\n    /// @notice The reverifyThreshold determines how long a user has to wait before they can re-verify their address, in days\r\n    uint64 reverifyThreshold;\r\n\r\n    /// @notice Owner of the contract, can call specific functions to manage variables like the reverifyThreshold\r\n    address private immutable _owner;\r\n\r\n    /// @notice A stamp defines proof of verification for a user on a specific platform at a specific date\r\n    struct Stamp {\r\n        string id; // Unique id for the provider (github, proofofhumanity, etc.)\r\n        string _hash; // Hash of some unique user data of the provider (username, email, etc.)\r\n        uint64[] verifiedAt; // Timestamps at which the user has verified\r\n    }\r\n\r\n    /// @notice A threshold defines the number of days for which a stamp is valid\r\n    struct Threshold {\r\n        uint64 timestamp; // Timestamp at which the threshold was set\r\n        uint64 threshold; // Number of days for which a stamp is valid\r\n    }\r\n\r\n    /// @notice This constructor sets the owner of the contract\r\n    constructor (uint64 _threshold, uint64 _reverifyThreshold) {\r\n        thresholdHistory.push(Threshold(uint64(block.timestamp), _threshold));\r\n        reverifyThreshold = _reverifyThreshold;\r\n        _owner = msg.sender;\r\n    }\r\n\r\n    /// @notice This function can only be called by the owner, and it verifies an address. It's not possible to re-verofuy an address before half the verifyDayThreshold has passed.\r\n    /// @dev Verifies an address\r\n    /// @param _toVerify The address to verify\r\n    /// @param _timestamp in seconds\r\n    function verifyAddress(\r\n        address _toVerify,\r\n        string calldata _userHash,\r\n        uint64 _timestamp,\r\n        string calldata _providerId,\r\n        bytes calldata _proofSignature\r\n    ) external {\r\n        require(\r\n            stampHashMap[_userHash] == address(0) ||\r\n                stampHashMap[_userHash] == _toVerify,\r\n            \"ID already affiliated with another address\"\r\n        );\r\n\r\n        require(_toVerify != address(0), \"Address cannot be 0x0\");\r\n        require(\r\n            block.timestamp < _timestamp + 1 hours,\r\n            \"Proof expired, try verifying again\"\r\n        );\r\n\r\n        require(\r\n            verify(_owner, _toVerify, _userHash, _timestamp, _proofSignature),\r\n            \"Proof is not valid\"\r\n        );\r\n\r\n        // Check if there is existing stamp with providerId\r\n        bool found = false;\r\n        uint foundIndex = 0;\r\n\r\n        for (uint i = 0; i < stamps[_toVerify].length; i++) {\r\n            if (\r\n                keccak256(abi.encodePacked(stamps[_toVerify][i].id)) ==\r\n                keccak256(abi.encodePacked(_providerId))\r\n            ) {\r\n                found = true;\r\n                foundIndex = i;\r\n                break;\r\n            }\r\n        }\r\n\r\n        if (!found) {\r\n            // Create new stamp if user does not already have a stamp for this providerId\r\n            stamps[_toVerify].push(createStamp(_providerId, _userHash, _timestamp));\r\n        } else { // If user already has a stamp for this providerId\r\n            // Check how long it has been since the last verification\r\n            uint64[] storage verifiedAt = stamps[_toVerify][foundIndex].verifiedAt;\r\n            uint64 timeSinceLastVerification = uint64(block.timestamp) -\r\n                verifiedAt[verifiedAt.length - 1];\r\n\r\n            // If it has been more than reverifyThreshold days, update the stamp\r\n            if (timeSinceLastVerification > reverifyThreshold) {\r\n                verifiedAt.push(_timestamp);\r\n            } else {\r\n                revert(\r\n                    \"Address already verified; cannot re-verify yet, wait at least half the verifyDayThreshold\"\r\n                );\r\n            }\r\n        }\r\n\r\n        stampHashMap[_userHash] = _toVerify;\r\n    }\r\n\r\n    /// @notice Creates a stamp for a user\r\n    /// @param _providerId Unique id for the provider (github, proofofhumanity, etc.)\r\n    /// @param _userHash Unique user hash on the platform of the stamp (GH, PoH, etc.)\r\n    /// @param _timestamp Timestamp at which the proof was generated\r\n    /// @return Stamp Returns the created stamp\r\n    function createStamp(\r\n        string memory _providerId,\r\n        string memory _userHash,\r\n        uint64 _timestamp\r\n    ) internal returns (Stamp memory) {\r\n        uint64[] memory verifiedAt = new uint64[](1);\r\n        verifiedAt[0] = _timestamp;\r\n        Stamp memory stamp = Stamp(_providerId, _userHash, verifiedAt);\r\n        stampHashMap[_userHash] = msg.sender;\r\n        return stamp;\r\n    }\r\n\r\n    /// @notice This function returns the stamps of an address\r\n    /// @param _toCheck The address to check\r\n    /// @return An array of stamps\r\n    function getStamps(\r\n        address _toCheck\r\n    ) external view returns (Stamp[] memory) {\r\n        return stamps[_toCheck];\r\n    }\r\n\r\n    /// @notice This function returns the *valid* stamps of an address at a specific timestamp\r\n    /// @param _toCheck The address to check\r\n    /// @param _timestamp The timestamp to check (seconds)\r\n    function getStampsAt(\r\n        address _toCheck,\r\n        uint _timestamp\r\n    ) external view returns (Stamp[] memory) {\r\n        Stamp[] memory stampsAt = new Stamp[](stamps[_toCheck].length);\r\n        uint count = 0;\r\n\r\n        // Loop through all the user's stamps\r\n        for (uint i = 0; i < stamps[_toCheck].length; i++) {\r\n\r\n            // Get the list of all verification timestamps\r\n            uint64[] storage verifiedAt = stamps[_toCheck][i].verifiedAt;\r\n\r\n            // // Get the threshold at _timestamp\r\n            uint currentTimestampIndex = thresholdHistory.length - 1;\r\n            while (currentTimestampIndex > 0 && thresholdHistory[currentTimestampIndex].timestamp > _timestamp) {\r\n                currentTimestampIndex--;\r\n            }\r\n\r\n            uint64 verifyDayThreshold = thresholdHistory[currentTimestampIndex].threshold;\r\n            assert(verifyDayThreshold == 60);\r\n\r\n            bool found = false;\r\n            // Reverse for loop, because more recent dates are at the end of the array\r\n            for (uint j = verifiedAt.length; j > 0; j--) {\r\n                // require(j - 1 == 1, \"j==1\");\r\n                // !(verifiedAt[j - 1] + verifyDayThreshold * 1 days > uint64(_timestamp))) {\r\n                //     revert Bababooey(uint64(_timestamp));\r\n                // } \r\n\r\n                // If the stamp is valid at _timestamp, add it to the stampsAt array\r\n                if (verifiedAt[j - 1] + (verifyDayThreshold * 1 days) > _timestamp && verifiedAt[j - 1] < _timestamp) {\r\n                    if (!found) {\r\n                        stampsAt[count] = stamps[_toCheck][i];\r\n                        count++;\r\n                        found = true;\r\n                    }\r\n                } else if (verifiedAt[j - 1] + (verifyDayThreshold * 1 days) < _timestamp) {\r\n                    found = true;\r\n                }\r\n            }\r\n        }\r\n\r\n        Stamp[] memory stampsAtTrimmed = new Stamp[](count);\r\n\r\n        for (uint i = 0; i < count; i++) {\r\n            stampsAtTrimmed[i] = stampsAt[i];\r\n        }\r\n\r\n        return stampsAtTrimmed;\r\n    }\r\n    \r\n    /// @notice This function can only be called by the owner to set the verifyDayThreshold\r\n    /// @dev Sets the verifyDayThreshold\r\n    /// @param _days The number of days to set the verifyDayThreshold to\r\n    function setVerifyDayThreshold(uint64 _days) external onlyOwner {\r\n        Threshold memory lastThreshold = thresholdHistory[thresholdHistory.length - 1];\r\n        require(lastThreshold.threshold != _days, \"Threshold already set to this value\");\r\n        \r\n        thresholdHistory.push(Threshold(uint64(block.timestamp), _days));\r\n    }\r\n\r\n    /// @notice This function can only be called by the owner to set the reverifyThreshold\r\n    /// @dev Sets the reverifyThreshold\r\n    /// @param _days The number of days to set the reverifyThreshold to\r\n    function setReverifyThreshold(uint64 _days) external onlyOwner {\r\n        reverifyThreshold = _days;\r\n    }\r\n\r\n    /// @notice This modifier makes it so that only the owner can call a function\r\n    modifier onlyOwner() {\r\n        require(msg.sender == _owner, \"Ownable: caller is not the owner\");\r\n        _;\r\n    }\r\n}\r\n",
  "sourcePath": "C:\\Users\\Monkey D. Dragon\\Documents\\GitHub\\SecureSECOVerification\\block\\contracts\\GithubVerification.sol",
  "compiler": {
    "name": "solc",
    "version": "0.8.18+commit.87f61d96.Emscripten.clang"
  },
  "schemaVersion": "3.4.13",
  "updatedAt": "2023-04-04T12:10:57.911Z",
  "devdoc": {
    "author": "JSC LEE",
    "kind": "dev",
    "methods": {
      "getEthSignedMessageHash(bytes32)": {
        "params": {
          "_messageHash": "The hash of the packed message (messageHash) to be signed"
        },
        "returns": {
          "_0": "bytes32 Returns the signed messageHash"
        }
      },
      "getMessageHash(address,string,uint256)": {
        "details": "This is done after packing the parameters ",
        "params": {
          "_timestamp": "Timestamp at which the proof was generated",
          "_toVerify": "The address to verify",
          "_userHash": "Unique user hash of the platform of the stamp (GH, PoH, etc.)"
        },
        "returns": {
          "_0": "bytes Returns the hash of the packed message (a.k.a. messageHash)"
        }
      },
      "getPackedMessage(address,string,uint256)": {
        "details": "This is done before the keccak256 hash",
        "params": {
          "_timestamp": "Timestamp at which the proof was generated",
          "_toVerify": "The address to verify",
          "_userHash": "Unique user hash on the platform of the stamp (GH, PoH, etc.)"
        },
        "returns": {
          "_0": "bytes Returns the packed message"
        }
      },
      "getStamps(address)": {
        "params": {
          "_toCheck": "The address to check"
        },
        "returns": {
          "_0": "An array of stamps"
        }
      },
      "getStampsAt(address,uint256)": {
        "params": {
          "_timestamp": "The timestamp to check (seconds)",
          "_toCheck": "The address to check"
        }
      },
      "recoverSigner(bytes32,bytes)": {
        "details": "This uses ecrecover",
        "params": {
          "_ethSignedMessageHash": "The signed messageHash created from the parameters",
          "_signature": "The signature of the proof signed by the signer"
        },
        "returns": {
          "_0": "address Returns the recovered address"
        }
      },
      "setReverifyThreshold(uint64)": {
        "details": "Sets the reverifyThreshold",
        "params": {
          "_days": "The number of days to set the reverifyThreshold to"
        }
      },
      "setVerifyDayThreshold(uint64)": {
        "details": "Sets the verifyDayThreshold",
        "params": {
          "_days": "The number of days to set the verifyDayThreshold to"
        }
      },
      "splitSignature(bytes)": {
        "details": "This is necessary for the ecrecover function",
        "params": {
          "sig": "The signature"
        },
        "returns": {
          "r": "Returns the first 32 bytes of the signature",
          "s": "Returns the second 32 bytes of the signature",
          "v": "Returns the last byte of the signature"
        }
      },
      "verify(address,address,string,uint256,bytes)": {
        "details": "Generate the signed messageHash from the parameters to verify the signature against",
        "params": {
          "_signature": "The signature of the proof signed by the signer",
          "_signer": "The signer of the signature (the owner of the contract)",
          "_timestamp": "Timestamp at which the proof was generated",
          "_toVerify": "The address to verify",
          "_userHash": "Unique user hash of the platform of the stamp (GH, PoH, etc.)"
        },
        "returns": {
          "_0": "bool Returns the result of the verification, where true indicates success and false indicates failure"
        }
      },
      "verifyAddress(address,string,uint64,string,bytes)": {
        "details": "Verifies an address",
        "params": {
          "_timestamp": "in seconds",
          "_toVerify": "The address to verify"
        }
      }
    },
    "title": "A contract to verify addresses",
    "version": 1
  },
  "userdoc": {
    "kind": "user",
    "methods": {
      "constructor": {
        "notice": "This constructor sets the owner of the contract"
      },
      "getEthSignedMessageHash(bytes32)": {
        "notice": "Signs the messageHash with a standard prefix"
      },
      "getMessageHash(address,string,uint256)": {
        "notice": "Hashes a (packed) message using keccak256"
      },
      "getPackedMessage(address,string,uint256)": {
        "notice": "Packs three parameters (address, string, uint) into one packed message"
      },
      "getStamps(address)": {
        "notice": "This function returns the stamps of an address"
      },
      "getStampsAt(address,uint256)": {
        "notice": "This function returns the *valid* stamps of an address at a specific timestamp"
      },
      "recoverSigner(bytes32,bytes)": {
        "notice": "Recover the signer from the signed messageHash and the signature"
      },
      "setReverifyThreshold(uint64)": {
        "notice": "This function can only be called by the owner to set the reverifyThreshold"
      },
      "setVerifyDayThreshold(uint64)": {
        "notice": "This function can only be called by the owner to set the verifyDayThreshold"
      },
      "splitSignature(bytes)": {
        "notice": "Splits the signature into r, s, and v"
      },
      "verify(address,address,string,uint256,bytes)": {
        "notice": "Verify a signature"
      },
      "verifyAddress(address,string,uint64,string,bytes)": {
        "notice": "This function can only be called by the owner, and it verifies an address. It's not possible to re-verofuy an address before half the verifyDayThreshold has passed."
      }
    },
    "notice": "You can use this contract to verify addresses",
    "version": 1
  }
}