{
  "contractName": "SignatureHelper",
  "abi": [
    {
      "inputs": [
        {
          "internalType": "address",
          "name": "_toVerify",
          "type": "address"
        },
        {
          "internalType": "string",
          "name": "_userHash",
          "type": "string"
        },
        {
          "internalType": "uint256",
          "name": "_timestamp",
          "type": "uint256"
        }
      ],
      "name": "getMessageHash",
      "outputs": [
        {
          "internalType": "bytes32",
          "name": "",
          "type": "bytes32"
        }
      ],
      "stateMutability": "pure",
      "type": "function"
    },
    {
      "inputs": [
        {
          "internalType": "address",
          "name": "_toVerify",
          "type": "address"
        },
        {
          "internalType": "string",
          "name": "_userHash",
          "type": "string"
        },
        {
          "internalType": "uint256",
          "name": "_timestamp",
          "type": "uint256"
        }
      ],
      "name": "getPackedMessage",
      "outputs": [
        {
          "internalType": "bytes",
          "name": "",
          "type": "bytes"
        }
      ],
      "stateMutability": "pure",
      "type": "function"
    },
    {
      "inputs": [
        {
          "internalType": "bytes32",
          "name": "_messageHash",
          "type": "bytes32"
        }
      ],
      "name": "getEthSignedMessageHash",
      "outputs": [
        {
          "internalType": "bytes32",
          "name": "",
          "type": "bytes32"
        }
      ],
      "stateMutability": "pure",
      "type": "function"
    },
    {
      "inputs": [
        {
          "internalType": "address",
          "name": "_signer",
          "type": "address"
        },
        {
          "internalType": "address",
          "name": "_toVerify",
          "type": "address"
        },
        {
          "internalType": "string",
          "name": "_userHash",
          "type": "string"
        },
        {
          "internalType": "uint256",
          "name": "_timestamp",
          "type": "uint256"
        },
        {
          "internalType": "bytes",
          "name": "signature",
          "type": "bytes"
        }
      ],
      "name": "verify",
      "outputs": [
        {
          "internalType": "bool",
          "name": "",
          "type": "bool"
        }
      ],
      "stateMutability": "pure",
      "type": "function"
    },
    {
      "inputs": [
        {
          "internalType": "bytes32",
          "name": "_ethSignedMessageHash",
          "type": "bytes32"
        },
        {
          "internalType": "bytes",
          "name": "_signature",
          "type": "bytes"
        }
      ],
      "name": "recoverSigner",
      "outputs": [
        {
          "internalType": "address",
          "name": "",
          "type": "address"
        }
      ],
      "stateMutability": "pure",
      "type": "function"
    },
    {
      "inputs": [
        {
          "internalType": "bytes",
          "name": "sig",
          "type": "bytes"
        }
      ],
      "name": "splitSignature",
      "outputs": [
        {
          "internalType": "bytes32",
          "name": "r",
          "type": "bytes32"
        },
        {
          "internalType": "bytes32",
          "name": "s",
          "type": "bytes32"
        },
        {
          "internalType": "uint8",
          "name": "v",
          "type": "uint8"
        }
      ],
      "stateMutability": "pure",
      "type": "function"
    }
  ],
  "bytecode": "0x608060405234801561001057600080fd5b50610caa806100206000396000f3fe608060405234801561001057600080fd5b50600436106100625760003560e01c8063082d8f29146100675780631e31549e1461009757806377817529146100c757806397aba7f9146100f7578063a7bb580314610127578063fa54080114610159575b600080fd5b610081600480360381019061007c919061058a565b610189565b60405161008e9190610612565b60405180910390f35b6100b160048036038101906100ac919061072e565b6101bf565b6040516100be91906107ff565b60405180910390f35b6100e160048036038101906100dc919061058a565b610266565b6040516100ee9190610899565b60405180910390f35b610111600480360381019061010c91906108e7565b610295565b60405161011e9190610952565b60405180910390f35b610141600480360381019061013c919061096d565b610304565b604051610150939291906109d2565b60405180910390f35b610173600480360381019061016e9190610a09565b61036c565b6040516101809190610612565b60405180910390f35b60008383836040516020016101a093929190610ae6565b6040516020818303038152906040528051906020012090509392505050565b6000806102118787878080601f016020809104026020016040519081016040528093929190818152602001838380828437600081840152601f19601f8201169050808301925050505050505086610189565b9050600061021e8261036c565b90508873ffffffffffffffffffffffffffffffffffffffff166102418286610295565b73ffffffffffffffffffffffffffffffffffffffff1614925050509695505050505050565b606083838360405160200161027d93929190610ae6565b60405160208183030381529060405290509392505050565b6000806000806102a485610304565b925092509250600186828585604051600081526020016040526040516102cd9493929190610b1f565b6020604051602081039080840390855afa1580156102ef573d6000803e3d6000fd5b50505060206040510351935050505092915050565b6000806000604184511461034d576040517f08c379a000000000000000000000000000000000000000000000000000000000815260040161034490610bc1565b60405180910390fd5b6020840151925060408401519150606084015160001a90509193909250565b60008160405160200161037f9190610c4e565b604051602081830303815290604052805190602001209050919050565b6000604051905090565b600080fd5b600080fd5b600073ffffffffffffffffffffffffffffffffffffffff82169050919050565b60006103db826103b0565b9050919050565b6103eb816103d0565b81146103f657600080fd5b50565b600081359050610408816103e2565b92915050565b600080fd5b600080fd5b6000601f19601f8301169050919050565b7f4e487b7100000000000000000000000000000000000000000000000000000000600052604160045260246000fd5b61046182610418565b810181811067ffffffffffffffff821117156104805761047f610429565b5b80604052505050565b600061049361039c565b905061049f8282610458565b919050565b600067ffffffffffffffff8211156104bf576104be610429565b5b6104c882610418565b9050602081019050919050565b82818337600083830152505050565b60006104f76104f2846104a4565b610489565b90508281526020810184848401111561051357610512610413565b5b61051e8482856104d5565b509392505050565b600082601f83011261053b5761053a61040e565b5b813561054b8482602086016104e4565b91505092915050565b6000819050919050565b61056781610554565b811461057257600080fd5b50565b6000813590506105848161055e565b92915050565b6000806000606084860312156105a3576105a26103a6565b5b60006105b1868287016103f9565b935050602084013567ffffffffffffffff8111156105d2576105d16103ab565b5b6105de86828701610526565b92505060406105ef86828701610575565b9150509250925092565b6000819050919050565b61060c816105f9565b82525050565b60006020820190506106276000830184610603565b92915050565b600080fd5b600080fd5b60008083601f84011261064d5761064c61040e565b5b8235905067ffffffffffffffff81111561066a5761066961062d565b5b60208301915083600182028301111561068657610685610632565b5b9250929050565b600067ffffffffffffffff8211156106a8576106a7610429565b5b6106b182610418565b9050602081019050919050565b60006106d16106cc8461068d565b610489565b9050828152602081018484840111156106ed576106ec610413565b5b6106f88482856104d5565b509392505050565b600082601f8301126107155761071461040e565b5b81356107258482602086016106be565b91505092915050565b60008060008060008060a0878903121561074b5761074a6103a6565b5b600061075989828a016103f9565b965050602061076a89828a016103f9565b955050604087013567ffffffffffffffff81111561078b5761078a6103ab565b5b61079789828a01610637565b945094505060606107aa89828a01610575565b925050608087013567ffffffffffffffff8111156107cb576107ca6103ab565b5b6107d789828a01610700565b9150509295509295509295565b60008115159050919050565b6107f9816107e4565b82525050565b600060208201905061081460008301846107f0565b92915050565b600081519050919050565b600082825260208201905092915050565b60005b83811015610854578082015181840152602081019050610839565b60008484015250505050565b600061086b8261081a565b6108758185610825565b9350610885818560208601610836565b61088e81610418565b840191505092915050565b600060208201905081810360008301526108b38184610860565b905092915050565b6108c4816105f9565b81146108cf57600080fd5b50565b6000813590506108e1816108bb565b92915050565b600080604083850312156108fe576108fd6103a6565b5b600061090c858286016108d2565b925050602083013567ffffffffffffffff81111561092d5761092c6103ab565b5b61093985828601610700565b9150509250929050565b61094c816103d0565b82525050565b60006020820190506109676000830184610943565b92915050565b600060208284031215610983576109826103a6565b5b600082013567ffffffffffffffff8111156109a1576109a06103ab565b5b6109ad84828501610700565b91505092915050565b600060ff82169050919050565b6109cc816109b6565b82525050565b60006060820190506109e76000830186610603565b6109f46020830185610603565b610a0160408301846109c3565b949350505050565b600060208284031215610a1f57610a1e6103a6565b5b6000610a2d848285016108d2565b91505092915050565b60008160601b9050919050565b6000610a4e82610a36565b9050919050565b6000610a6082610a43565b9050919050565b610a78610a73826103d0565b610a55565b82525050565b600081519050919050565b600081905092915050565b6000610a9f82610a7e565b610aa98185610a89565b9350610ab9818560208601610836565b80840191505092915050565b6000819050919050565b610ae0610adb82610554565b610ac5565b82525050565b6000610af28286610a67565b601482019150610b028285610a94565b9150610b0e8284610acf565b602082019150819050949350505050565b6000608082019050610b346000830187610603565b610b4160208301866109c3565b610b4e6040830185610603565b610b5b6060830184610603565b95945050505050565b600082825260208201905092915050565b7f696e76616c6964207369676e6174757265206c656e6774680000000000000000600082015250565b6000610bab601883610b64565b9150610bb682610b75565b602082019050919050565b60006020820190508181036000830152610bda81610b9e565b9050919050565b7f19457468657265756d205369676e6564204d6573736167653a0a333200000000600082015250565b6000610c17601c83610a89565b9150610c2282610be1565b601c82019050919050565b6000819050919050565b610c48610c43826105f9565b610c2d565b82525050565b6000610c5982610c0a565b9150610c658284610c37565b6020820191508190509291505056fea264697066735822122095a92e76f1aa8dfaef18e6e9865069f73a3f75fe155a1a490770c25615a6c90b64736f6c63430008120033",
  "immutableReferences": {},
  "source": "// SPDX-License-Identifier: MIT\npragma solidity ^0.8.17;\n\n/* Signature Verification\n\nHow to Sign and Verify\n# Signing\n1. Create message to sign\n2. Hash the message\n3. Sign the hash (off chain, keep your private key secret)\n\n# Verify\n1. Recreate hash from the original message\n2. Recover signer from signature and hash\n3. Compare recovered signer to claimed signer\n*/\n\ncontract SignatureHelper {\n    /* 1. Unlock MetaMask account\n    ethereum.enable()\n    */\n\n    /* 2. Get message hash to sign\n    getMessageHash(\n        0x14723A09ACff6D2A60DcdF7aA4AFf308FDDC160C,\n        123,\n        \"coffee and donuts\",\n        1\n    )\n\n    hash = \"0xcf36ac4f97dc10d91fc2cbb20d718e94a8cbfe0f82eaedc6a4aa38946fb797cd\"\n    */\n    function getMessageHash(\n        address _toVerify,\n        string memory _userHash,\n        uint _timestamp\n    ) public pure returns (bytes32) {\n        return keccak256(abi.encodePacked(_toVerify, _userHash, _timestamp));\n    }\n\n    function getPackedMessage(\n        address _toVerify,\n        string memory _userHash,\n        uint _timestamp\n    ) public pure returns (bytes memory) {\n        return abi.encodePacked(_toVerify, _userHash, _timestamp);\n    }\n\n    /* 3. Sign message hash\n    # using browser\n    account = \"copy paste account of signer here\"\n    ethereum.request({ method: \"personal_sign\", params: [account, hash]}).then(console.log)\n\n    # using web3\n    web3.personal.sign(hash, web3.eth.defaultAccount, console.log)\n\n    Signature will be different for different accounts\n    0x993dab3dd91f5c6dc28e17439be475478f5635c92a56e17e82349d3fb2f166196f466c0b4e0c146f285204f0dcb13e5ae67bc33f4b888ec32dfe0a063e8f3f781b\n    */\n    function getEthSignedMessageHash(\n        bytes32 _messageHash\n    ) public pure returns (bytes32) {\n        /*\n        Signature is produced by signing a keccak256 hash with the following format:\n        \"\\x19Ethereum Signed Message\\n\" + len(msg) + msg\n        */\n        return\n            keccak256(\n                abi.encodePacked(\n                    \"\\x19Ethereum Signed Message:\\n32\",\n                    _messageHash\n                )\n            );\n    }\n\n    /* 4. Verify signature\n    signer = 0xB273216C05A8c0D4F0a4Dd0d7Bae1D2EfFE636dd\n    to = 0x14723A09ACff6D2A60DcdF7aA4AFf308FDDC160C\n    amount = 123\n    message = \"coffee and donuts\"\n    nonce = 1\n    signature =\n        0x993dab3dd91f5c6dc28e17439be475478f5635c92a56e17e82349d3fb2f166196f466c0b4e0c146f285204f0dcb13e5ae67bc33f4b888ec32dfe0a063e8f3f781b\n    */\n    function verify(\n        address _signer,\n        address _toVerify,\n        string calldata _userHash,\n        uint _timestamp,\n        bytes memory signature\n    ) public pure returns (bool) {\n        bytes32 messageHash = getMessageHash(_toVerify, _userHash, _timestamp);\n        bytes32 ethSignedMessageHash = getEthSignedMessageHash(messageHash);\n\n        return recoverSigner(ethSignedMessageHash, signature) == _signer;\n    }\n\n    function recoverSigner(\n        bytes32 _ethSignedMessageHash,\n        bytes memory _signature\n    ) public pure returns (address) {\n        (bytes32 r, bytes32 s, uint8 v) = splitSignature(_signature);\n\n        return ecrecover(_ethSignedMessageHash, v, r, s);\n    }\n\n    function splitSignature(\n        bytes memory sig\n    ) public pure returns (bytes32 r, bytes32 s, uint8 v) {\n        require(sig.length == 65, \"invalid signature length\");\n\n        assembly {\n            /*\n            First 32 bytes stores the length of the signature\n\n            add(sig, 32) = pointer of sig + 32\n            effectively, skips first 32 bytes of signature\n\n            mload(p) loads next 32 bytes starting at the memory address p into memory\n            */\n\n            // first 32 bytes, after the length prefix\n            r := mload(add(sig, 32))\n            // second 32 bytes\n            s := mload(add(sig, 64))\n            // final byte (first byte of the next 32 bytes)\n            v := byte(0, mload(add(sig, 96)))\n        }\n\n        // implicitly return (r, s, v)\n    }\n}\n",
  "sourcePath": "/Users/mik-0/Documents/GitHub/SecureSECOVerification/block/contracts/SignatureHelper.sol",
  "compiler": {
    "name": "solc",
    "version": "0.8.18+commit.87f61d96.Emscripten.clang"
  },
  "schemaVersion": "3.4.12",
  "updatedAt": "2023-03-16T17:39:13.343Z",
  "devdoc": {
    "kind": "dev",
    "methods": {},
    "version": 1
  },
  "userdoc": {
    "kind": "user",
    "methods": {},
    "version": 1
  }
}