{
  "contractName": "SignatureHelper",
  "abi": [
    {
      "inputs": [
        {
          "internalType": "address",
          "name": "_toVerify",
          "type": "address"
        },
        {
          "internalType": "string",
          "name": "_userHash",
          "type": "string"
        },
        {
          "internalType": "uint256",
          "name": "_timestamp",
          "type": "uint256"
        }
      ],
      "name": "getMessageHash",
      "outputs": [
        {
          "internalType": "bytes32",
          "name": "",
          "type": "bytes32"
        }
      ],
      "stateMutability": "pure",
      "type": "function"
    },
    {
      "inputs": [
        {
          "internalType": "address",
          "name": "_toVerify",
          "type": "address"
        },
        {
          "internalType": "string",
          "name": "_userHash",
          "type": "string"
        },
        {
          "internalType": "uint256",
          "name": "_timestamp",
          "type": "uint256"
        }
      ],
      "name": "getPackedMessage",
      "outputs": [
        {
          "internalType": "bytes",
          "name": "",
          "type": "bytes"
        }
      ],
      "stateMutability": "pure",
      "type": "function"
    },
    {
      "inputs": [
        {
          "internalType": "bytes32",
          "name": "_messageHash",
          "type": "bytes32"
        }
      ],
      "name": "getEthSignedMessageHash",
      "outputs": [
        {
          "internalType": "bytes32",
          "name": "",
          "type": "bytes32"
        }
      ],
      "stateMutability": "pure",
      "type": "function"
    },
    {
      "inputs": [
        {
          "internalType": "address",
          "name": "_signer",
          "type": "address"
        },
        {
          "internalType": "address",
          "name": "_toVerify",
          "type": "address"
        },
        {
          "internalType": "string",
          "name": "_userHash",
          "type": "string"
        },
        {
          "internalType": "uint256",
          "name": "_timestamp",
          "type": "uint256"
        },
        {
          "internalType": "bytes",
          "name": "signature",
          "type": "bytes"
        }
      ],
      "name": "verify",
      "outputs": [
        {
          "internalType": "bool",
          "name": "",
          "type": "bool"
        }
      ],
      "stateMutability": "pure",
      "type": "function"
    },
    {
      "inputs": [
        {
          "internalType": "bytes32",
          "name": "_ethSignedMessageHash",
          "type": "bytes32"
        },
        {
          "internalType": "bytes",
          "name": "_signature",
          "type": "bytes"
        }
      ],
      "name": "recoverSigner",
      "outputs": [
        {
          "internalType": "address",
          "name": "",
          "type": "address"
        }
      ],
      "stateMutability": "pure",
      "type": "function"
    },
    {
      "inputs": [
        {
          "internalType": "bytes",
          "name": "sig",
          "type": "bytes"
        }
      ],
      "name": "splitSignature",
      "outputs": [
        {
          "internalType": "bytes32",
          "name": "r",
          "type": "bytes32"
        },
        {
          "internalType": "bytes32",
          "name": "s",
          "type": "bytes32"
        },
        {
          "internalType": "uint8",
          "name": "v",
          "type": "uint8"
        }
      ],
      "stateMutability": "pure",
      "type": "function"
    }
  ],
  "bytecode": "0x608060405234801561001057600080fd5b50610c96806100206000396000f3fe608060405234801561001057600080fd5b50600436106100625760003560e01c8063082d8f29146100675780631e31549e1461009757806377817529146100c757806397aba7f9146100f7578063a7bb580314610127578063fa54080114610159575b600080fd5b610081600480360381019061007c9190610576565b610189565b60405161008e91906105fe565b60405180910390f35b6100b160048036038101906100ac919061071a565b6101ab565b6040516100be91906107eb565b60405180910390f35b6100e160048036038101906100dc9190610576565b610252565b6040516100ee9190610885565b60405180910390f35b610111600480360381019061010c91906108d3565b610281565b60405161011e919061093e565b60405180910390f35b610141600480360381019061013c9190610959565b6102f0565b604051610150939291906109be565b60405180910390f35b610173600480360381019061016e91906109f5565b610358565b60405161018091906105fe565b60405180910390f35b600080610197858585610252565b905080805190602001209150509392505050565b6000806101fd8787878080601f016020809104026020016040519081016040528093929190818152602001838380828437600081840152601f19601f8201169050808301925050505050505086610189565b9050600061020a82610358565b90508873ffffffffffffffffffffffffffffffffffffffff1661022d8286610281565b73ffffffffffffffffffffffffffffffffffffffff1614925050509695505050505050565b606083838360405160200161026993929190610ad2565b60405160208183030381529060405290509392505050565b600080600080610290856102f0565b925092509250600186828585604051600081526020016040526040516102b99493929190610b0b565b6020604051602081039080840390855afa1580156102db573d6000803e3d6000fd5b50505060206040510351935050505092915050565b60008060006041845114610339576040517f08c379a000000000000000000000000000000000000000000000000000000000815260040161033090610bad565b60405180910390fd5b6020840151925060408401519150606084015160001a90509193909250565b60008160405160200161036b9190610c3a565b604051602081830303815290604052805190602001209050919050565b6000604051905090565b600080fd5b600080fd5b600073ffffffffffffffffffffffffffffffffffffffff82169050919050565b60006103c78261039c565b9050919050565b6103d7816103bc565b81146103e257600080fd5b50565b6000813590506103f4816103ce565b92915050565b600080fd5b600080fd5b6000601f19601f8301169050919050565b7f4e487b7100000000000000000000000000000000000000000000000000000000600052604160045260246000fd5b61044d82610404565b810181811067ffffffffffffffff8211171561046c5761046b610415565b5b80604052505050565b600061047f610388565b905061048b8282610444565b919050565b600067ffffffffffffffff8211156104ab576104aa610415565b5b6104b482610404565b9050602081019050919050565b82818337600083830152505050565b60006104e36104de84610490565b610475565b9050828152602081018484840111156104ff576104fe6103ff565b5b61050a8482856104c1565b509392505050565b600082601f830112610527576105266103fa565b5b81356105378482602086016104d0565b91505092915050565b6000819050919050565b61055381610540565b811461055e57600080fd5b50565b6000813590506105708161054a565b92915050565b60008060006060848603121561058f5761058e610392565b5b600061059d868287016103e5565b935050602084013567ffffffffffffffff8111156105be576105bd610397565b5b6105ca86828701610512565b92505060406105db86828701610561565b9150509250925092565b6000819050919050565b6105f8816105e5565b82525050565b600060208201905061061360008301846105ef565b92915050565b600080fd5b600080fd5b60008083601f840112610639576106386103fa565b5b8235905067ffffffffffffffff81111561065657610655610619565b5b6020830191508360018202830111156106725761067161061e565b5b9250929050565b600067ffffffffffffffff82111561069457610693610415565b5b61069d82610404565b9050602081019050919050565b60006106bd6106b884610679565b610475565b9050828152602081018484840111156106d9576106d86103ff565b5b6106e48482856104c1565b509392505050565b600082601f830112610701576107006103fa565b5b81356107118482602086016106aa565b91505092915050565b60008060008060008060a0878903121561073757610736610392565b5b600061074589828a016103e5565b965050602061075689828a016103e5565b955050604087013567ffffffffffffffff81111561077757610776610397565b5b61078389828a01610623565b9450945050606061079689828a01610561565b925050608087013567ffffffffffffffff8111156107b7576107b6610397565b5b6107c389828a016106ec565b9150509295509295509295565b60008115159050919050565b6107e5816107d0565b82525050565b600060208201905061080060008301846107dc565b92915050565b600081519050919050565b600082825260208201905092915050565b60005b83811015610840578082015181840152602081019050610825565b60008484015250505050565b600061085782610806565b6108618185610811565b9350610871818560208601610822565b61087a81610404565b840191505092915050565b6000602082019050818103600083015261089f818461084c565b905092915050565b6108b0816105e5565b81146108bb57600080fd5b50565b6000813590506108cd816108a7565b92915050565b600080604083850312156108ea576108e9610392565b5b60006108f8858286016108be565b925050602083013567ffffffffffffffff81111561091957610918610397565b5b610925858286016106ec565b9150509250929050565b610938816103bc565b82525050565b6000602082019050610953600083018461092f565b92915050565b60006020828403121561096f5761096e610392565b5b600082013567ffffffffffffffff81111561098d5761098c610397565b5b610999848285016106ec565b91505092915050565b600060ff82169050919050565b6109b8816109a2565b82525050565b60006060820190506109d360008301866105ef565b6109e060208301856105ef565b6109ed60408301846109af565b949350505050565b600060208284031215610a0b57610a0a610392565b5b6000610a19848285016108be565b91505092915050565b60008160601b9050919050565b6000610a3a82610a22565b9050919050565b6000610a4c82610a2f565b9050919050565b610a64610a5f826103bc565b610a41565b82525050565b600081519050919050565b600081905092915050565b6000610a8b82610a6a565b610a958185610a75565b9350610aa5818560208601610822565b80840191505092915050565b6000819050919050565b610acc610ac782610540565b610ab1565b82525050565b6000610ade8286610a53565b601482019150610aee8285610a80565b9150610afa8284610abb565b602082019150819050949350505050565b6000608082019050610b2060008301876105ef565b610b2d60208301866109af565b610b3a60408301856105ef565b610b4760608301846105ef565b95945050505050565b600082825260208201905092915050565b7f696e76616c6964207369676e6174757265206c656e6774680000000000000000600082015250565b6000610b97601883610b50565b9150610ba282610b61565b602082019050919050565b60006020820190508181036000830152610bc681610b8a565b9050919050565b7f19457468657265756d205369676e6564204d6573736167653a0a333200000000600082015250565b6000610c03601c83610a75565b9150610c0e82610bcd565b601c82019050919050565b6000819050919050565b610c34610c2f826105e5565b610c19565b82525050565b6000610c4582610bf6565b9150610c518284610c23565b6020820191508190509291505056fea26469706673582212204b9a4bd60a9370cefd31b6ff30787af06ea8f961b242a2155e5de5fe598c6d5264736f6c63430008120033",
  "immutableReferences": {},
  "source": "// SPDX-License-Identifier: MIT\r\npragma solidity ^0.8.17;\r\n\r\n// Source: https://solidity-by-example.org/signature/\r\n\r\n/* Signature Verification\r\n\r\nHow to Sign and Verify\r\n# Signing\r\n1. Create message to sign\r\n2. Hash the message\r\n3. Sign the hash (off chain, keep your private key secret)\r\n\r\n# Verify\r\n1. Recreate hash from the original message\r\n2. Recover signer from signature and hash\r\n3. Compare recovered signer to claimed signer\r\n*/\r\n\r\ncontract SignatureHelper {\r\n    /* 1. Unlock MetaMask account\r\n    ethereum.enable()\r\n    */\r\n\r\n    /* 2. Get message hash to sign\r\n    getMessageHash(\r\n        0x14723A09ACff6D2A60DcdF7aA4AFf308FDDC160C,\r\n        123,\r\n        \"coffee and donuts\",\r\n        1\r\n    )\r\n\r\n    hash = \"0xcf36ac4f97dc10d91fc2cbb20d718e94a8cbfe0f82eaedc6a4aa38946fb797cd\"\r\n    */\r\n    function getMessageHash(\r\n        address _toVerify,\r\n        string memory _userHash,\r\n        uint _timestamp\r\n    ) public pure returns (bytes32) {\r\n        bytes memory packedMsg = getPackedMessage(_toVerify, _userHash, _timestamp);\r\n        return keccak256(packedMsg);\r\n    }\r\n\r\n    function getPackedMessage(\r\n        address _toVerify,\r\n        string memory _userHash,\r\n        uint _timestamp\r\n    ) public pure returns (bytes memory) {\r\n        return abi.encodePacked(_toVerify, _userHash, _timestamp);\r\n    }\r\n\r\n    /* 3. Sign message hash\r\n    # using browser\r\n    account = \"copy paste account of signer here\"\r\n    ethereum.request({ method: \"personal_sign\", params: [account, hash]}).then(console.log)\r\n\r\n    # using web3\r\n    web3.personal.sign(hash, web3.eth.defaultAccount, console.log)\r\n\r\n    Signature will be different for different accounts\r\n    0x993dab3dd91f5c6dc28e17439be475478f5635c92a56e17e82349d3fb2f166196f466c0b4e0c146f285204f0dcb13e5ae67bc33f4b888ec32dfe0a063e8f3f781b\r\n    */\r\n    function getEthSignedMessageHash(\r\n        bytes32 _messageHash\r\n    ) public pure returns (bytes32) {\r\n        /*\r\n        Signature is produced by signing a keccak256 hash with the following format:\r\n        \"\\x19Ethereum Signed Message\\n\" + len(msg) + msg\r\n        */\r\n        return\r\n            keccak256(\r\n                abi.encodePacked(\r\n                    \"\\x19Ethereum Signed Message:\\n32\",\r\n                    _messageHash\r\n                )\r\n            );\r\n    }\r\n\r\n    /* 4. Verify signature\r\n    signer = 0xB273216C05A8c0D4F0a4Dd0d7Bae1D2EfFE636dd\r\n    to = 0x14723A09ACff6D2A60DcdF7aA4AFf308FDDC160C\r\n    amount = 123\r\n    message = \"coffee and donuts\"\r\n    nonce = 1\r\n    signature =\r\n        0x993dab3dd91f5c6dc28e17439be475478f5635c92a56e17e82349d3fb2f166196f466c0b4e0c146f285204f0dcb13e5ae67bc33f4b888ec32dfe0a063e8f3f781b\r\n    */\r\n    function verify(\r\n        address _signer,\r\n        address _toVerify,\r\n        string calldata _userHash,\r\n        uint _timestamp,\r\n        bytes memory signature\r\n    ) public pure returns (bool) {\r\n        bytes32 messageHash = getMessageHash(_toVerify, _userHash, _timestamp);\r\n        bytes32 ethSignedMessageHash = getEthSignedMessageHash(messageHash);\r\n\r\n        return recoverSigner(ethSignedMessageHash, signature) == _signer;\r\n    }\r\n\r\n    function recoverSigner(\r\n        bytes32 _ethSignedMessageHash,\r\n        bytes memory _signature\r\n    ) public pure returns (address) {\r\n        (bytes32 r, bytes32 s, uint8 v) = splitSignature(_signature);\r\n\r\n        return ecrecover(_ethSignedMessageHash, v, r, s);\r\n    }\r\n\r\n    function splitSignature(\r\n        bytes memory sig\r\n    ) public pure returns (bytes32 r, bytes32 s, uint8 v) {\r\n        require(sig.length == 65, \"invalid signature length\");\r\n\r\n        assembly {\r\n            /*\r\n            First 32 bytes stores the length of the signature\r\n\r\n            add(sig, 32) = pointer of sig + 32\r\n            effectively, skips first 32 bytes of signature\r\n\r\n            mload(p) loads next 32 bytes starting at the memory address p into memory\r\n            */\r\n\r\n            // first 32 bytes, after the length prefix\r\n            r := mload(add(sig, 32))\r\n            // second 32 bytes\r\n            s := mload(add(sig, 64))\r\n            // final byte (first byte of the next 32 bytes)\r\n            v := byte(0, mload(add(sig, 96)))\r\n        }\r\n\r\n        // implicitly return (r, s, v)\r\n    }\r\n}\r\n",
  "sourcePath": "C:\\Users\\Monkey D. Dragon\\Documents\\GitHub\\SecureSECOVerification\\block\\contracts\\SignatureHelper.sol",
  "compiler": {
    "name": "solc",
    "version": "0.8.18+commit.87f61d96.Emscripten.clang"
  },
  "schemaVersion": "3.4.13",
  "updatedAt": "2023-03-27T13:39:14.442Z",
  "devdoc": {
    "kind": "dev",
    "methods": {},
    "version": 1
  },
  "userdoc": {
    "kind": "user",
    "methods": {},
    "version": 1
  }
}