{
  "contractName": "SignatureHelper",
  "abi": [
    {
      "inputs": [
        {
          "internalType": "address",
          "name": "_toVerify",
          "type": "address"
        },
        {
          "internalType": "string",
          "name": "_userHash",
          "type": "string"
        },
        {
          "internalType": "uint256",
          "name": "_timestamp",
          "type": "uint256"
        }
      ],
      "name": "getMessageHash",
      "outputs": [
        {
          "internalType": "bytes32",
          "name": "",
          "type": "bytes32"
        }
      ],
      "stateMutability": "pure",
      "type": "function"
    },
    {
      "inputs": [
        {
          "internalType": "bytes32",
          "name": "_messageHash",
          "type": "bytes32"
        }
      ],
      "name": "getEthSignedMessageHash",
      "outputs": [
        {
          "internalType": "bytes32",
          "name": "",
          "type": "bytes32"
        }
      ],
      "stateMutability": "pure",
      "type": "function"
    },
    {
      "inputs": [
        {
          "internalType": "address",
          "name": "_signer",
          "type": "address"
        },
        {
          "internalType": "address",
          "name": "_toVerify",
          "type": "address"
        },
        {
          "internalType": "string",
          "name": "_userHash",
          "type": "string"
        },
        {
          "internalType": "uint256",
          "name": "_timestamp",
          "type": "uint256"
        },
        {
          "internalType": "bytes",
          "name": "signature",
          "type": "bytes"
        }
      ],
      "name": "verify",
      "outputs": [
        {
          "internalType": "bool",
          "name": "",
          "type": "bool"
        }
      ],
      "stateMutability": "pure",
      "type": "function"
    },
    {
      "inputs": [
        {
          "internalType": "bytes32",
          "name": "_ethSignedMessageHash",
          "type": "bytes32"
        },
        {
          "internalType": "bytes",
          "name": "_signature",
          "type": "bytes"
        }
      ],
      "name": "recoverSigner",
      "outputs": [
        {
          "internalType": "address",
          "name": "",
          "type": "address"
        }
      ],
      "stateMutability": "pure",
      "type": "function"
    },
    {
      "inputs": [
        {
          "internalType": "bytes",
          "name": "sig",
          "type": "bytes"
        }
      ],
      "name": "splitSignature",
      "outputs": [
        {
          "internalType": "bytes32",
          "name": "r",
          "type": "bytes32"
        },
        {
          "internalType": "bytes32",
          "name": "s",
          "type": "bytes32"
        },
        {
          "internalType": "uint8",
          "name": "v",
          "type": "uint8"
        }
      ],
      "stateMutability": "pure",
      "type": "function"
    }
  ],
  "bytecode": "0x608060405234801561001057600080fd5b50610bc9806100206000396000f3fe608060405234801561001057600080fd5b50600436106100575760003560e01c8063082d8f291461005c5780631e31549e1461008c57806397aba7f9146100bc578063a7bb5803146100ec578063fa5408011461011e575b600080fd5b61007660048036038101906100719190610520565b61014e565b60405161008391906105a8565b60405180910390f35b6100a660048036038101906100a191906106c4565b610184565b6040516100b39190610795565b60405180910390f35b6100d660048036038101906100d191906107dc565b61022b565b6040516100e39190610847565b60405180910390f35b61010660048036038101906101019190610862565b61029a565b604051610115939291906108c7565b60405180910390f35b610138600480360381019061013391906108fe565b610302565b60405161014591906105a8565b60405180910390f35b600083838360405160200161016593929190610a05565b6040516020818303038152906040528051906020012090509392505050565b6000806101d68787878080601f016020809104026020016040519081016040528093929190818152602001838380828437600081840152601f19601f820116905080830192505050505050508661014e565b905060006101e382610302565b90508873ffffffffffffffffffffffffffffffffffffffff16610206828661022b565b73ffffffffffffffffffffffffffffffffffffffff1614925050509695505050505050565b60008060008061023a8561029a565b925092509250600186828585604051600081526020016040526040516102639493929190610a3e565b6020604051602081039080840390855afa158015610285573d6000803e3d6000fd5b50505060206040510351935050505092915050565b600080600060418451146102e3576040517f08c379a00000000000000000000000000000000000000000000000000000000081526004016102da90610ae0565b60405180910390fd5b6020840151925060408401519150606084015160001a90509193909250565b6000816040516020016103159190610b6d565b604051602081830303815290604052805190602001209050919050565b6000604051905090565b600080fd5b600080fd5b600073ffffffffffffffffffffffffffffffffffffffff82169050919050565b600061037182610346565b9050919050565b61038181610366565b811461038c57600080fd5b50565b60008135905061039e81610378565b92915050565b600080fd5b600080fd5b6000601f19601f8301169050919050565b7f4e487b7100000000000000000000000000000000000000000000000000000000600052604160045260246000fd5b6103f7826103ae565b810181811067ffffffffffffffff82111715610416576104156103bf565b5b80604052505050565b6000610429610332565b905061043582826103ee565b919050565b600067ffffffffffffffff821115610455576104546103bf565b5b61045e826103ae565b9050602081019050919050565b82818337600083830152505050565b600061048d6104888461043a565b61041f565b9050828152602081018484840111156104a9576104a86103a9565b5b6104b484828561046b565b509392505050565b600082601f8301126104d1576104d06103a4565b5b81356104e184826020860161047a565b91505092915050565b6000819050919050565b6104fd816104ea565b811461050857600080fd5b50565b60008135905061051a816104f4565b92915050565b6000806000606084860312156105395761053861033c565b5b60006105478682870161038f565b935050602084013567ffffffffffffffff81111561056857610567610341565b5b610574868287016104bc565b92505060406105858682870161050b565b9150509250925092565b6000819050919050565b6105a28161058f565b82525050565b60006020820190506105bd6000830184610599565b92915050565b600080fd5b600080fd5b60008083601f8401126105e3576105e26103a4565b5b8235905067ffffffffffffffff811115610600576105ff6105c3565b5b60208301915083600182028301111561061c5761061b6105c8565b5b9250929050565b600067ffffffffffffffff82111561063e5761063d6103bf565b5b610647826103ae565b9050602081019050919050565b600061066761066284610623565b61041f565b905082815260208101848484011115610683576106826103a9565b5b61068e84828561046b565b509392505050565b600082601f8301126106ab576106aa6103a4565b5b81356106bb848260208601610654565b91505092915050565b60008060008060008060a087890312156106e1576106e061033c565b5b60006106ef89828a0161038f565b965050602061070089828a0161038f565b955050604087013567ffffffffffffffff81111561072157610720610341565b5b61072d89828a016105cd565b9450945050606061074089828a0161050b565b925050608087013567ffffffffffffffff81111561076157610760610341565b5b61076d89828a01610696565b9150509295509295509295565b60008115159050919050565b61078f8161077a565b82525050565b60006020820190506107aa6000830184610786565b92915050565b6107b98161058f565b81146107c457600080fd5b50565b6000813590506107d6816107b0565b92915050565b600080604083850312156107f3576107f261033c565b5b6000610801858286016107c7565b925050602083013567ffffffffffffffff81111561082257610821610341565b5b61082e85828601610696565b9150509250929050565b61084181610366565b82525050565b600060208201905061085c6000830184610838565b92915050565b6000602082840312156108785761087761033c565b5b600082013567ffffffffffffffff81111561089657610895610341565b5b6108a284828501610696565b91505092915050565b600060ff82169050919050565b6108c1816108ab565b82525050565b60006060820190506108dc6000830186610599565b6108e96020830185610599565b6108f660408301846108b8565b949350505050565b6000602082840312156109145761091361033c565b5b6000610922848285016107c7565b91505092915050565b60008160601b9050919050565b60006109438261092b565b9050919050565b600061095582610938565b9050919050565b61096d61096882610366565b61094a565b82525050565b600081519050919050565b600081905092915050565b60005b838110156109a757808201518184015260208101905061098c565b60008484015250505050565b60006109be82610973565b6109c8818561097e565b93506109d8818560208601610989565b80840191505092915050565b6000819050919050565b6109ff6109fa826104ea565b6109e4565b82525050565b6000610a11828661095c565b601482019150610a2182856109b3565b9150610a2d82846109ee565b602082019150819050949350505050565b6000608082019050610a536000830187610599565b610a6060208301866108b8565b610a6d6040830185610599565b610a7a6060830184610599565b95945050505050565b600082825260208201905092915050565b7f696e76616c6964207369676e6174757265206c656e6774680000000000000000600082015250565b6000610aca601883610a83565b9150610ad582610a94565b602082019050919050565b60006020820190508181036000830152610af981610abd565b9050919050565b7f19457468657265756d205369676e6564204d6573736167653a0a333200000000600082015250565b6000610b36601c8361097e565b9150610b4182610b00565b601c82019050919050565b6000819050919050565b610b67610b628261058f565b610b4c565b82525050565b6000610b7882610b29565b9150610b848284610b56565b6020820191508190509291505056fea26469706673582212200b80c08fa94aaa1a3502e328f55c1d2844f10173d6708dfda563000bfb81f5ac64736f6c63430008120033",
  "immutableReferences": {},
  "source": "// SPDX-License-Identifier: MIT\npragma solidity ^0.8.17;\n\n/* Signature Verification\n\nHow to Sign and Verify\n# Signing\n1. Create message to sign\n2. Hash the message\n3. Sign the hash (off chain, keep your private key secret)\n\n# Verify\n1. Recreate hash from the original message\n2. Recover signer from signature and hash\n3. Compare recovered signer to claimed signer\n*/\n\ncontract SignatureHelper {\n    /* 1. Unlock MetaMask account\n    ethereum.enable()\n    */\n\n    /* 2. Get message hash to sign\n    getMessageHash(\n        0x14723A09ACff6D2A60DcdF7aA4AFf308FDDC160C,\n        123,\n        \"coffee and donuts\",\n        1\n    )\n\n    hash = \"0xcf36ac4f97dc10d91fc2cbb20d718e94a8cbfe0f82eaedc6a4aa38946fb797cd\"\n    */\n    function getMessageHash(\n        address _toVerify,\n        string memory _userHash,\n        uint _timestamp\n    ) public pure returns (bytes32) {\n        return keccak256(abi.encodePacked(_toVerify, _userHash, _timestamp));\n    }\n\n    /* 3. Sign message hash\n    # using browser\n    account = \"copy paste account of signer here\"\n    ethereum.request({ method: \"personal_sign\", params: [account, hash]}).then(console.log)\n\n    # using web3\n    web3.personal.sign(hash, web3.eth.defaultAccount, console.log)\n\n    Signature will be different for different accounts\n    0x993dab3dd91f5c6dc28e17439be475478f5635c92a56e17e82349d3fb2f166196f466c0b4e0c146f285204f0dcb13e5ae67bc33f4b888ec32dfe0a063e8f3f781b\n    */\n    function getEthSignedMessageHash(\n        bytes32 _messageHash\n    ) public pure returns (bytes32) {\n        /*\n        Signature is produced by signing a keccak256 hash with the following format:\n        \"\\x19Ethereum Signed Message\\n\" + len(msg) + msg\n        */\n        return\n            keccak256(\n                abi.encodePacked(\n                    \"\\x19Ethereum Signed Message:\\n32\",\n                    _messageHash\n                )\n            );\n    }\n\n    /* 4. Verify signature\n    signer = 0xB273216C05A8c0D4F0a4Dd0d7Bae1D2EfFE636dd\n    to = 0x14723A09ACff6D2A60DcdF7aA4AFf308FDDC160C\n    amount = 123\n    message = \"coffee and donuts\"\n    nonce = 1\n    signature =\n        0x993dab3dd91f5c6dc28e17439be475478f5635c92a56e17e82349d3fb2f166196f466c0b4e0c146f285204f0dcb13e5ae67bc33f4b888ec32dfe0a063e8f3f781b\n    */\n    function verify(\n        address _signer,\n        address _toVerify,\n        string calldata _userHash,\n        uint _timestamp,\n        bytes memory signature\n    ) public pure returns (bool) {\n        bytes32 messageHash = getMessageHash(_toVerify, _userHash, _timestamp);\n        bytes32 ethSignedMessageHash = getEthSignedMessageHash(messageHash);\n\n        return recoverSigner(ethSignedMessageHash, signature) == _signer;\n    }\n\n    function recoverSigner(\n        bytes32 _ethSignedMessageHash,\n        bytes memory _signature\n    ) public pure returns (address) {\n        (bytes32 r, bytes32 s, uint8 v) = splitSignature(_signature);\n\n        return ecrecover(_ethSignedMessageHash, v, r, s);\n    }\n\n    function splitSignature(\n        bytes memory sig\n    ) public pure returns (bytes32 r, bytes32 s, uint8 v) {\n        require(sig.length == 65, \"invalid signature length\");\n\n        assembly {\n            /*\n            First 32 bytes stores the length of the signature\n\n            add(sig, 32) = pointer of sig + 32\n            effectively, skips first 32 bytes of signature\n\n            mload(p) loads next 32 bytes starting at the memory address p into memory\n            */\n\n            // first 32 bytes, after the length prefix\n            r := mload(add(sig, 32))\n            // second 32 bytes\n            s := mload(add(sig, 64))\n            // final byte (first byte of the next 32 bytes)\n            v := byte(0, mload(add(sig, 96)))\n        }\n\n        // implicitly return (r, s, v)\n    }\n}\n",
  "sourcePath": "/Users/mik-0/Documents/GitHub/SecureSECOVerification/block/contracts/SignatureHelper.sol",
  "compiler": {
    "name": "solc",
    "version": "0.8.18+commit.87f61d96.Emscripten.clang"
  },
  "schemaVersion": "3.4.12",
  "updatedAt": "2023-03-16T11:19:55.379Z",
  "devdoc": {
    "kind": "dev",
    "methods": {},
    "version": 1
  },
  "userdoc": {
    "kind": "user",
    "methods": {},
    "version": 1
  }
}