{
  "contractName": "Whitelisting",
  "abi": [
    {
      "inputs": [
        {
          "internalType": "address",
          "name": "dao",
          "type": "address"
        },
        {
          "internalType": "address",
          "name": "where",
          "type": "address"
        },
        {
          "internalType": "address",
          "name": "who",
          "type": "address"
        },
        {
          "internalType": "bytes32",
          "name": "permissionId",
          "type": "bytes32"
        }
      ],
      "name": "DaoUnauthorized",
      "type": "error"
    },
    {
      "anonymous": false,
      "inputs": [
        {
          "indexed": false,
          "internalType": "address",
          "name": "previousAdmin",
          "type": "address"
        },
        {
          "indexed": false,
          "internalType": "address",
          "name": "newAdmin",
          "type": "address"
        }
      ],
      "name": "AdminChanged",
      "type": "event"
    },
    {
      "anonymous": false,
      "inputs": [
        {
          "indexed": true,
          "internalType": "address",
          "name": "beacon",
          "type": "address"
        }
      ],
      "name": "BeaconUpgraded",
      "type": "event"
    },
    {
      "anonymous": false,
      "inputs": [
        {
          "indexed": false,
          "internalType": "uint8",
          "name": "version",
          "type": "uint8"
        }
      ],
      "name": "Initialized",
      "type": "event"
    },
    {
      "anonymous": false,
      "inputs": [
        {
          "indexed": true,
          "internalType": "address",
          "name": "implementation",
          "type": "address"
        }
      ],
      "name": "Upgraded",
      "type": "event"
    },
    {
      "inputs": [],
      "name": "UPGRADE_PLUGIN_PERMISSION_ID",
      "outputs": [
        {
          "internalType": "bytes32",
          "name": "",
          "type": "bytes32"
        }
      ],
      "stateMutability": "view",
      "type": "function"
    },
    {
      "inputs": [],
      "name": "dao",
      "outputs": [
        {
          "internalType": "contract IDAO",
          "name": "",
          "type": "address"
        }
      ],
      "stateMutability": "view",
      "type": "function"
    },
    {
      "inputs": [],
      "name": "implementation",
      "outputs": [
        {
          "internalType": "address",
          "name": "",
          "type": "address"
        }
      ],
      "stateMutability": "view",
      "type": "function"
    },
    {
      "inputs": [],
      "name": "pluginType",
      "outputs": [
        {
          "internalType": "enum IPlugin.PluginType",
          "name": "",
          "type": "uint8"
        }
      ],
      "stateMutability": "pure",
      "type": "function"
    },
    {
      "inputs": [],
      "name": "proxiableUUID",
      "outputs": [
        {
          "internalType": "bytes32",
          "name": "",
          "type": "bytes32"
        }
      ],
      "stateMutability": "view",
      "type": "function"
    },
    {
      "inputs": [
        {
          "internalType": "bytes4",
          "name": "_interfaceId",
          "type": "bytes4"
        }
      ],
      "name": "supportsInterface",
      "outputs": [
        {
          "internalType": "bool",
          "name": "",
          "type": "bool"
        }
      ],
      "stateMutability": "view",
      "type": "function"
    },
    {
      "inputs": [
        {
          "internalType": "address",
          "name": "newImplementation",
          "type": "address"
        }
      ],
      "name": "upgradeTo",
      "outputs": [],
      "stateMutability": "nonpayable",
      "type": "function"
    },
    {
      "inputs": [
        {
          "internalType": "address",
          "name": "newImplementation",
          "type": "address"
        },
        {
          "internalType": "bytes",
          "name": "data",
          "type": "bytes"
        }
      ],
      "name": "upgradeToAndCall",
      "outputs": [],
      "stateMutability": "payable",
      "type": "function"
    }
  ],
  "bytecode": "0x60a06040523073ffffffffffffffffffffffffffffffffffffffff1660809073ffffffffffffffffffffffffffffffffffffffff168152503480156200004457600080fd5b50620000556200005b60201b60201c565b62000206565b600060019054906101000a900460ff1615620000ae576040517f08c379a0000000000000000000000000000000000000000000000000000000008152600401620000a590620001a9565b60405180910390fd5b60ff801660008054906101000a900460ff1660ff161015620001205760ff6000806101000a81548160ff021916908360ff1602179055507f7f26b83ff96e1f2b6a682f133852f6798a09c465da95921460cefb384740249860ff604051620001179190620001e9565b60405180910390a15b565b600082825260208201905092915050565b7f496e697469616c697a61626c653a20636f6e747261637420697320696e69746960008201527f616c697a696e6700000000000000000000000000000000000000000000000000602082015250565b60006200019160278362000122565b91506200019e8262000133565b604082019050919050565b60006020820190508181036000830152620001c48162000182565b9050919050565b600060ff82169050919050565b620001e381620001cb565b82525050565b6000602082019050620002006000830184620001d8565b92915050565b6080516118156200023e600039600081816102bd0152818161034b015281816104740152818161050201526105b201526118156000f3fe60806040526004361061007b5760003560e01c80634f1ef2861161004e5780634f1ef2861461013c57806352d1902d146101585780635c60da1b14610183578063c9c4bfca146101ae5761007b565b806301ffc9a7146100805780633659cfe6146100bd5780634162169f146100e657806341de683014610111575b600080fd5b34801561008c57600080fd5b506100a760048036038101906100a29190610d3e565b6101d9565b6040516100b49190610d86565b60405180910390f35b3480156100c957600080fd5b506100e460048036038101906100df9190610dff565b6102bb565b005b3480156100f257600080fd5b506100fb610443565b6040516101089190610e8b565b60405180910390f35b34801561011d57600080fd5b5061012661046d565b6040516101339190610f1d565b60405180910390f35b6101566004803603810190610151919061107e565b610472565b005b34801561016457600080fd5b5061016d6105ae565b60405161017a91906110f3565b60405180910390f35b34801561018f57600080fd5b50610198610667565b6040516101a5919061111d565b60405180910390f35b3480156101ba57600080fd5b506101c3610676565b6040516101d091906110f3565b60405180910390f35b60007f41de6830000000000000000000000000000000000000000000000000000000007bffffffffffffffffffffffffffffffffffffffffffffffffffffffff1916827bffffffffffffffffffffffffffffffffffffffffffffffffffffffff191614806102a457507f52d1902d000000000000000000000000000000000000000000000000000000007bffffffffffffffffffffffffffffffffffffffffffffffffffffffff1916827bffffffffffffffffffffffffffffffffffffffffffffffffffffffff1916145b806102b457506102b38261069a565b5b9050919050565b7f000000000000000000000000000000000000000000000000000000000000000073ffffffffffffffffffffffffffffffffffffffff163073ffffffffffffffffffffffffffffffffffffffff1603610349576040517f08c379a0000000000000000000000000000000000000000000000000000000008152600401610340906111bb565b60405180910390fd5b7f000000000000000000000000000000000000000000000000000000000000000073ffffffffffffffffffffffffffffffffffffffff16610388610704565b73ffffffffffffffffffffffffffffffffffffffff16146103de576040517f08c379a00000000000000000000000000000000000000000000000000000000081526004016103d59061124d565b60405180910390fd5b6103e78161075b565b61044081600067ffffffffffffffff81111561040657610405610f53565b5b6040519080825280601f01601f1916602001820160405280156104385781602001600182028036833780820191505090505b5060006107bd565b50565b600060c960009054906101000a900473ffffffffffffffffffffffffffffffffffffffff16905090565b600090565b7f000000000000000000000000000000000000000000000000000000000000000073ffffffffffffffffffffffffffffffffffffffff163073ffffffffffffffffffffffffffffffffffffffff1603610500576040517f08c379a00000000000000000000000000000000000000000000000000000000081526004016104f7906111bb565b60405180910390fd5b7f000000000000000000000000000000000000000000000000000000000000000073ffffffffffffffffffffffffffffffffffffffff1661053f610704565b73ffffffffffffffffffffffffffffffffffffffff1614610595576040517f08c379a000000000000000000000000000000000000000000000000000000000815260040161058c9061124d565b60405180910390fd5b61059e8261075b565b6105aa828260016107bd565b5050565b60007f000000000000000000000000000000000000000000000000000000000000000073ffffffffffffffffffffffffffffffffffffffff163073ffffffffffffffffffffffffffffffffffffffff161461063e576040517f08c379a0000000000000000000000000000000000000000000000000000000008152600401610635906112df565b60405180910390fd5b7f360894a13ba1a3210667c828492db98dca3e2076cc3735a920a3ca505d382bbc60001b905090565b6000610671610704565b905090565b7f821b6e3a557148015a918c89e5d092e878a69854a2d1a410635f771bd5a8a3f581565b60007f01ffc9a7000000000000000000000000000000000000000000000000000000007bffffffffffffffffffffffffffffffffffffffffffffffffffffffff1916827bffffffffffffffffffffffffffffffffffffffffffffffffffffffff1916149050919050565b60006107327f360894a13ba1a3210667c828492db98dca3e2076cc3735a920a3ca505d382bbc60001b61092b565b60000160009054906101000a900473ffffffffffffffffffffffffffffffffffffffff16905090565b7f821b6e3a557148015a918c89e5d092e878a69854a2d1a410635f771bd5a8a3f56107b960c960009054906101000a900473ffffffffffffffffffffffffffffffffffffffff16306107ab610935565b846107b461093d565b61094a565b5050565b6107e97f4910fdfa16fed3260ed0e7147f7cc6da11a60208b5b9406d12a635614ffd914360001b610a1b565b60000160009054906101000a900460ff161561080d5761080883610a25565b610926565b8273ffffffffffffffffffffffffffffffffffffffff166352d1902d6040518163ffffffff1660e01b8152600401602060405180830381865afa92505050801561087557506040513d601f19601f82011682018060405250810190610872919061132b565b60015b6108b4576040517f08c379a00000000000000000000000000000000000000000000000000000000081526004016108ab906113ca565b60405180910390fd5b7f360894a13ba1a3210667c828492db98dca3e2076cc3735a920a3ca505d382bbc60001b8114610919576040517f08c379a00000000000000000000000000000000000000000000000000000000081526004016109109061145c565b60405180910390fd5b50610925838383610ade565b5b505050565b6000819050919050565b600033905090565b3660008036915091509091565b8573ffffffffffffffffffffffffffffffffffffffff1663fdef910686868686866040518663ffffffff1660e01b815260040161098b9594939291906114ba565b602060405180830381865afa1580156109a8573d6000803e3d6000fd5b505050506040513d601f19601f820116820180604052508101906109cc9190611534565b610a1357858585856040517f32dbe3b4000000000000000000000000000000000000000000000000000000008152600401610a0a9493929190611561565b60405180910390fd5b505050505050565b6000819050919050565b610a2e81610b0a565b610a6d576040517f08c379a0000000000000000000000000000000000000000000000000000000008152600401610a6490611618565b60405180910390fd5b80610a9a7f360894a13ba1a3210667c828492db98dca3e2076cc3735a920a3ca505d382bbc60001b61092b565b60000160006101000a81548173ffffffffffffffffffffffffffffffffffffffff021916908373ffffffffffffffffffffffffffffffffffffffff16021790555050565b610ae783610b2d565b600082511180610af45750805b15610b0557610b038383610b7c565b505b505050565b6000808273ffffffffffffffffffffffffffffffffffffffff163b119050919050565b610b3681610a25565b8073ffffffffffffffffffffffffffffffffffffffff167fbc7cd75a20ee27fd9adebab32041f755214dbc6bffa90cc0225b39da2e5c2d3b60405160405180910390a250565b6060610b8783610b0a565b610bc6576040517f08c379a0000000000000000000000000000000000000000000000000000000008152600401610bbd906116aa565b60405180910390fd5b6000808473ffffffffffffffffffffffffffffffffffffffff1684604051610bee919061173b565b600060405180830381855af49150503d8060008114610c29576040519150601f19603f3d011682016040523d82523d6000602084013e610c2e565b606091505b5091509150610c5682826040518060600160405280602781526020016117b960279139610c60565b9250505092915050565b60608315610c7057829050610c7b565b610c7a8383610c82565b5b9392505050565b600082511115610c955781518083602001fd5b806040517f08c379a0000000000000000000000000000000000000000000000000000000008152600401610cc99190611796565b60405180910390fd5b6000604051905090565b600080fd5b600080fd5b60007fffffffff0000000000000000000000000000000000000000000000000000000082169050919050565b610d1b81610ce6565b8114610d2657600080fd5b50565b600081359050610d3881610d12565b92915050565b600060208284031215610d5457610d53610cdc565b5b6000610d6284828501610d29565b91505092915050565b60008115159050919050565b610d8081610d6b565b82525050565b6000602082019050610d9b6000830184610d77565b92915050565b600073ffffffffffffffffffffffffffffffffffffffff82169050919050565b6000610dcc82610da1565b9050919050565b610ddc81610dc1565b8114610de757600080fd5b50565b600081359050610df981610dd3565b92915050565b600060208284031215610e1557610e14610cdc565b5b6000610e2384828501610dea565b91505092915050565b6000819050919050565b6000610e51610e4c610e4784610da1565b610e2c565b610da1565b9050919050565b6000610e6382610e36565b9050919050565b6000610e7582610e58565b9050919050565b610e8581610e6a565b82525050565b6000602082019050610ea06000830184610e7c565b92915050565b7f4e487b7100000000000000000000000000000000000000000000000000000000600052602160045260246000fd5b60038110610ee657610ee5610ea6565b5b50565b6000819050610ef782610ed5565b919050565b6000610f0782610ee9565b9050919050565b610f1781610efc565b82525050565b6000602082019050610f326000830184610f0e565b92915050565b600080fd5b600080fd5b6000601f19601f8301169050919050565b7f4e487b7100000000000000000000000000000000000000000000000000000000600052604160045260246000fd5b610f8b82610f42565b810181811067ffffffffffffffff82111715610faa57610fa9610f53565b5b80604052505050565b6000610fbd610cd2565b9050610fc98282610f82565b919050565b600067ffffffffffffffff821115610fe957610fe8610f53565b5b610ff282610f42565b9050602081019050919050565b82818337600083830152505050565b600061102161101c84610fce565b610fb3565b90508281526020810184848401111561103d5761103c610f3d565b5b611048848285610fff565b509392505050565b600082601f83011261106557611064610f38565b5b813561107584826020860161100e565b91505092915050565b6000806040838503121561109557611094610cdc565b5b60006110a385828601610dea565b925050602083013567ffffffffffffffff8111156110c4576110c3610ce1565b5b6110d085828601611050565b9150509250929050565b6000819050919050565b6110ed816110da565b82525050565b600060208201905061110860008301846110e4565b92915050565b61111781610dc1565b82525050565b6000602082019050611132600083018461110e565b92915050565b600082825260208201905092915050565b7f46756e6374696f6e206d7573742062652063616c6c6564207468726f7567682060008201527f64656c656761746563616c6c0000000000000000000000000000000000000000602082015250565b60006111a5602c83611138565b91506111b082611149565b604082019050919050565b600060208201905081810360008301526111d481611198565b9050919050565b7f46756e6374696f6e206d7573742062652063616c6c6564207468726f7567682060008201527f6163746976652070726f78790000000000000000000000000000000000000000602082015250565b6000611237602c83611138565b9150611242826111db565b604082019050919050565b600060208201905081810360008301526112668161122a565b9050919050565b7f555550535570677261646561626c653a206d757374206e6f742062652063616c60008201527f6c6564207468726f7567682064656c656761746563616c6c0000000000000000602082015250565b60006112c9603883611138565b91506112d48261126d565b604082019050919050565b600060208201905081810360008301526112f8816112bc565b9050919050565b611308816110da565b811461131357600080fd5b50565b600081519050611325816112ff565b92915050565b60006020828403121561134157611340610cdc565b5b600061134f84828501611316565b91505092915050565b7f45524331393637557067726164653a206e657720696d706c656d656e7461746960008201527f6f6e206973206e6f742055555053000000000000000000000000000000000000602082015250565b60006113b4602e83611138565b91506113bf82611358565b604082019050919050565b600060208201905081810360008301526113e3816113a7565b9050919050565b7f45524331393637557067726164653a20756e737570706f727465642070726f7860008201527f6961626c65555549440000000000000000000000000000000000000000000000602082015250565b6000611446602983611138565b9150611451826113ea565b604082019050919050565b6000602082019050818103600083015261147581611439565b9050919050565b600082825260208201905092915050565b6000611499838561147c565b93506114a6838584610fff565b6114af83610f42565b840190509392505050565b60006080820190506114cf600083018861110e565b6114dc602083018761110e565b6114e960408301866110e4565b81810360608301526114fc81848661148d565b90509695505050505050565b61151181610d6b565b811461151c57600080fd5b50565b60008151905061152e81611508565b92915050565b60006020828403121561154a57611549610cdc565b5b60006115588482850161151f565b91505092915050565b6000608082019050611576600083018761110e565b611583602083018661110e565b611590604083018561110e565b61159d60608301846110e4565b95945050505050565b7f455243313936373a206e657720696d706c656d656e746174696f6e206973206e60008201527f6f74206120636f6e747261637400000000000000000000000000000000000000602082015250565b6000611602602d83611138565b915061160d826115a6565b604082019050919050565b60006020820190508181036000830152611631816115f5565b9050919050565b7f416464726573733a2064656c65676174652063616c6c20746f206e6f6e2d636f60008201527f6e74726163740000000000000000000000000000000000000000000000000000602082015250565b6000611694602683611138565b915061169f82611638565b604082019050919050565b600060208201905081810360008301526116c381611687565b9050919050565b600081519050919050565b600081905092915050565b60005b838110156116fe5780820151818401526020810190506116e3565b60008484015250505050565b6000611715826116ca565b61171f81856116d5565b935061172f8185602086016116e0565b80840191505092915050565b6000611747828461170a565b915081905092915050565b600081519050919050565b600061176882611752565b6117728185611138565b93506117828185602086016116e0565b61178b81610f42565b840191505092915050565b600060208201905081810360008301526117b0818461175d565b90509291505056fe416464726573733a206c6f772d6c6576656c2064656c65676174652063616c6c206661696c6564a264697066735822122060efab3152547481241fe4a8e77d0a834f44e314ef30da62e746f9653d03cb5e64736f6c63430008110033",
  "immutableReferences": {
    "991": [
      {
        "length": 32,
        "start": 701
      },
      {
        "length": 32,
        "start": 843
      },
      {
        "length": 32,
        "start": 1140
      },
      {
        "length": 32,
        "start": 1282
      },
      {
        "length": 32,
        "start": 1458
      }
    ]
  },
  "source": "// #SDPXJDSFJSDLFJDLJ\npragma solidity ^0.8.0;\n\nimport {PluginUUPSUpgradeable, IDAO} from \"@aragon/osx/core/plugin/PluginUUPSUpgradeable.sol\";\n\ncontract Whitelisting is PluginUUPSUpgradeable {}\n",
  "sourcePath": "/Users/mik-0/Documents/GitHub/SecureSECOVerification/block-uups/contracts/Whitelisting.sol",
  "compiler": {
    "name": "solc",
    "version": "0.8.17+commit.8df45f5f.Emscripten.clang"
  },
  "schemaVersion": "3.4.12",
  "updatedAt": "2023-03-20T14:20:41.036Z",
  "devdoc": {
    "errors": {
      "DaoUnauthorized(address,address,address,bytes32)": [
        {
          "params": {
            "dao": "The associated DAO.",
            "permissionId": "The permission identifier.",
            "where": "The context in which the authorization reverted.",
            "who": "The address (EOA or contract) missing the permission."
          }
        }
      ]
    },
    "kind": "dev",
    "methods": {
      "dao()": {
        "returns": {
          "_0": "The DAO contract."
        }
      },
      "implementation()": {
        "returns": {
          "_0": "The address of the implementation contract."
        }
      },
      "proxiableUUID()": {
        "details": "Implementation of the ERC1822 {proxiableUUID} function. This returns the storage slot used by the implementation. It is used to validate the implementation's compatibility when performing an upgrade. IMPORTANT: A proxy pointing at a proxiable contract should not be considered proxiable itself, because this risks bricking a proxy that upgrades to it, by delegating to itself until out of gas. Thus it is critical that this function revert if invoked through a proxy. This is guaranteed by the `notDelegated` modifier."
      },
      "supportsInterface(bytes4)": {
        "params": {
          "_interfaceId": "The ID of the interface."
        },
        "returns": {
          "_0": "Returns `true` if the interface is supported."
        }
      },
      "upgradeTo(address)": {
        "details": "Upgrade the implementation of the proxy to `newImplementation`. Calls {_authorizeUpgrade}. Emits an {Upgraded} event."
      },
      "upgradeToAndCall(address,bytes)": {
        "details": "Upgrade the implementation of the proxy to `newImplementation`, and subsequently execute the function call encoded in `data`. Calls {_authorizeUpgrade}. Emits an {Upgraded} event."
      }
    },
    "version": 1
  },
  "userdoc": {
    "errors": {
      "DaoUnauthorized(address,address,address,bytes32)": [
        {
          "notice": "Thrown if a call is unauthorized in the associated DAO."
        }
      ]
    },
    "kind": "user",
    "methods": {
      "UPGRADE_PLUGIN_PERMISSION_ID()": {
        "notice": "The ID of the permission required to call the `_authorizeUpgrade` function."
      },
      "dao()": {
        "notice": "Returns the DAO contract."
      },
      "implementation()": {
        "notice": "Returns the address of the implementation contract in the [proxy storage slot](https://eips.ethereum.org/EIPS/eip-1967) slot the [UUPS proxy](https://eips.ethereum.org/EIPS/eip-1822) is pointing to."
      },
      "pluginType()": {
        "notice": "returns the plugin's type"
      },
      "supportsInterface(bytes4)": {
        "notice": "Checks if an interface is supported by this or its parent contract."
      }
    },
    "version": 1
  }
}