{
  "contractName": "GithubVerification",
  "abi": [
    {
      "inputs": [],
      "stateMutability": "nonpayable",
      "type": "constructor"
    },
    {
      "inputs": [
        {
          "internalType": "address",
          "name": "_toVerify",
          "type": "address"
        },
        {
          "internalType": "string",
          "name": "_providerId",
          "type": "string"
        },
        {
          "internalType": "string",
          "name": "_hash",
          "type": "string"
        }
      ],
      "name": "verifyAddress",
      "outputs": [],
      "stateMutability": "nonpayable",
      "type": "function"
    },
    {
      "inputs": [
        {
          "internalType": "address",
          "name": "_toCheck",
          "type": "address"
        }
      ],
      "name": "getStamps",
      "outputs": [
        {
          "components": [
            {
              "internalType": "string",
              "name": "id",
              "type": "string"
            },
            {
              "internalType": "string",
              "name": "_hash",
              "type": "string"
            },
            {
              "internalType": "uint256",
              "name": "verifiedAt",
              "type": "uint256"
            }
          ],
          "internalType": "struct GithubVerification.Stamp[]",
          "name": "",
          "type": "tuple[]"
        }
      ],
      "stateMutability": "view",
      "type": "function",
      "constant": true
    },
    {
      "inputs": [
        {
          "internalType": "uint256",
          "name": "_days",
          "type": "uint256"
        }
      ],
      "name": "setVerifyDayThreshold",
      "outputs": [],
      "stateMutability": "nonpayable",
      "type": "function"
    }
  ],
  "bytecode": "0x60a0604052603c60025534801561001557600080fd5b503373ffffffffffffffffffffffffffffffffffffffff1660808173ffffffffffffffffffffffffffffffffffffffff168152505060805161172e6100736000396000818161027b015281816103130152610a03015261172e6000f3fe608060405234801561001057600080fd5b50600436106100415760003560e01c80631a3719321461004657806337bf86b314610076578063b958f9b414610092575b600080fd5b610060600480360381019061005b9190610b9e565b6100ae565b60405161006d9190610d8d565b60405180910390f35b610090600480360381019061008b9190610ddb565b610279565b005b6100ac60048036038101906100a79190610e6d565b610311565b005b60606000808373ffffffffffffffffffffffffffffffffffffffff1673ffffffffffffffffffffffffffffffffffffffff168152602001908152602001600020805480602002602001604051908101604052809291908181526020016000905b8282101561026e578382906000526020600020906003020160405180606001604052908160008201805461014190610f31565b80601f016020809104026020016040519081016040528092919081815260200182805461016d90610f31565b80156101ba5780601f1061018f576101008083540402835291602001916101ba565b820191906000526020600020905b81548152906001019060200180831161019d57829003601f168201915b505050505081526020016001820180546101d390610f31565b80601f01602080910402602001604051908101604052809291908181526020018280546101ff90610f31565b801561024c5780601f106102215761010080835404028352916020019161024c565b820191906000526020600020905b81548152906001019060200180831161022f57829003601f168201915b505050505081526020016002820154815250508152602001906001019061010e565b505050509050919050565b7f000000000000000000000000000000000000000000000000000000000000000073ffffffffffffffffffffffffffffffffffffffff163373ffffffffffffffffffffffffffffffffffffffff1614610307576040517f08c379a00000000000000000000000000000000000000000000000000000000081526004016102fe90610fbf565b60405180910390fd5b8060028190555050565b7f000000000000000000000000000000000000000000000000000000000000000073ffffffffffffffffffffffffffffffffffffffff163373ffffffffffffffffffffffffffffffffffffffff161461039f576040517f08c379a000000000000000000000000000000000000000000000000000000000815260040161039690610fbf565b60405180910390fd5b600073ffffffffffffffffffffffffffffffffffffffff16600183836040516103c992919061101e565b908152602001604051809103902060009054906101000a900473ffffffffffffffffffffffffffffffffffffffff1673ffffffffffffffffffffffffffffffffffffffff16148061048557508473ffffffffffffffffffffffffffffffffffffffff166001838360405161043e92919061101e565b908152602001604051809103902060009054906101000a900473ffffffffffffffffffffffffffffffffffffffff1673ffffffffffffffffffffffffffffffffffffffff16145b6104c4576040517f08c379a00000000000000000000000000000000000000000000000000000000081526004016104bb906110a9565b60405180910390fd5b600073ffffffffffffffffffffffffffffffffffffffff168573ffffffffffffffffffffffffffffffffffffffff1603610533576040517f08c379a000000000000000000000000000000000000000000000000000000000815260040161052a90611115565b60405180910390fd5b60008060005b6000808973ffffffffffffffffffffffffffffffffffffffff1673ffffffffffffffffffffffffffffffffffffffff1681526020019081526020016000208054905081101561065657868660405160200161059592919061101e565b604051602081830303815290604052805190602001206000808a73ffffffffffffffffffffffffffffffffffffffff1673ffffffffffffffffffffffffffffffffffffffff16815260200190815260200160002082815481106105fb576105fa611135565b5b906000526020600020906003020160000160405160200161061c91906111fc565b60405160208183030381529060405280519060200120036106435760019250809150610656565b808061064e90611242565b915050610539565b5081610792576000808873ffffffffffffffffffffffffffffffffffffffff1673ffffffffffffffffffffffffffffffffffffffff16815260200190815260200160002061072c87878080601f016020809104026020016040519081016040528093929190818152602001838380828437600081840152601f19601f8201169050808301925050505050505086868080601f016020809104026020016040519081016040528093929190818152602001838380828437600081840152601f19601f820116905080830192505050505050506109f9565b9080600181540180825580915050600190039060005260206000209060030201600090919091909150600082015181600001908161076a9190611450565b5060208201518160010190816107809190611450565b50604082015181600201555050610991565b60008060008973ffffffffffffffffffffffffffffffffffffffff1673ffffffffffffffffffffffffffffffffffffffff16815260200190815260200160002082815481106107e4576107e3611135565b5b906000526020600020906003020160020154426108019190611522565b905062015180600280546108159190611585565b61081f91906115b6565b811115610954576108b887878080601f016020809104026020016040519081016040528093929190818152602001838380828437600081840152601f19601f8201169050808301925050505050505086868080601f016020809104026020016040519081016040528093929190818152602001838380828437600081840152601f19601f820116905080830192505050505050506109f9565b6000808a73ffffffffffffffffffffffffffffffffffffffff1673ffffffffffffffffffffffffffffffffffffffff168152602001908152602001600020838154811061090857610907611135565b5b9060005260206000209060030201600082015181600001908161092b9190611450565b5060208201518160010190816109419190611450565b506040820151816002015590505061098f565b6040517f08c379a000000000000000000000000000000000000000000000000000000000815260040161098690611690565b60405180910390fd5b505b86600185856040516109a492919061101e565b908152602001604051809103902060006101000a81548173ffffffffffffffffffffffffffffffffffffffff021916908373ffffffffffffffffffffffffffffffffffffffff16021790555050505050505050565b610a01610b15565b7f000000000000000000000000000000000000000000000000000000000000000073ffffffffffffffffffffffffffffffffffffffff163373ffffffffffffffffffffffffffffffffffffffff1614610a8f576040517f08c379a0000000000000000000000000000000000000000000000000000000008152600401610a8690610fbf565b60405180910390fd5b6000604051806060016040528085815260200184815260200142815250905033600184604051610abf91906116e1565b908152602001604051809103902060006101000a81548173ffffffffffffffffffffffffffffffffffffffff021916908373ffffffffffffffffffffffffffffffffffffffff1602179055508091505092915050565b60405180606001604052806060815260200160608152602001600081525090565b600080fd5b600080fd5b600073ffffffffffffffffffffffffffffffffffffffff82169050919050565b6000610b6b82610b40565b9050919050565b610b7b81610b60565b8114610b8657600080fd5b50565b600081359050610b9881610b72565b92915050565b600060208284031215610bb457610bb3610b36565b5b6000610bc284828501610b89565b91505092915050565b600081519050919050565b600082825260208201905092915050565b6000819050602082019050919050565b600081519050919050565b600082825260208201905092915050565b60005b83811015610c31578082015181840152602081019050610c16565b60008484015250505050565b6000601f19601f8301169050919050565b6000610c5982610bf7565b610c638185610c02565b9350610c73818560208601610c13565b610c7c81610c3d565b840191505092915050565b6000819050919050565b610c9a81610c87565b82525050565b60006060830160008301518482036000860152610cbd8282610c4e565b91505060208301518482036020860152610cd78282610c4e565b9150506040830151610cec6040860182610c91565b508091505092915050565b6000610d038383610ca0565b905092915050565b6000602082019050919050565b6000610d2382610bcb565b610d2d8185610bd6565b935083602082028501610d3f85610be7565b8060005b85811015610d7b5784840389528151610d5c8582610cf7565b9450610d6783610d0b565b925060208a01995050600181019050610d43565b50829750879550505050505092915050565b60006020820190508181036000830152610da78184610d18565b905092915050565b610db881610c87565b8114610dc357600080fd5b50565b600081359050610dd581610daf565b92915050565b600060208284031215610df157610df0610b36565b5b6000610dff84828501610dc6565b91505092915050565b600080fd5b600080fd5b600080fd5b60008083601f840112610e2d57610e2c610e08565b5b8235905067ffffffffffffffff811115610e4a57610e49610e0d565b5b602083019150836001820283011115610e6657610e65610e12565b5b9250929050565b600080600080600060608688031215610e8957610e88610b36565b5b6000610e9788828901610b89565b955050602086013567ffffffffffffffff811115610eb857610eb7610b3b565b5b610ec488828901610e17565b9450945050604086013567ffffffffffffffff811115610ee757610ee6610b3b565b5b610ef388828901610e17565b92509250509295509295909350565b7f4e487b7100000000000000000000000000000000000000000000000000000000600052602260045260246000fd5b60006002820490506001821680610f4957607f821691505b602082108103610f5c57610f5b610f02565b5b50919050565b600082825260208201905092915050565b7f4f776e61626c653a2063616c6c6572206973206e6f7420746865206f776e6572600082015250565b6000610fa9602083610f62565b9150610fb482610f73565b602082019050919050565b60006020820190508181036000830152610fd881610f9c565b9050919050565b600081905092915050565b82818337600083830152505050565b60006110058385610fdf565b9350611012838584610fea565b82840190509392505050565b600061102b828486610ff9565b91508190509392505050565b7f494420616c726561647920616666696c6961746564207769746820616e6f746860008201527f6572206164647265737300000000000000000000000000000000000000000000602082015250565b6000611093602a83610f62565b915061109e82611037565b604082019050919050565b600060208201905081810360008301526110c281611086565b9050919050565b7f416464726573732063616e6e6f74206265203078300000000000000000000000600082015250565b60006110ff601583610f62565b915061110a826110c9565b602082019050919050565b6000602082019050818103600083015261112e816110f2565b9050919050565b7f4e487b7100000000000000000000000000000000000000000000000000000000600052603260045260246000fd5b60008190508160005260206000209050919050565b6000815461118681610f31565b6111908186610fdf565b945060018216600081146111ab57600181146111c0576111f3565b60ff19831686528115158202860193506111f3565b6111c985611164565b60005b838110156111eb578154818901526001820191506020810190506111cc565b838801955050505b50505092915050565b60006112088284611179565b915081905092915050565b7f4e487b7100000000000000000000000000000000000000000000000000000000600052601160045260246000fd5b600061124d82610c87565b91507fffffffffffffffffffffffffffffffffffffffffffffffffffffffffffffffff820361127f5761127e611213565b5b600182019050919050565b7f4e487b7100000000000000000000000000000000000000000000000000000000600052604160045260246000fd5b60006020601f8301049050919050565b600082821b905092915050565b6000600883026113067fffffffffffffffffffffffffffffffffffffffffffffffffffffffffffffffff826112c9565b61131086836112c9565b95508019841693508086168417925050509392505050565b6000819050919050565b600061134d61134861134384610c87565b611328565b610c87565b9050919050565b6000819050919050565b61136783611332565b61137b61137382611354565b8484546112d6565b825550505050565b600090565b611390611383565b61139b81848461135e565b505050565b5b818110156113bf576113b4600082611388565b6001810190506113a1565b5050565b601f821115611404576113d581611164565b6113de846112b9565b810160208510156113ed578190505b6114016113f9856112b9565b8301826113a0565b50505b505050565b600082821c905092915050565b600061142760001984600802611409565b1980831691505092915050565b60006114408383611416565b9150826002028217905092915050565b61145982610bf7565b67ffffffffffffffff8111156114725761147161128a565b5b61147c8254610f31565b6114878282856113c3565b600060209050601f8311600181146114ba57600084156114a8578287015190505b6114b28582611434565b86555061151a565b601f1984166114c886611164565b60005b828110156114f0578489015182556001820191506020850194506020810190506114cb565b8683101561150d5784890151611509601f891682611416565b8355505b6001600288020188555050505b505050505050565b600061152d82610c87565b915061153883610c87565b92508282039050818111156115505761154f611213565b5b92915050565b7f4e487b7100000000000000000000000000000000000000000000000000000000600052601260045260246000fd5b600061159082610c87565b915061159b83610c87565b9250826115ab576115aa611556565b5b828204905092915050565b60006115c182610c87565b91506115cc83610c87565b92508282026115da81610c87565b915082820484148315176115f1576115f0611213565b5b5092915050565b7f4164647265737320616c72656164792076657269666965643b2063616e6e6f7460008201527f2072652d766572696679207965742c2077616974206174206c6561737420686160208201527f6c6620746865207665726966794461795468726573686f6c6400000000000000604082015250565b600061167a605983610f62565b9150611685826115f8565b606082019050919050565b600060208201905081810360008301526116a98161166d565b9050919050565b60006116bb82610bf7565b6116c58185610fdf565b93506116d5818560208601610c13565b80840191505092915050565b60006116ed82846116b0565b91508190509291505056fea26469706673582212200e2a756bbe0bcc00d27be59614b3032a7f2de76d2c265c6025e7a220d5276fc764736f6c63430008120033",
  "immutableReferences": {
    "14": [
      {
        "length": 32,
        "start": 635
      },
      {
        "length": 32,
        "start": 787
      },
      {
        "length": 32,
        "start": 2563
      }
    ]
  },
  "source": "// SPDX-License-Identifier: MIT\npragma solidity ^0.8.0;\n\n/// @title A contract to verify addresses\n/// @author TYM Wu\n/// @notice You can use this contract to verify addresses\ncontract GithubVerification {\n    mapping(address => Stamp[]) internal stamps;\n    mapping(string => address) internal stampHashMap;\n\n    address private immutable _owner;\n\n    uint verifyDayThreshold = 60;\n\n    struct Stamp {\n        string id;\n        string _hash;\n        uint verifiedAt;\n    }\n\n    /// @notice This constructor sets the owner of the contract\n    constructor() {\n        _owner = msg.sender;\n    }\n\n    /// @notice This function can only be called by the owner, and it verifies an address. It's not possible to re-verofuy an address before half the verifyDayThreshold has passed.\n    /// @dev Verifies an address\n    /// @param _toVerify The address to verify\n    function verifyAddress(\n        address _toVerify,\n        string calldata _providerId,\n        string calldata _hash\n    ) external onlyOwner {\n        require(\n            stampHashMap[_hash] == address(0) ||\n                stampHashMap[_hash] == _toVerify,\n            \"ID already affiliated with another address\"\n        );\n\n        require(_toVerify != address(0), \"Address cannot be 0x0\");\n\n        // Check if there is existing stamp with providerId\n        bool found = false;\n        uint foundIndex = 0;\n\n        for (uint i = 0; i < stamps[_toVerify].length; i++) {\n            if (\n                keccak256(abi.encodePacked(stamps[_toVerify][i].id)) ==\n                keccak256(abi.encodePacked(_providerId))\n            ) {\n                found = true;\n                foundIndex = i;\n                break;\n            }\n        }\n\n        if (!found) {\n            stamps[_toVerify].push(createStamp(_providerId, _hash));\n        } else {\n            // Check how long it has been since the last verification\n            uint timeSinceLastVerification = block.timestamp -\n                stamps[_toVerify][foundIndex].verifiedAt;\n\n            // If it has been more than (verifyDayThreshold / 2) days, update the stamp\n            if (timeSinceLastVerification > (verifyDayThreshold / 2) * 1 days) {\n                stamps[_toVerify][foundIndex] = createStamp(_providerId, _hash);\n            } else {\n                revert(\n                    \"Address already verified; cannot re-verify yet, wait at least half the verifyDayThreshold\"\n                );\n            }\n        }\n\n        stampHashMap[_hash] = _toVerify;\n    }\n\n    function createStamp(\n        string memory _id,\n        string memory _usernameHash\n    ) internal onlyOwner returns (Stamp memory) {\n        Stamp memory stamp = Stamp(_id, _usernameHash, block.timestamp);\n        stampHashMap[_usernameHash] = msg.sender;\n        return stamp;\n    }\n\n    /// @notice This function checks if an address is verified and if the address has been verified recently (within the set verifyDayThreshold)\n    /// @param _toCheck The address to check\n    /// @return A boolean indicating if the address is verified\n    // function addressIsVerified(address _toCheck) external view returns (bool) {\n    //     if (\n    //         verifiedTimeMap[_toCheck] + (verifyDayThreshold * 1 days) <\n    //         block.timestamp\n    //     ) return false;\n\n    //     return verifiedTimeMap[_toCheck] > 0;\n    // }\n\n    /// @notice This function returns the stamps of an address\n    /// @param _toCheck The address to check\n    /// @return An array of stamps\n    function getStamps(\n        address _toCheck\n    ) external view returns (Stamp[] memory) {\n        return stamps[_toCheck];\n    }\n\n    /// @notice This function can only be called by the owner, and it sets the verifyDayThreshold\n    /// @dev Sets the verifyDayThreshold\n    /// @param _days The number of days to set the verifyDayThreshold to\n    function setVerifyDayThreshold(uint _days) external onlyOwner {\n        verifyDayThreshold = _days;\n    }\n\n    modifier onlyOwner() {\n        require(msg.sender == _owner, \"Ownable: caller is not the owner\");\n        _;\n    }\n}\n",
  "sourcePath": "/Users/mik-0/Documents/GitHub/SecureSECOVerification/block/contracts/GithubVerification.sol",
  "compiler": {
    "name": "solc",
    "version": "0.8.18+commit.87f61d96.Emscripten.clang"
  },
  "schemaVersion": "3.4.12",
  "updatedAt": "2023-03-14T13:29:12.905Z",
  "networkType": "ethereum",
  "devdoc": {
    "author": "TYM Wu",
    "kind": "dev",
    "methods": {
      "getStamps(address)": {
        "params": {
          "_toCheck": "The address to check"
        },
        "returns": {
          "_0": "An array of stamps"
        }
      },
      "setVerifyDayThreshold(uint256)": {
        "details": "Sets the verifyDayThreshold",
        "params": {
          "_days": "The number of days to set the verifyDayThreshold to"
        }
      },
      "verifyAddress(address,string,string)": {
        "details": "Verifies an address",
        "params": {
          "_toVerify": "The address to verify"
        }
      }
    },
    "title": "A contract to verify addresses",
    "version": 1
  },
  "userdoc": {
    "kind": "user",
    "methods": {
      "constructor": {
        "notice": "This constructor sets the owner of the contract"
      },
      "getStamps(address)": {
        "notice": "This function returns the stamps of an address"
      },
      "setVerifyDayThreshold(uint256)": {
        "notice": "This function can only be called by the owner, and it sets the verifyDayThreshold"
      },
      "verifyAddress(address,string,string)": {
        "notice": "This function can only be called by the owner, and it verifies an address. It's not possible to re-verofuy an address before half the verifyDayThreshold has passed."
      }
    },
    "notice": "You can use this contract to verify addresses",
    "version": 1
  }
}