{
  "contractName": "GithubVerification",
  "abi": [
    {
      "inputs": [
        {
          "internalType": "uint64",
          "name": "_threshold",
          "type": "uint64"
        }
      ],
      "stateMutability": "nonpayable",
      "type": "constructor"
    },
    {
      "inputs": [
        {
          "internalType": "bytes32",
          "name": "_messageHash",
          "type": "bytes32"
        }
      ],
      "name": "getEthSignedMessageHash",
      "outputs": [
        {
          "internalType": "bytes32",
          "name": "",
          "type": "bytes32"
        }
      ],
      "stateMutability": "pure",
      "type": "function",
      "constant": true
    },
    {
      "inputs": [
        {
          "internalType": "address",
          "name": "_toVerify",
          "type": "address"
        },
        {
          "internalType": "string",
          "name": "_userHash",
          "type": "string"
        },
        {
          "internalType": "uint256",
          "name": "_timestamp",
          "type": "uint256"
        }
      ],
      "name": "getMessageHash",
      "outputs": [
        {
          "internalType": "bytes32",
          "name": "",
          "type": "bytes32"
        }
      ],
      "stateMutability": "pure",
      "type": "function",
      "constant": true
    },
    {
      "inputs": [
        {
          "internalType": "address",
          "name": "_toVerify",
          "type": "address"
        },
        {
          "internalType": "string",
          "name": "_userHash",
          "type": "string"
        },
        {
          "internalType": "uint256",
          "name": "_timestamp",
          "type": "uint256"
        }
      ],
      "name": "getPackedMessage",
      "outputs": [
        {
          "internalType": "bytes",
          "name": "",
          "type": "bytes"
        }
      ],
      "stateMutability": "pure",
      "type": "function",
      "constant": true
    },
    {
      "inputs": [
        {
          "internalType": "bytes32",
          "name": "_ethSignedMessageHash",
          "type": "bytes32"
        },
        {
          "internalType": "bytes",
          "name": "_signature",
          "type": "bytes"
        }
      ],
      "name": "recoverSigner",
      "outputs": [
        {
          "internalType": "address",
          "name": "",
          "type": "address"
        }
      ],
      "stateMutability": "pure",
      "type": "function",
      "constant": true
    },
    {
      "inputs": [
        {
          "internalType": "bytes",
          "name": "sig",
          "type": "bytes"
        }
      ],
      "name": "splitSignature",
      "outputs": [
        {
          "internalType": "bytes32",
          "name": "r",
          "type": "bytes32"
        },
        {
          "internalType": "bytes32",
          "name": "s",
          "type": "bytes32"
        },
        {
          "internalType": "uint8",
          "name": "v",
          "type": "uint8"
        }
      ],
      "stateMutability": "pure",
      "type": "function",
      "constant": true
    },
    {
      "inputs": [
        {
          "internalType": "address",
          "name": "_signer",
          "type": "address"
        },
        {
          "internalType": "address",
          "name": "_toVerify",
          "type": "address"
        },
        {
          "internalType": "string",
          "name": "_userHash",
          "type": "string"
        },
        {
          "internalType": "uint256",
          "name": "_timestamp",
          "type": "uint256"
        },
        {
          "internalType": "bytes",
          "name": "_signature",
          "type": "bytes"
        }
      ],
      "name": "verify",
      "outputs": [
        {
          "internalType": "bool",
          "name": "",
          "type": "bool"
        }
      ],
      "stateMutability": "pure",
      "type": "function",
      "constant": true
    },
    {
      "inputs": [
        {
          "internalType": "address",
          "name": "_toVerify",
          "type": "address"
        },
        {
          "internalType": "string",
          "name": "_userHash",
          "type": "string"
        },
        {
          "internalType": "uint64",
          "name": "_timestamp",
          "type": "uint64"
        },
        {
          "internalType": "string",
          "name": "_providerId",
          "type": "string"
        },
        {
          "internalType": "bytes",
          "name": "_proofSignature",
          "type": "bytes"
        }
      ],
      "name": "verifyAddress",
      "outputs": [],
      "stateMutability": "nonpayable",
      "type": "function"
    },
    {
      "inputs": [
        {
          "internalType": "address",
          "name": "_toCheck",
          "type": "address"
        }
      ],
      "name": "getStamps",
      "outputs": [
        {
          "components": [
            {
              "internalType": "string",
              "name": "id",
              "type": "string"
            },
            {
              "internalType": "string",
              "name": "_hash",
              "type": "string"
            },
            {
              "internalType": "uint64[]",
              "name": "verifiedAt",
              "type": "uint64[]"
            }
          ],
          "internalType": "struct GithubVerification.Stamp[]",
          "name": "",
          "type": "tuple[]"
        }
      ],
      "stateMutability": "view",
      "type": "function",
      "constant": true
    },
    {
      "inputs": [
        {
          "internalType": "address",
          "name": "_toCheck",
          "type": "address"
        },
        {
          "internalType": "uint256",
          "name": "_timestamp",
          "type": "uint256"
        }
      ],
      "name": "getStampsAt",
      "outputs": [
        {
          "components": [
            {
              "internalType": "string",
              "name": "id",
              "type": "string"
            },
            {
              "internalType": "string",
              "name": "_hash",
              "type": "string"
            },
            {
              "internalType": "uint64[]",
              "name": "verifiedAt",
              "type": "uint64[]"
            }
          ],
          "internalType": "struct GithubVerification.Stamp[]",
          "name": "",
          "type": "tuple[]"
        }
      ],
      "stateMutability": "view",
      "type": "function",
      "constant": true
    },
    {
      "inputs": [
        {
          "internalType": "uint64",
          "name": "_days",
          "type": "uint64"
        }
      ],
      "name": "setVerifyDayThreshold",
      "outputs": [],
      "stateMutability": "nonpayable",
      "type": "function"
    },
    {
      "inputs": [],
      "name": "getThresholdHistory",
      "outputs": [
        {
          "components": [
            {
              "internalType": "uint64",
              "name": "timestamp",
              "type": "uint64"
            },
            {
              "internalType": "uint64",
              "name": "threshold",
              "type": "uint64"
            }
          ],
          "internalType": "struct GithubVerification.Threshold[]",
          "name": "",
          "type": "tuple[]"
        }
      ],
      "stateMutability": "view",
      "type": "function",
      "constant": true
    }
  ],
  "bytecode": "0x60a06040523480156200001157600080fd5b50604051620033d8380380620033d883398181016040528101906200003791906200016c565b600260405180604001604052804267ffffffffffffffff1681526020018367ffffffffffffffff168152509080600181540180825580915050600190039060005260206000200160009091909190915060008201518160000160006101000a81548167ffffffffffffffff021916908367ffffffffffffffff16021790555060208201518160000160086101000a81548167ffffffffffffffff021916908367ffffffffffffffff16021790555050503373ffffffffffffffffffffffffffffffffffffffff1660808173ffffffffffffffffffffffffffffffffffffffff1681525050506200019e565b600080fd5b600067ffffffffffffffff82169050919050565b620001468162000127565b81146200015257600080fd5b50565b60008151905062000166816200013b565b92915050565b60006020828403121562000185576200018462000122565b5b6000620001958482850162000155565b91505092915050565b608051613217620001c160003960008181610e7201526114e201526132176000f3fe608060405234801561001057600080fd5b50600436106100a95760003560e01c80637781752911610071578063778175291461018a57806397aba7f9146101ba578063a7bb5803146101ea578063ccd431e71461021c578063dce27f8e14610238578063fa54080114610256576100a9565b8063082d8f29146100ae5780631a371932146100de5780631e31549e1461010e57806350c315021461013e5780637688aa9d1461016e575b600080fd5b6100c860048036038101906100c39190611c0a565b610286565b6040516100d59190611c92565b60405180910390f35b6100f860048036038101906100f39190611cad565b6102a8565b6040516101059190611f4b565b60405180910390f35b6101286004803603810190610123919061206e565b6104f5565b604051610135919061213f565b60405180910390f35b6101586004803603810190610153919061215a565b61059c565b6040516101659190611f4b565b60405180910390f35b6101886004803603810190610183919061221c565b610c80565b005b6101a4600480360381019061019f9190611c0a565b6113da565b6040516101b1919061234d565b60405180910390f35b6101d460048036038101906101cf919061239b565b611409565b6040516101e19190612406565b60405180910390f35b61020460048036038101906101ff9190612421565b611478565b60405161021393929190612486565b60405180910390f35b610236600480360381019061023191906124bd565b6114e0565b005b61024061171e565b60405161024d91906125c8565b60405180910390f35b610270600480360381019061026b91906125ea565b6117dd565b60405161027d9190611c92565b60405180910390f35b6000806102948585856113da565b905080805190602001209150509392505050565b60606000808373ffffffffffffffffffffffffffffffffffffffff1673ffffffffffffffffffffffffffffffffffffffff168152602001908152602001600020805480602002602001604051908101604052809291908181526020016000905b828210156104ea578382906000526020600020906003020160405180606001604052908160008201805461033b90612646565b80601f016020809104026020016040519081016040528092919081815260200182805461036790612646565b80156103b45780601f10610389576101008083540402835291602001916103b4565b820191906000526020600020905b81548152906001019060200180831161039757829003601f168201915b505050505081526020016001820180546103cd90612646565b80601f01602080910402602001604051908101604052809291908181526020018280546103f990612646565b80156104465780601f1061041b57610100808354040283529160200191610446565b820191906000526020600020905b81548152906001019060200180831161042957829003601f168201915b50505050508152602001600282018054806020026020016040519081016040528092919081815260200182805480156104d257602002820191906000526020600020906000905b82829054906101000a900467ffffffffffffffff1667ffffffffffffffff168152602001906008019060208260070104928301926001038202915080841161048d5790505b50505050508152505081526020019060010190610308565b505050509050919050565b6000806105478787878080601f016020809104026020016040519081016040528093929190818152602001838380828437600081840152601f19601f8201169050808301925050505050505086610286565b90506000610554826117dd565b90508873ffffffffffffffffffffffffffffffffffffffff166105778286611409565b73ffffffffffffffffffffffffffffffffffffffff1614925050509695505050505050565b606060008060008573ffffffffffffffffffffffffffffffffffffffff1673ffffffffffffffffffffffffffffffffffffffff1681526020019081526020016000208054905067ffffffffffffffff8111156105fb576105fa611aa9565b5b60405190808252806020026020018201604052801561063457816020015b610621611922565b8152602001906001900390816106195790505b5090506000805b6000808773ffffffffffffffffffffffffffffffffffffffff1673ffffffffffffffffffffffffffffffffffffffff16815260200190815260200160002080549050811015610bc35760008060008873ffffffffffffffffffffffffffffffffffffffff1673ffffffffffffffffffffffffffffffffffffffff16815260200190815260200160002082815481106106d6576106d5612677565b5b90600052602060002090600302016002019050600060016002805490506106fd91906126d5565b90506000828054905090505b6000811115610bad575b6000821180156107b357506002828154811061073257610731612677565b5b9060005260206000200160000160089054906101000a900467ffffffffffffffff1667ffffffffffffffff168360018361076c91906126d5565b8154811061077d5761077c612677565b5b90600052602060002090600491828204019190066008029054906101000a900467ffffffffffffffff1667ffffffffffffffff16105b156107cb5781806107c390612709565b925050610713565b6000600283815481106107e1576107e0612677565b5b9060005260206000200160000160089054906101000a900467ffffffffffffffff1690508862015180826108159190612732565b8560018561082391906126d5565b8154811061083457610833612677565b5b90600052602060002090600491828204019190066008029054906101000a900467ffffffffffffffff16610868919061276f565b67ffffffffffffffff161180156108d05750888460018461088991906126d5565b8154811061089a57610899612677565b5b90600052602060002090600491828204019190066008029054906101000a900467ffffffffffffffff1667ffffffffffffffff16105b15610b20576000808b73ffffffffffffffffffffffffffffffffffffffff1673ffffffffffffffffffffffffffffffffffffffff168152602001908152602001600020858154811061092557610924612677565b5b906000526020600020906003020160405180606001604052908160008201805461094e90612646565b80601f016020809104026020016040519081016040528092919081815260200182805461097a90612646565b80156109c75780601f1061099c576101008083540402835291602001916109c7565b820191906000526020600020905b8154815290600101906020018083116109aa57829003601f168201915b505050505081526020016001820180546109e090612646565b80601f0160208091040260200160405190810160405280929190818152602001828054610a0c90612646565b8015610a595780601f10610a2e57610100808354040283529160200191610a59565b820191906000526020600020905b815481529060010190602001808311610a3c57829003601f168201915b5050505050815260200160028201805480602002602001604051908101604052809291908181526020018280548015610ae557602002820191906000526020600020906000905b82829054906101000a900467ffffffffffffffff1667ffffffffffffffff1681526020019060080190602082600701049283019260010382029150808411610aa05790505b505050505081525050878781518110610b0157610b00612677565b5b60200260200101819052508580610b17906127ab565b96505050610bad565b886201518082610b309190612732565b85600185610b3e91906126d5565b81548110610b4f57610b4e612677565b5b90600052602060002090600491828204019190066008029054906101000a900467ffffffffffffffff16610b83919061276f565b67ffffffffffffffff161015610b995750610bad565b508080610ba590612709565b915050610709565b5050508080610bbb906127ab565b91505061063b565b5060008167ffffffffffffffff811115610be057610bdf611aa9565b5b604051908082528060200260200182016040528015610c1957816020015b610c06611922565b815260200190600190039081610bfe5790505b50905060005b82811015610c7357838181518110610c3a57610c39612677565b5b6020026020010151828281518110610c5557610c54612677565b5b60200260200101819052508080610c6b906127ab565b915050610c1f565b5080935050505092915050565b600073ffffffffffffffffffffffffffffffffffffffff1660018888604051610caa929190612823565b908152602001604051809103902060009054906101000a900473ffffffffffffffffffffffffffffffffffffffff1673ffffffffffffffffffffffffffffffffffffffff161480610d6657508773ffffffffffffffffffffffffffffffffffffffff1660018888604051610d1f929190612823565b908152602001604051809103902060009054906101000a900473ffffffffffffffffffffffffffffffffffffffff1673ffffffffffffffffffffffffffffffffffffffff16145b610da5576040517f08c379a0000000000000000000000000000000000000000000000000000000008152600401610d9c906128bf565b60405180910390fd5b600073ffffffffffffffffffffffffffffffffffffffff168873ffffffffffffffffffffffffffffffffffffffff1603610e14576040517f08c379a0000000000000000000000000000000000000000000000000000000008152600401610e0b9061292b565b60405180910390fd5b610e1085610e22919061276f565b67ffffffffffffffff164210610e6d576040517f08c379a0000000000000000000000000000000000000000000000000000000008152600401610e64906129bd565b60405180910390fd5b610ee97f00000000000000000000000000000000000000000000000000000000000000008989898967ffffffffffffffff1687878080601f016020809104026020016040519081016040528093929190818152602001838380828437600081840152601f19601f820116905080830192505050505050506104f5565b610f28576040517f08c379a0000000000000000000000000000000000000000000000000000000008152600401610f1f90612a29565b60405180910390fd5b60008060005b6000808c73ffffffffffffffffffffffffffffffffffffffff1673ffffffffffffffffffffffffffffffffffffffff1681526020019081526020016000208054905081101561104b578686604051602001610f8a929190612823565b604051602081830303815290604052805190602001206000808d73ffffffffffffffffffffffffffffffffffffffff1673ffffffffffffffffffffffffffffffffffffffff1681526020019081526020016000208281548110610ff057610fef612677565b5b90600052602060002090600302016000016040516020016110119190612ae1565b6040516020818303038152906040528051906020012003611038576001925080915061104b565b8080611043906127ab565b915050610f2e565b508161119b576000808b73ffffffffffffffffffffffffffffffffffffffff1673ffffffffffffffffffffffffffffffffffffffff16815260200190815260200160002061112287878080601f016020809104026020016040519081016040528093929190818152602001838380828437600081840152601f19601f820116905080830192505050505050508b8b8080601f016020809104026020016040519081016040528093929190818152602001838380828437600081840152601f19601f820116905080830192505050505050508a61180d565b908060018154018082558091505060019003906000526020600020906003020160009091909190915060008201518160000190816111609190612c8f565b5060208201518160010190816111769190612c8f565b506040820151816002019080519060200190611193929190611943565b50505061136f565b60008060008c73ffffffffffffffffffffffffffffffffffffffff1673ffffffffffffffffffffffffffffffffffffffff16815260200190815260200160002082815481106111ed576111ec612677565b5b906000526020600020906003020160020190506000816001838054905061121491906126d5565b8154811061122557611224612677565b5b90600052602060002090600491828204019190066008029054906101000a900467ffffffffffffffff164261125a9190612d61565b905062015180600280600160028054905061127591906126d5565b8154811061128657611285612677565b5b9060005260206000200160000160089054906101000a900467ffffffffffffffff166112b29190612dcc565b6112bc9190612732565b67ffffffffffffffff168167ffffffffffffffff16111561133157818990806001815401808255809150506001900390600052602060002090600491828204019190066008029091909190916101000a81548167ffffffffffffffff021916908367ffffffffffffffff16021790555061136c565b6040517f08c379a000000000000000000000000000000000000000000000000000000000815260040161136390612e95565b60405180910390fd5b50505b8960018a8a604051611382929190612823565b908152602001604051809103902060006101000a81548173ffffffffffffffffffffffffffffffffffffffff021916908373ffffffffffffffffffffffffffffffffffffffff16021790555050505050505050505050565b60608383836040516020016113f193929190612f4f565b60405160208183030381529060405290509392505050565b60008060008061141885611478565b925092509250600186828585604051600081526020016040526040516114419493929190612f88565b6020604051602081039080840390855afa158015611463573d6000803e3d6000fd5b50505060206040510351935050505092915050565b600080600060418451146114c1576040517f08c379a00000000000000000000000000000000000000000000000000000000081526004016114b890613019565b60405180910390fd5b6020840151925060408401519150606084015160001a90509193909250565b7f000000000000000000000000000000000000000000000000000000000000000073ffffffffffffffffffffffffffffffffffffffff163373ffffffffffffffffffffffffffffffffffffffff161461156e576040517f08c379a000000000000000000000000000000000000000000000000000000000815260040161156590613085565b60405180910390fd5b60006002600160028054905061158491906126d5565b8154811061159557611594612677565b5b906000526020600020016040518060400160405290816000820160009054906101000a900467ffffffffffffffff1667ffffffffffffffff1667ffffffffffffffff1681526020016000820160089054906101000a900467ffffffffffffffff1667ffffffffffffffff1667ffffffffffffffff168152505090508167ffffffffffffffff16816020015167ffffffffffffffff160361166a576040517f08c379a000000000000000000000000000000000000000000000000000000000815260040161166190613117565b60405180910390fd5b600260405180604001604052804267ffffffffffffffff1681526020018467ffffffffffffffff168152509080600181540180825580915050600190039060005260206000200160009091909190915060008201518160000160006101000a81548167ffffffffffffffff021916908367ffffffffffffffff16021790555060208201518160000160086101000a81548167ffffffffffffffff021916908367ffffffffffffffff16021790555050505050565b60606002805480602002602001604051908101604052809291908181526020016000905b828210156117d4578382906000526020600020016040518060400160405290816000820160009054906101000a900467ffffffffffffffff1667ffffffffffffffff1667ffffffffffffffff1681526020016000820160089054906101000a900467ffffffffffffffff1667ffffffffffffffff1667ffffffffffffffff168152505081526020019060010190611742565b50505050905090565b6000816040516020016117f091906131a4565b604051602081830303815290604052805190602001209050919050565b611815611922565b6000600167ffffffffffffffff81111561183257611831611aa9565b5b6040519080825280602002602001820160405280156118605781602001602082028036833780820191505090505b509050828160008151811061187857611877612677565b5b602002602001019067ffffffffffffffff16908167ffffffffffffffff168152505060006040518060600160405280878152602001868152602001838152509050336001866040516118ca91906131ca565b908152602001604051809103902060006101000a81548173ffffffffffffffffffffffffffffffffffffffff021916908373ffffffffffffffffffffffffffffffffffffffff16021790555080925050509392505050565b60405180606001604052806060815260200160608152602001606081525090565b828054828255906000526020600020906003016004900481019282156119ee5791602002820160005b838211156119b857835183826101000a81548167ffffffffffffffff021916908367ffffffffffffffff160217905550926020019260080160208160070104928301926001030261196c565b80156119ec5782816101000a81549067ffffffffffffffff02191690556008016020816007010492830192600103026119b8565b505b5090506119fb91906119ff565b5090565b5b80821115611a18576000816000905550600101611a00565b5090565b6000604051905090565b600080fd5b600080fd5b600073ffffffffffffffffffffffffffffffffffffffff82169050919050565b6000611a5b82611a30565b9050919050565b611a6b81611a50565b8114611a7657600080fd5b50565b600081359050611a8881611a62565b92915050565b600080fd5b600080fd5b6000601f19601f8301169050919050565b7f4e487b7100000000000000000000000000000000000000000000000000000000600052604160045260246000fd5b611ae182611a98565b810181811067ffffffffffffffff82111715611b0057611aff611aa9565b5b80604052505050565b6000611b13611a1c565b9050611b1f8282611ad8565b919050565b600067ffffffffffffffff821115611b3f57611b3e611aa9565b5b611b4882611a98565b9050602081019050919050565b82818337600083830152505050565b6000611b77611b7284611b24565b611b09565b905082815260208101848484011115611b9357611b92611a93565b5b611b9e848285611b55565b509392505050565b600082601f830112611bbb57611bba611a8e565b5b8135611bcb848260208601611b64565b91505092915050565b6000819050919050565b611be781611bd4565b8114611bf257600080fd5b50565b600081359050611c0481611bde565b92915050565b600080600060608486031215611c2357611c22611a26565b5b6000611c3186828701611a79565b935050602084013567ffffffffffffffff811115611c5257611c51611a2b565b5b611c5e86828701611ba6565b9250506040611c6f86828701611bf5565b9150509250925092565b6000819050919050565b611c8c81611c79565b82525050565b6000602082019050611ca76000830184611c83565b92915050565b600060208284031215611cc357611cc2611a26565b5b6000611cd184828501611a79565b91505092915050565b600081519050919050565b600082825260208201905092915050565b6000819050602082019050919050565b600081519050919050565b600082825260208201905092915050565b60005b83811015611d40578082015181840152602081019050611d25565b60008484015250505050565b6000611d5782611d06565b611d618185611d11565b9350611d71818560208601611d22565b611d7a81611a98565b840191505092915050565b600081519050919050565b600082825260208201905092915050565b6000819050602082019050919050565b600067ffffffffffffffff82169050919050565b611dce81611db1565b82525050565b6000611de08383611dc5565b60208301905092915050565b6000602082019050919050565b6000611e0482611d85565b611e0e8185611d90565b9350611e1983611da1565b8060005b83811015611e4a578151611e318882611dd4565b9750611e3c83611dec565b925050600181019050611e1d565b5085935050505092915050565b60006060830160008301518482036000860152611e748282611d4c565b91505060208301518482036020860152611e8e8282611d4c565b91505060408301518482036040860152611ea88282611df9565b9150508091505092915050565b6000611ec18383611e57565b905092915050565b6000602082019050919050565b6000611ee182611cda565b611eeb8185611ce5565b935083602082028501611efd85611cf6565b8060005b85811015611f395784840389528151611f1a8582611eb5565b9450611f2583611ec9565b925060208a01995050600181019050611f01565b50829750879550505050505092915050565b60006020820190508181036000830152611f658184611ed6565b905092915050565b600080fd5b600080fd5b60008083601f840112611f8d57611f8c611a8e565b5b8235905067ffffffffffffffff811115611faa57611fa9611f6d565b5b602083019150836001820283011115611fc657611fc5611f72565b5b9250929050565b600067ffffffffffffffff821115611fe857611fe7611aa9565b5b611ff182611a98565b9050602081019050919050565b600061201161200c84611fcd565b611b09565b90508281526020810184848401111561202d5761202c611a93565b5b612038848285611b55565b509392505050565b600082601f83011261205557612054611a8e565b5b8135612065848260208601611ffe565b91505092915050565b60008060008060008060a0878903121561208b5761208a611a26565b5b600061209989828a01611a79565b96505060206120aa89828a01611a79565b955050604087013567ffffffffffffffff8111156120cb576120ca611a2b565b5b6120d789828a01611f77565b945094505060606120ea89828a01611bf5565b925050608087013567ffffffffffffffff81111561210b5761210a611a2b565b5b61211789828a01612040565b9150509295509295509295565b60008115159050919050565b61213981612124565b82525050565b60006020820190506121546000830184612130565b92915050565b6000806040838503121561217157612170611a26565b5b600061217f85828601611a79565b925050602061219085828601611bf5565b9150509250929050565b6121a381611db1565b81146121ae57600080fd5b50565b6000813590506121c08161219a565b92915050565b60008083601f8401126121dc576121db611a8e565b5b8235905067ffffffffffffffff8111156121f9576121f8611f6d565b5b60208301915083600182028301111561221557612214611f72565b5b9250929050565b60008060008060008060008060a0898b03121561223c5761223b611a26565b5b600061224a8b828c01611a79565b985050602089013567ffffffffffffffff81111561226b5761226a611a2b565b5b6122778b828c01611f77565b9750975050604061228a8b828c016121b1565b955050606089013567ffffffffffffffff8111156122ab576122aa611a2b565b5b6122b78b828c01611f77565b9450945050608089013567ffffffffffffffff8111156122da576122d9611a2b565b5b6122e68b828c016121c6565b92509250509295985092959890939650565b600081519050919050565b600082825260208201905092915050565b600061231f826122f8565b6123298185612303565b9350612339818560208601611d22565b61234281611a98565b840191505092915050565b600060208201905081810360008301526123678184612314565b905092915050565b61237881611c79565b811461238357600080fd5b50565b6000813590506123958161236f565b92915050565b600080604083850312156123b2576123b1611a26565b5b60006123c085828601612386565b925050602083013567ffffffffffffffff8111156123e1576123e0611a2b565b5b6123ed85828601612040565b9150509250929050565b61240081611a50565b82525050565b600060208201905061241b60008301846123f7565b92915050565b60006020828403121561243757612436611a26565b5b600082013567ffffffffffffffff81111561245557612454611a2b565b5b61246184828501612040565b91505092915050565b600060ff82169050919050565b6124808161246a565b82525050565b600060608201905061249b6000830186611c83565b6124a86020830185611c83565b6124b56040830184612477565b949350505050565b6000602082840312156124d3576124d2611a26565b5b60006124e1848285016121b1565b91505092915050565b600081519050919050565b600082825260208201905092915050565b6000819050602082019050919050565b60408201600082015161252c6000850182611dc5565b50602082015161253f6020850182611dc5565b50505050565b60006125518383612516565b60408301905092915050565b6000602082019050919050565b6000612575826124ea565b61257f81856124f5565b935061258a83612506565b8060005b838110156125bb5781516125a28882612545565b97506125ad8361255d565b92505060018101905061258e565b5085935050505092915050565b600060208201905081810360008301526125e2818461256a565b905092915050565b600060208284031215612600576125ff611a26565b5b600061260e84828501612386565b91505092915050565b7f4e487b7100000000000000000000000000000000000000000000000000000000600052602260045260246000fd5b6000600282049050600182168061265e57607f821691505b60208210810361267157612670612617565b5b50919050565b7f4e487b7100000000000000000000000000000000000000000000000000000000600052603260045260246000fd5b7f4e487b7100000000000000000000000000000000000000000000000000000000600052601160045260246000fd5b60006126e082611bd4565b91506126eb83611bd4565b9250828203905081811115612703576127026126a6565b5b92915050565b600061271482611bd4565b915060008203612727576127266126a6565b5b600182039050919050565b600061273d82611db1565b915061274883611db1565b925082820261275681611db1565b9150808214612768576127676126a6565b5b5092915050565b600061277a82611db1565b915061278583611db1565b9250828201905067ffffffffffffffff8111156127a5576127a46126a6565b5b92915050565b60006127b682611bd4565b91507fffffffffffffffffffffffffffffffffffffffffffffffffffffffffffffffff82036127e8576127e76126a6565b5b600182019050919050565b600081905092915050565b600061280a83856127f3565b9350612817838584611b55565b82840190509392505050565b60006128308284866127fe565b91508190509392505050565b600082825260208201905092915050565b7f494420616c726561647920616666696c6961746564207769746820616e6f746860008201527f6572206164647265737300000000000000000000000000000000000000000000602082015250565b60006128a9602a8361283c565b91506128b48261284d565b604082019050919050565b600060208201905081810360008301526128d88161289c565b9050919050565b7f416464726573732063616e6e6f74206265203078300000000000000000000000600082015250565b600061291560158361283c565b9150612920826128df565b602082019050919050565b6000602082019050818103600083015261294481612908565b9050919050565b7f50726f6f6620657870697265642c2074727920766572696679696e672061676160008201527f696e000000000000000000000000000000000000000000000000000000000000602082015250565b60006129a760228361283c565b91506129b28261294b565b604082019050919050565b600060208201905081810360008301526129d68161299a565b9050919050565b7f50726f6f66206973206e6f742076616c69640000000000000000000000000000600082015250565b6000612a1360128361283c565b9150612a1e826129dd565b602082019050919050565b60006020820190508181036000830152612a4281612a06565b9050919050565b60008190508160005260206000209050919050565b60008154612a6b81612646565b612a7581866127f3565b94506001821660008114612a905760018114612aa557612ad8565b60ff1983168652811515820286019350612ad8565b612aae85612a49565b60005b83811015612ad057815481890152600182019150602081019050612ab1565b838801955050505b50505092915050565b6000612aed8284612a5e565b915081905092915050565b60006020601f8301049050919050565b600082821b905092915050565b600060088302612b457fffffffffffffffffffffffffffffffffffffffffffffffffffffffffffffffff82612b08565b612b4f8683612b08565b95508019841693508086168417925050509392505050565b6000819050919050565b6000612b8c612b87612b8284611bd4565b612b67565b611bd4565b9050919050565b6000819050919050565b612ba683612b71565b612bba612bb282612b93565b848454612b15565b825550505050565b600090565b612bcf612bc2565b612bda818484612b9d565b505050565b5b81811015612bfe57612bf3600082612bc7565b600181019050612be0565b5050565b601f821115612c4357612c1481612a49565b612c1d84612af8565b81016020851015612c2c578190505b612c40612c3885612af8565b830182612bdf565b50505b505050565b600082821c905092915050565b6000612c6660001984600802612c48565b1980831691505092915050565b6000612c7f8383612c55565b9150826002028217905092915050565b612c9882611d06565b67ffffffffffffffff811115612cb157612cb0611aa9565b5b612cbb8254612646565b612cc6828285612c02565b600060209050601f831160018114612cf95760008415612ce7578287015190505b612cf18582612c73565b865550612d59565b601f198416612d0786612a49565b60005b82811015612d2f57848901518255600182019150602085019450602081019050612d0a565b86831015612d4c5784890151612d48601f891682612c55565b8355505b6001600288020188555050505b505050505050565b6000612d6c82611db1565b9150612d7783611db1565b9250828203905067ffffffffffffffff811115612d9757612d966126a6565b5b92915050565b7f4e487b7100000000000000000000000000000000000000000000000000000000600052601260045260246000fd5b6000612dd782611db1565b9150612de283611db1565b925082612df257612df1612d9d565b5b828204905092915050565b7f4164647265737320616c72656164792076657269666965643b2063616e6e6f7460008201527f2072652d766572696679207965742c2077616974206174206c6561737420686160208201527f6c6620746865207665726966794461795468726573686f6c6400000000000000604082015250565b6000612e7f60598361283c565b9150612e8a82612dfd565b606082019050919050565b60006020820190508181036000830152612eae81612e72565b9050919050565b60008160601b9050919050565b6000612ecd82612eb5565b9050919050565b6000612edf82612ec2565b9050919050565b612ef7612ef282611a50565b612ed4565b82525050565b6000612f0882611d06565b612f1281856127f3565b9350612f22818560208601611d22565b80840191505092915050565b6000819050919050565b612f49612f4482611bd4565b612f2e565b82525050565b6000612f5b8286612ee6565b601482019150612f6b8285612efd565b9150612f778284612f38565b602082019150819050949350505050565b6000608082019050612f9d6000830187611c83565b612faa6020830186612477565b612fb76040830185611c83565b612fc46060830184611c83565b95945050505050565b7f696e76616c6964207369676e6174757265206c656e6774680000000000000000600082015250565b600061300360188361283c565b915061300e82612fcd565b602082019050919050565b6000602082019050818103600083015261303281612ff6565b9050919050565b7f4f776e61626c653a2063616c6c6572206973206e6f7420746865206f776e6572600082015250565b600061306f60208361283c565b915061307a82613039565b602082019050919050565b6000602082019050818103600083015261309e81613062565b9050919050565b7f5468726573686f6c6420616c72656164792073657420746f207468697320766160008201527f6c75650000000000000000000000000000000000000000000000000000000000602082015250565b600061310160238361283c565b915061310c826130a5565b604082019050919050565b60006020820190508181036000830152613130816130f4565b9050919050565b7f19457468657265756d205369676e6564204d6573736167653a0a333200000000600082015250565b600061316d601c836127f3565b915061317882613137565b601c82019050919050565b6000819050919050565b61319e61319982611c79565b613183565b82525050565b60006131af82613160565b91506131bb828461318d565b60208201915081905092915050565b60006131d68284612efd565b91508190509291505056fea26469706673582212208314fbd55c8b709a39c4ab232bce86580af66af31254bbef1a9d9630dfc07ff364736f6c63430008120033",
  "immutableReferences": {
    "21": [
      {
        "length": 32,
        "start": 3698
      },
      {
        "length": 32,
        "start": 5346
      }
    ]
  },
  "source": "// SPDX-License-Identifier: MIT\r\npragma solidity ^0.8.0;\r\n\r\nimport \"./SignatureHelper.sol\";\r\n\r\n/// @title A contract to verify addresses\r\n/// @author JSC LEE\r\n/// @notice You can use this contract to verify addresses\r\ncontract GithubVerification is SignatureHelper {\r\n    mapping(address => Stamp[]) internal stamps;\r\n    mapping(string => address) internal stampHashMap;\r\n    Threshold[] thresholdHistory;\r\n\r\n    address private immutable _owner;\r\n\r\n    // A stamp defines proof of verification for a user on a specific platform at a specific date\r\n    struct Stamp {\r\n        string id;\r\n        string _hash;\r\n        uint64[] verifiedAt;\r\n    }\r\n\r\n    struct Threshold {\r\n        uint64 timestamp;\r\n        uint64 threshold;\r\n    }\r\n\r\n    /// @notice This constructor sets the owner of the contract\r\n    constructor(uint64 _threshold) {\r\n        thresholdHistory.push(Threshold(uint64(block.timestamp), _threshold));\r\n        _owner = msg.sender;\r\n    }\r\n\r\n    /// @notice This function can only be called by the owner, and it verifies an address. It's not possible to re-verofuy an address before half the verifyDayThreshold has passed.\r\n    /// @dev Verifies an address\r\n    /// @param _toVerify The address to verify\r\n    /// @param _timestamp in seconds\r\n    function verifyAddress(\r\n        address _toVerify,\r\n        string calldata _userHash,\r\n        uint64 _timestamp,\r\n        string calldata _providerId,\r\n        bytes calldata _proofSignature\r\n    ) external {\r\n        require(\r\n            stampHashMap[_userHash] == address(0) ||\r\n                stampHashMap[_userHash] == _toVerify,\r\n            \"ID already affiliated with another address\"\r\n        );\r\n\r\n        require(_toVerify != address(0), \"Address cannot be 0x0\");\r\n        require(\r\n            block.timestamp < _timestamp + 1 hours,\r\n            \"Proof expired, try verifying again\"\r\n        );\r\n\r\n        require(\r\n            verify(_owner, _toVerify, _userHash, _timestamp, _proofSignature),\r\n            \"Proof is not valid\"\r\n        );\r\n\r\n        // Check if there is existing stamp with providerId\r\n        bool found = false;\r\n        uint foundIndex = 0;\r\n\r\n        for (uint i = 0; i < stamps[_toVerify].length; i++) {\r\n            if (\r\n                keccak256(abi.encodePacked(stamps[_toVerify][i].id)) ==\r\n                keccak256(abi.encodePacked(_providerId))\r\n            ) {\r\n                found = true;\r\n                foundIndex = i;\r\n                break;\r\n            }\r\n        }\r\n\r\n        if (!found) {\r\n            // Create new stamp if user does not already have a stamp for this providerId\r\n            stamps[_toVerify].push(\r\n                createStamp(_providerId, _userHash, _timestamp)\r\n            );\r\n        } else {\r\n            // If user already has a stamp for this providerId\r\n            // Check how long it has been since the last verification\r\n            uint64[] storage verifiedAt = stamps[_toVerify][foundIndex]\r\n                .verifiedAt;\r\n            uint64 timeSinceLastVerification = uint64(block.timestamp) -\r\n                verifiedAt[verifiedAt.length - 1];\r\n\r\n            // If it has been more than (verifyDayThreshold / 2) days, update the stamp\r\n            if (\r\n                timeSinceLastVerification >\r\n                uint64(\r\n                    (thresholdHistory[thresholdHistory.length - 1].threshold /\r\n                        2) * 1 days\r\n                )\r\n            ) {\r\n                verifiedAt.push(_timestamp);\r\n            } else {\r\n                revert(\r\n                    \"Address already verified; cannot re-verify yet, wait at least half the verifyDayThreshold\"\r\n                );\r\n            }\r\n        }\r\n\r\n        stampHashMap[_userHash] = _toVerify;\r\n    }\r\n\r\n    /// @notice Creates a stamp for a user\r\n    /// @param _providerId Unique id for the provider (github, proofofhumanity, etc.)\r\n    /// @param _userHash Unique user hash on the platform of the stamp (GH, PoH, etc.)\r\n    /// @param _timestamp Timestamp at which the proof was generated\r\n    /// @return Stamp Returns the created stamp\r\n    function createStamp(\r\n        string memory _providerId,\r\n        string memory _userHash,\r\n        uint64 _timestamp\r\n    ) internal returns (Stamp memory) {\r\n        uint64[] memory verifiedAt = new uint64[](1);\r\n        verifiedAt[0] = _timestamp;\r\n        Stamp memory stamp = Stamp(_providerId, _userHash, verifiedAt);\r\n        stampHashMap[_userHash] = msg.sender;\r\n        return stamp;\r\n    }\r\n\r\n    /// @notice This function checks if an address is verified and if the address has been verified recently (within the set verifyDayThreshold)\r\n    /// @param _toCheck The address to check\r\n    /// @return A boolean indicating if the address is verified\r\n    // function addressIsVerified(address _toCheck) external view returns (bool) {\r\n    //     if (\r\n    //         verifiedTimeMap[_toCheck] + (verifyDayThreshold * 1 days) <\r\n    //         block.timestamp\r\n    //     ) return false;\r\n\r\n    //     return verifiedTimeMap[_toCheck] > 0;\r\n    // }\r\n\r\n    /// @notice This function returns the stamps of an address\r\n    /// @param _toCheck The address to check\r\n    /// @return An array of stamps\r\n    function getStamps(\r\n        address _toCheck\r\n    ) external view returns (Stamp[] memory) {\r\n        return stamps[_toCheck];\r\n    }\r\n\r\n    function getStampsAt(\r\n        address _toCheck,\r\n        uint _timestamp\r\n    ) external view returns (Stamp[] memory) {\r\n        Stamp[] memory stampsAt = new Stamp[](stamps[_toCheck].length);\r\n        uint count = 0;\r\n\r\n        // Loop through stamps\r\n        for (uint i = 0; i < stamps[_toCheck].length; i++) {\r\n            uint64[] storage verifiedAt = stamps[_toCheck][i].verifiedAt;\r\n            uint currentTimestampIndex = thresholdHistory.length - 1;\r\n\r\n            // Reverse for loop, because more recent dates are at the end of the array\r\n            for (uint j = verifiedAt.length; j > 0; j--) {\r\n                while (\r\n                    currentTimestampIndex > 0 &&\r\n                    verifiedAt[j - 1] <\r\n                    thresholdHistory[currentTimestampIndex].threshold\r\n                ) {\r\n                    currentTimestampIndex--;\r\n                }\r\n\r\n                uint64 verifyDayThreshold = thresholdHistory[\r\n                    currentTimestampIndex\r\n                ].threshold;\r\n\r\n                // Check if the verification timestamp is within the verifyDayThreshold\r\n                if (\r\n                    verifiedAt[j - 1] + (verifyDayThreshold * 1 days) >\r\n                    _timestamp &&\r\n                    verifiedAt[j - 1] < _timestamp\r\n                ) {\r\n                    stampsAt[count] = stamps[_toCheck][i];\r\n                    count++;\r\n                    break;\r\n                } else if (\r\n                    verifiedAt[j - 1] + (verifyDayThreshold * 1 days) <\r\n                    _timestamp\r\n                ) {\r\n                    break;\r\n                }\r\n            }\r\n        }\r\n\r\n        Stamp[] memory stampsAtTrimmed = new Stamp[](count);\r\n\r\n        for (uint i = 0; i < count; i++) {\r\n            stampsAtTrimmed[i] = stampsAt[i];\r\n        }\r\n\r\n        return stampsAtTrimmed;\r\n    }\r\n\r\n    /// @notice This function can only be called by the owner to set the verifyDayThreshold\r\n    /// @dev Sets the verifyDayThreshold\r\n    /// @param _days The number of days to set the verifyDayThreshold to\r\n    function setVerifyDayThreshold(uint64 _days) external onlyOwner {\r\n        Threshold memory lastThreshold = thresholdHistory[\r\n            thresholdHistory.length - 1\r\n        ];\r\n        require(\r\n            lastThreshold.threshold != _days,\r\n            \"Threshold already set to this value\"\r\n        );\r\n\r\n        thresholdHistory.push(Threshold(uint64(block.timestamp), _days));\r\n    }\r\n\r\n    /// @notice This function returns the full threshold history\r\n    /// @return An array of Threshold structs\r\n    function getThresholdHistory() external view returns (Threshold[] memory) {\r\n        return thresholdHistory;\r\n    }\r\n\r\n    modifier onlyOwner() {\r\n        require(msg.sender == _owner, \"Ownable: caller is not the owner\");\r\n        _;\r\n    }\r\n}\r\n",
  "sourcePath": "C:\\Users\\Monkey D. Dragon\\Documents\\GitHub\\SecureSECOVerification\\block\\contracts\\GithubVerification.sol",
  "compiler": {
    "name": "solc",
    "version": "0.8.18+commit.87f61d96.Emscripten.clang"
  },
  "schemaVersion": "3.4.13",
  "updatedAt": "2023-04-03T11:08:08.839Z",
  "networkType": "ethereum",
  "devdoc": {
    "author": "JSC LEE",
    "kind": "dev",
    "methods": {
      "getEthSignedMessageHash(bytes32)": {
        "params": {
          "_messageHash": "The hash of the packed message (messageHash) to be signed"
        },
        "returns": {
          "_0": "bytes32 Returns the signed messageHash"
        }
      },
      "getMessageHash(address,string,uint256)": {
        "details": "This is done after packing the parameters ",
        "params": {
          "_timestamp": "Timestamp at which the proof was generated",
          "_toVerify": "The address to verify",
          "_userHash": "Unique user hash of the platform of the stamp (GH, PoH, etc.)"
        },
        "returns": {
          "_0": "bytes Returns the hash of the packed message (a.k.a. messageHash)"
        }
      },
      "getPackedMessage(address,string,uint256)": {
        "details": "This is done before the keccak256 hash",
        "params": {
          "_timestamp": "Timestamp at which the proof was generated",
          "_toVerify": "The address to verify",
          "_userHash": "Unique user hash on the platform of the stamp (GH, PoH, etc.)"
        },
        "returns": {
          "_0": "bytes Returns the packed message"
        }
      },
      "getStamps(address)": {
        "params": {
          "_toCheck": "The address to check"
        },
        "returns": {
          "_0": "An array of stamps"
        }
      },
      "getThresholdHistory()": {
        "returns": {
          "_0": "An array of Threshold structs"
        }
      },
      "recoverSigner(bytes32,bytes)": {
        "details": "This uses ecrecover",
        "params": {
          "_ethSignedMessageHash": "The signed messageHash created from the parameters",
          "_signature": "The signature of the proof signed by the signer"
        },
        "returns": {
          "_0": "address Returns the recovered address"
        }
      },
      "setVerifyDayThreshold(uint64)": {
        "details": "Sets the verifyDayThreshold",
        "params": {
          "_days": "The number of days to set the verifyDayThreshold to"
        }
      },
      "splitSignature(bytes)": {
        "details": "This is necessary for the ecrecover function",
        "params": {
          "sig": "The signature"
        },
        "returns": {
          "r": "Returns the first 32 bytes of the signature",
          "s": "Returns the second 32 bytes of the signature",
          "v": "Returns the last byte of the signature"
        }
      },
      "verify(address,address,string,uint256,bytes)": {
        "details": "Generate the signed messageHash from the parameters to verify the signature against",
        "params": {
          "_signature": "The signature of the proof signed by the signer",
          "_signer": "The signer of the signature (the owner of the contract)",
          "_timestamp": "Timestamp at which the proof was generated",
          "_toVerify": "The address to verify",
          "_userHash": "Unique user hash of the platform of the stamp (GH, PoH, etc.)"
        },
        "returns": {
          "_0": "bool Returns the result of the verification, where true indicates success and false indicates failure"
        }
      },
      "verifyAddress(address,string,uint64,string,bytes)": {
        "details": "Verifies an address",
        "params": {
          "_timestamp": "in seconds",
          "_toVerify": "The address to verify"
        }
      }
    },
    "title": "A contract to verify addresses",
    "version": 1
  },
  "userdoc": {
    "kind": "user",
    "methods": {
      "constructor": {
        "notice": "This constructor sets the owner of the contract"
      },
      "getEthSignedMessageHash(bytes32)": {
        "notice": "Signs the messageHash with a standard prefix"
      },
      "getMessageHash(address,string,uint256)": {
        "notice": "Hashes a (packed) message using keccak256"
      },
      "getPackedMessage(address,string,uint256)": {
        "notice": "Packs three parameters (address, string, uint) into one packed message"
      },
      "getStamps(address)": {
        "notice": "This function returns the stamps of an address"
      },
      "getThresholdHistory()": {
        "notice": "This function returns the full threshold history"
      },
      "recoverSigner(bytes32,bytes)": {
        "notice": "Recover the signer from the signed messageHash and the signature"
      },
      "setVerifyDayThreshold(uint64)": {
        "notice": "This function can only be called by the owner to set the verifyDayThreshold"
      },
      "splitSignature(bytes)": {
        "notice": "Splits the signature into r, s, and v"
      },
      "verify(address,address,string,uint256,bytes)": {
        "notice": "Verify a signature"
      },
      "verifyAddress(address,string,uint64,string,bytes)": {
        "notice": "This function can only be called by the owner, and it verifies an address. It's not possible to re-verofuy an address before half the verifyDayThreshold has passed."
      }
    },
    "notice": "You can use this contract to verify addresses",
    "version": 1
  }
}